{
  "contractName": "BoringDAO",
  "abi": [
    {
      "inputs": [
        {
          "internalType": "contract IAddressResolver",
          "name": "_addrReso",
          "type": "address"
        },
        {
          "internalType": "uint256",
          "name": "_mintCap",
          "type": "uint256"
        },
        {
          "internalType": "address",
          "name": "_mine",
          "type": "address"
        }
      ],
      "stateMutability": "nonpayable",
      "type": "constructor"
    },
    {
      "anonymous": false,
      "inputs": [
        {
          "indexed": false,
          "internalType": "bytes32",
          "name": "_tunnelKey",
          "type": "bytes32"
        },
        {
          "indexed": false,
          "internalType": "string",
          "name": "_txid",
          "type": "string"
        },
        {
          "indexed": false,
          "internalType": "uint256",
          "name": "_amount",
          "type": "uint256"
        },
        {
          "indexed": false,
          "internalType": "address",
          "name": "to",
          "type": "address"
        },
        {
          "indexed": false,
          "internalType": "string",
          "name": "assetAddress",
          "type": "string"
        }
      ],
      "name": "ApproveMintSuccess",
      "type": "event"
    },
    {
      "anonymous": false,
      "inputs": [
        {
          "indexed": false,
          "internalType": "bytes32",
          "name": "_tunnelKey",
          "type": "bytes32"
        },
        {
          "indexed": false,
          "internalType": "string",
          "name": "_txid",
          "type": "string"
        },
        {
          "indexed": false,
          "internalType": "uint256",
          "name": "_amount",
          "type": "uint256"
        },
        {
          "indexed": false,
          "internalType": "address",
          "name": "to",
          "type": "address"
        },
        {
          "indexed": false,
          "internalType": "address",
          "name": "trustee",
          "type": "address"
        },
        {
          "indexed": false,
          "internalType": "string",
          "name": "assetAddress",
          "type": "string"
        }
      ],
      "name": "ETHAddressNotExist",
      "type": "event"
    },
    {
      "anonymous": false,
      "inputs": [
        {
          "indexed": true,
          "internalType": "bytes32",
          "name": "_tunnelKey",
          "type": "bytes32"
        },
        {
          "indexed": true,
          "internalType": "string",
          "name": "_txid",
          "type": "string"
        },
        {
          "indexed": false,
          "internalType": "uint256",
          "name": "_amount",
          "type": "uint256"
        },
        {
          "indexed": false,
          "internalType": "address",
          "name": "to",
          "type": "address"
        },
        {
          "indexed": false,
          "internalType": "address",
          "name": "trustee",
          "type": "address"
        },
        {
          "indexed": false,
          "internalType": "string",
          "name": "assetAddress",
          "type": "string"
        }
      ],
      "name": "NotEnoughPledgeValue",
      "type": "event"
    },
    {
      "anonymous": false,
      "inputs": [
        {
          "indexed": false,
          "internalType": "address",
          "name": "account",
          "type": "address"
        }
      ],
      "name": "Paused",
      "type": "event"
    },
    {
      "anonymous": false,
      "inputs": [
        {
          "indexed": true,
          "internalType": "bytes32",
          "name": "role",
          "type": "bytes32"
        },
        {
          "indexed": true,
          "internalType": "bytes32",
          "name": "previousAdminRole",
          "type": "bytes32"
        },
        {
          "indexed": true,
          "internalType": "bytes32",
          "name": "newAdminRole",
          "type": "bytes32"
        }
      ],
      "name": "RoleAdminChanged",
      "type": "event"
    },
    {
      "anonymous": false,
      "inputs": [
        {
          "indexed": true,
          "internalType": "bytes32",
          "name": "role",
          "type": "bytes32"
        },
        {
          "indexed": true,
          "internalType": "address",
          "name": "account",
          "type": "address"
        },
        {
          "indexed": true,
          "internalType": "address",
          "name": "sender",
          "type": "address"
        }
      ],
      "name": "RoleGranted",
      "type": "event"
    },
    {
      "anonymous": false,
      "inputs": [
        {
          "indexed": true,
          "internalType": "bytes32",
          "name": "role",
          "type": "bytes32"
        },
        {
          "indexed": true,
          "internalType": "address",
          "name": "account",
          "type": "address"
        },
        {
          "indexed": true,
          "internalType": "address",
          "name": "sender",
          "type": "address"
        }
      ],
      "name": "RoleRevoked",
      "type": "event"
    },
    {
      "anonymous": false,
      "inputs": [
        {
          "indexed": false,
          "internalType": "address",
          "name": "account",
          "type": "address"
        }
      ],
      "name": "Unpaused",
      "type": "event"
    },
    {
      "inputs": [],
      "name": "BOR",
      "outputs": [
        {
          "internalType": "bytes32",
          "name": "",
          "type": "bytes32"
        }
      ],
      "stateMutability": "view",
      "type": "function",
      "constant": true
    },
    {
      "inputs": [],
      "name": "DEFAULT_ADMIN_ROLE",
      "outputs": [
        {
          "internalType": "bytes32",
          "name": "",
          "type": "bytes32"
        }
      ],
      "stateMutability": "view",
      "type": "function",
      "constant": true
    },
    {
      "inputs": [],
      "name": "GOV_ROLE",
      "outputs": [
        {
          "internalType": "bytes32",
          "name": "",
          "type": "bytes32"
        }
      ],
      "stateMutability": "view",
      "type": "function",
      "constant": true
    },
    {
      "inputs": [],
      "name": "LIQUIDATION_ROLE",
      "outputs": [
        {
          "internalType": "bytes32",
          "name": "",
          "type": "bytes32"
        }
      ],
      "stateMutability": "view",
      "type": "function",
      "constant": true
    },
    {
      "inputs": [],
      "name": "MINT_PROPOSAL",
      "outputs": [
        {
          "internalType": "bytes32",
          "name": "",
          "type": "bytes32"
        }
      ],
      "stateMutability": "view",
      "type": "function",
      "constant": true
    },
    {
      "inputs": [],
      "name": "NETWORK_FEE",
      "outputs": [
        {
          "internalType": "bytes32",
          "name": "",
          "type": "bytes32"
        }
      ],
      "stateMutability": "view",
      "type": "function",
      "constant": true
    },
    {
      "inputs": [],
      "name": "ORACLE",
      "outputs": [
        {
          "internalType": "bytes32",
          "name": "",
          "type": "bytes32"
        }
      ],
      "stateMutability": "view",
      "type": "function",
      "constant": true
    },
    {
      "inputs": [],
      "name": "PARAM_BOOK",
      "outputs": [
        {
          "internalType": "bytes32",
          "name": "",
          "type": "bytes32"
        }
      ],
      "stateMutability": "view",
      "type": "function",
      "constant": true
    },
    {
      "inputs": [],
      "name": "TRUSTEE_FEE_POOL",
      "outputs": [
        {
          "internalType": "bytes32",
          "name": "",
          "type": "bytes32"
        }
      ],
      "stateMutability": "view",
      "type": "function",
      "constant": true
    },
    {
      "inputs": [],
      "name": "TRUSTEE_ROLE",
      "outputs": [
        {
          "internalType": "bytes32",
          "name": "",
          "type": "bytes32"
        }
      ],
      "stateMutability": "view",
      "type": "function",
      "constant": true
    },
    {
      "inputs": [],
      "name": "TUNNEL_MINT_FEE_RATE",
      "outputs": [
        {
          "internalType": "bytes32",
          "name": "",
          "type": "bytes32"
        }
      ],
      "stateMutability": "view",
      "type": "function",
      "constant": true
    },
    {
      "inputs": [],
      "name": "addrReso",
      "outputs": [
        {
          "internalType": "contract IAddressResolver",
          "name": "",
          "type": "address"
        }
      ],
      "stateMutability": "view",
      "type": "function",
      "constant": true
    },
    {
      "inputs": [],
      "name": "amountByMint",
      "outputs": [
        {
          "internalType": "uint256",
          "name": "",
          "type": "uint256"
        }
      ],
      "stateMutability": "view",
      "type": "function",
      "constant": true
    },
    {
      "inputs": [
        {
          "internalType": "string",
          "name": "",
          "type": "string"
        }
      ],
      "name": "approveFlag",
      "outputs": [
        {
          "internalType": "bool",
          "name": "",
          "type": "bool"
        }
      ],
      "stateMutability": "view",
      "type": "function",
      "constant": true
    },
    {
      "inputs": [
        {
          "internalType": "bytes32",
          "name": "role",
          "type": "bytes32"
        }
      ],
      "name": "getRoleAdmin",
      "outputs": [
        {
          "internalType": "bytes32",
          "name": "",
          "type": "bytes32"
        }
      ],
      "stateMutability": "view",
      "type": "function",
      "constant": true
    },
    {
      "inputs": [
        {
          "internalType": "bytes32",
          "name": "role",
          "type": "bytes32"
        },
        {
          "internalType": "uint256",
          "name": "index",
          "type": "uint256"
        }
      ],
      "name": "getRoleMember",
      "outputs": [
        {
          "internalType": "address",
          "name": "",
          "type": "address"
        }
      ],
      "stateMutability": "view",
      "type": "function",
      "constant": true
    },
    {
      "inputs": [
        {
          "internalType": "bytes32",
          "name": "role",
          "type": "bytes32"
        }
      ],
      "name": "getRoleMemberCount",
      "outputs": [
        {
          "internalType": "uint256",
          "name": "",
          "type": "uint256"
        }
      ],
      "stateMutability": "view",
      "type": "function",
      "constant": true
    },
    {
      "inputs": [
        {
          "internalType": "bytes32",
          "name": "role",
          "type": "bytes32"
        },
        {
          "internalType": "address",
          "name": "account",
          "type": "address"
        }
      ],
      "name": "grantRole",
      "outputs": [],
      "stateMutability": "nonpayable",
      "type": "function"
    },
    {
      "inputs": [
        {
          "internalType": "bytes32",
          "name": "role",
          "type": "bytes32"
        },
        {
          "internalType": "address",
          "name": "account",
          "type": "address"
        }
      ],
      "name": "hasRole",
      "outputs": [
        {
          "internalType": "bool",
          "name": "",
          "type": "bool"
        }
      ],
      "stateMutability": "view",
      "type": "function",
      "constant": true
    },
    {
      "inputs": [],
      "name": "mine",
      "outputs": [
        {
          "internalType": "address",
          "name": "",
          "type": "address"
        }
      ],
      "stateMutability": "view",
      "type": "function",
      "constant": true
    },
    {
      "inputs": [],
      "name": "mintCap",
      "outputs": [
        {
          "internalType": "uint256",
          "name": "",
          "type": "uint256"
        }
      ],
      "stateMutability": "view",
      "type": "function",
      "constant": true
    },
    {
      "inputs": [],
      "name": "paused",
      "outputs": [
        {
          "internalType": "bool",
          "name": "",
          "type": "bool"
        }
      ],
      "stateMutability": "view",
      "type": "function",
      "constant": true
    },
    {
      "inputs": [
        {
          "internalType": "bytes32",
          "name": "role",
          "type": "bytes32"
        },
        {
          "internalType": "address",
          "name": "account",
          "type": "address"
        }
      ],
      "name": "renounceRole",
      "outputs": [],
      "stateMutability": "nonpayable",
      "type": "function"
    },
    {
      "inputs": [
        {
          "internalType": "bytes32",
          "name": "role",
          "type": "bytes32"
        },
        {
          "internalType": "address",
          "name": "account",
          "type": "address"
        }
      ],
      "name": "revokeRole",
      "outputs": [],
      "stateMutability": "nonpayable",
      "type": "function"
    },
    {
      "inputs": [
        {
          "internalType": "uint256",
          "name": "",
          "type": "uint256"
        }
      ],
      "name": "tunnels",
      "outputs": [
        {
          "internalType": "contract ITunnel",
          "name": "",
          "type": "address"
        }
      ],
      "stateMutability": "view",
      "type": "function",
      "constant": true
    },
    {
      "inputs": [
        {
          "internalType": "uint256",
          "name": "index",
          "type": "uint256"
        }
      ],
      "name": "getTrustee",
      "outputs": [
        {
          "internalType": "address",
          "name": "",
          "type": "address"
        }
      ],
      "stateMutability": "view",
      "type": "function",
      "constant": true
    },
    {
      "inputs": [],
      "name": "getTrusteeCount",
      "outputs": [
        {
          "internalType": "uint256",
          "name": "",
          "type": "uint256"
        }
      ],
      "stateMutability": "view",
      "type": "function",
      "constant": true
    },
    {
      "inputs": [],
      "name": "getRandomTrustee",
      "outputs": [
        {
          "internalType": "address",
          "name": "",
          "type": "address"
        }
      ],
      "stateMutability": "view",
      "type": "function",
      "constant": true
    },
    {
      "inputs": [
        {
          "internalType": "address",
          "name": "account",
          "type": "address"
        }
      ],
      "name": "addTrustee",
      "outputs": [],
      "stateMutability": "nonpayable",
      "type": "function"
    },
    {
      "inputs": [
        {
          "internalType": "address[]",
          "name": "accounts",
          "type": "address[]"
        }
      ],
      "name": "addTrustees",
      "outputs": [],
      "stateMutability": "nonpayable",
      "type": "function"
    },
    {
      "inputs": [
        {
          "internalType": "address",
          "name": "account",
          "type": "address"
        }
      ],
      "name": "removeTrustee",
      "outputs": [],
      "stateMutability": "nonpayable",
      "type": "function"
    },
    {
      "inputs": [
        {
          "internalType": "address",
          "name": "_mine",
          "type": "address"
        }
      ],
      "name": "setMine",
      "outputs": [],
      "stateMutability": "nonpayable",
      "type": "function"
    },
    {
      "inputs": [
        {
          "internalType": "uint256",
          "name": "amount",
          "type": "uint256"
        }
      ],
      "name": "setMintCap",
      "outputs": [],
      "stateMutability": "nonpayable",
      "type": "function"
    },
    {
      "inputs": [
        {
          "internalType": "bytes32",
          "name": "_tunnelKey",
          "type": "bytes32"
        },
        {
          "internalType": "uint256",
          "name": "_amount",
          "type": "uint256"
        }
      ],
      "name": "pledge",
      "outputs": [],
      "stateMutability": "nonpayable",
      "type": "function"
    },
    {
      "inputs": [
        {
          "internalType": "bytes32",
          "name": "_tunnelKey",
          "type": "bytes32"
        },
        {
          "internalType": "uint256",
          "name": "_amount",
          "type": "uint256"
        }
      ],
      "name": "redeem",
      "outputs": [],
      "stateMutability": "nonpayable",
      "type": "function"
    },
    {
      "inputs": [
        {
          "internalType": "bytes32",
          "name": "_tunnelKey",
          "type": "bytes32"
        },
        {
          "internalType": "uint256",
          "name": "amount",
          "type": "uint256"
        },
        {
          "internalType": "string",
          "name": "assetAddress",
          "type": "string"
        }
      ],
      "name": "burnBToken",
      "outputs": [],
      "stateMutability": "nonpayable",
      "type": "function"
    },
    {
      "inputs": [
        {
          "internalType": "bytes32",
          "name": "_tunnelKey",
          "type": "bytes32"
        },
        {
          "internalType": "string",
          "name": "_txid",
          "type": "string"
        },
        {
          "internalType": "uint256",
          "name": "_amount",
          "type": "uint256"
        },
        {
          "internalType": "address",
          "name": "to",
          "type": "address"
        },
        {
          "internalType": "string",
          "name": "assetAddress",
          "type": "string"
        }
      ],
      "name": "approveMint",
      "outputs": [],
      "stateMutability": "nonpayable",
      "type": "function"
    },
    {
      "inputs": [
        {
          "internalType": "bytes32",
          "name": "_tunnelKey",
          "type": "bytes32"
        },
        {
          "internalType": "uint256",
          "name": "_amount",
          "type": "uint256"
        }
      ],
      "name": "calculateMintBORAmount",
      "outputs": [
        {
          "internalType": "uint256",
          "name": "",
          "type": "uint256"
        }
      ],
      "stateMutability": "view",
      "type": "function",
      "constant": true
    },
    {
      "inputs": [],
      "name": "pause",
      "outputs": [],
      "stateMutability": "nonpayable",
      "type": "function"
    },
    {
      "inputs": [],
      "name": "unpause",
      "outputs": [],
      "stateMutability": "nonpayable",
      "type": "function"
    }
  ],
  "bytecode": "0x60806040523480156200001157600080fd5b506040516200316338038062003163833981810160405260608110156200003757600080fd5b50805160208201516040909201516001805460ff19169055600380546001600160a01b038085166001600160a01b03199283161790925560058590556006805492841692909116919091179055909190620000946000336200009d565b505050620001b1565b620000a98282620000ad565b5050565b600082815260208181526040909120620000d29183906200248262000126821b17901c565b15620000a957620000e262000146565b6001600160a01b0316816001600160a01b0316837f2f8788117e7eff1d82e926ec794901d17c78024a50270940304540a733656f0d60405160405180910390a45050565b60006200013d836001600160a01b0384166200014a565b90505b92915050565b3390565b600062000158838362000199565b620001905750815460018181018455600084815260208082209093018490558454848252828601909352604090209190915562000140565b50600062000140565b60009081526001919091016020526040902054151590565b612fa280620001c16000396000f3fe608060405234801561001057600080fd5b50600436106102475760003560e01c8063820392581161013b578063ab282bba116100b8578063dbd695f31161007c578063dbd695f3146107ca578063dc78ac1c1461086b578063e34bc6f314610891578063e9857da114610899578063f7dd57b0146108a157610247565b8063ab282bba1461074e578063ae0e012514610771578063b536818a14610779578063ca15c87314610781578063d547741f1461079e57610247565b80639817d5b8116100ff5780639817d5b81461066957806399f4b251146106865780639be5c0241461068e578063a217fddf14610696578063a5ef26151461069e57610247565b806382039258146105e75780638456cb591461060a5780639010d07c1461061257806391d1485414610635578063929a2a081461066157610247565b80633f4ba83a116101c9578063673da1541161018d578063673da154146104675780636b3bc2441461048a57806372777649146105cf57806376c71ca1146105d75780637fe4ac44146105df57610247565b80633f4ba83a1461042a5780634070a0c9146104325780635c7975511461044f5780635c975abb146104575780635fc5f4de1461045f57610247565b80632f2ff15d116102105780632f2ff15d14610389578063316ec4f4146103b557806336568abe146103bd5780633719bc6a146103e957806338013f021461042257610247565b80621333a71461024c57806303120506146102745780631c1252651461029a578063248a9ca31461035257806326abdad414610381575b600080fd5b6102726004803603602081101561026257600080fd5b50356001600160a01b03166108a9565b005b6102726004803603602081101561028a57600080fd5b50356001600160a01b0316610915565b61033e600480360360208110156102b057600080fd5b810190602081018135600160201b8111156102ca57600080fd5b8201836020820111156102dc57600080fd5b803590602001918460018302840111600160201b831117156102fd57600080fd5b91908080601f0160208091040260200160405190810160405280939291908181526020018383808284376000920191909152509295506109e9945050505050565b604080519115158252519081900360200190f35b61036f6004803603602081101561036857600080fd5b5035610a09565b60408051918252519081900360200190f35b61036f610a1e565b6102726004803603604081101561039f57600080fd5b50803590602001356001600160a01b0316610a28565b61036f610a94565b610272600480360360408110156103d357600080fd5b50803590602001356001600160a01b0316610ab3565b610406600480360360208110156103ff57600080fd5b5035610b14565b604080516001600160a01b039092168252519081900360200190f35b61036f610b3b565b610272610b48565b6102726004803603602081101561044857600080fd5b5035610baa565b610406610bf9565b61033e610c08565b61036f610c11565b6102726004803603604081101561047d57600080fd5b5080359060200135610c26565b610272600480360360a08110156104a057600080fd5b81359190810190604081016020820135600160201b8111156104c157600080fd5b8201836020820111156104d357600080fd5b803590602001918460018302840111600160201b831117156104f457600080fd5b91908080601f01602080910402602001604051908101604052809392919081815260200183838082843760009201919091525092958435956001600160a01b0360208701351695919450925060608101915060400135600160201b81111561055b57600080fd5b82018360208201111561056d57600080fd5b803590602001918460018302840111600160201b8311171561058e57600080fd5b91908080601f016020809104026020016040519081016040528093929190818152602001838380828437600092019190915250929550610dbb945050505050565b61036f611819565b61036f61182c565b61036f611832565b610272600480360360408110156105fd57600080fd5b5080359060200135611845565b610272611b2f565b6104066004803603604081101561062857600080fd5b5080359060200135611b8f565b61033e6004803603604081101561064b57600080fd5b50803590602001356001600160a01b0316611bb0565b61036f611bc8565b6104066004803603602081101561067f57600080fd5b5035611bce565b610406611bf1565b61036f611c00565b61036f611c12565b610272600480360360608110156106b457600080fd5b813591602081013591810190606081016040820135600160201b8111156106da57600080fd5b8201836020820111156106ec57600080fd5b803590602001918460018302840111600160201b8311171561070d57600080fd5b91908080601f016020809104026020016040519081016040528093929190818152602001838380828437600092019190915250929550611c17945050505050565b61036f6004803603604081101561076457600080fd5b5080359060200135611f27565b61036f612221565b61036f612238565b61036f6004803603602081101561079757600080fd5b5035612247565b610272600480360360408110156107b457600080fd5b50803590602001356001600160a01b031661225e565b610272600480360360208110156107e057600080fd5b810190602081018135600160201b8111156107fa57600080fd5b82018360208201111561080c57600080fd5b803590602001918460208302840111600160201b8311171561082d57600080fd5b9190808060200260200160405190810160405280939291908181526020018383602002808284376000920191909152509295506122b7945050505050565b6102726004803603602081101561088157600080fd5b50356001600160a01b0316612331565b61036f6123ea565b6104066123fa565b61036f612473565b6108b4600033611bb0565b6108f3576040805162461bcd60e51b815260206004820152601e6024820152600080516020612f1e833981519152604482015290519081900360640190fd5b600680546001600160a01b0319166001600160a01b0392909216919091179055565b610920600033611bb0565b61095f576040805162461bcd60e51b815260206004820152601e6024820152600080516020612f1e833981519152604482015290519081900360640190fd5b6109786b545255535445455f524f4c4560a01b8261225e565b610980612497565b6001600160a01b031663b42652e9826040518263ffffffff1660e01b815260040180826001600160a01b03168152602001915050600060405180830381600087803b1580156109ce57600080fd5b505af11580156109e2573d6000803e3d6000fd5b5050505050565b805160208183018101805160078252928201919093012091525460ff1681565b60009081526020819052604090206002015490565b622127a960e91b81565b600082815260208190526040902060020154610a4b90610a46612541565b611bb0565b610a865760405162461bcd60e51b815260040180806020018281038252602f815260200180612e55602f913960400191505060405180910390fd5b610a908282612545565b5050565b6000610aae6b545255535445455f524f4c4560a01b612247565b905090565b610abb612541565b6001600160a01b0316816001600160a01b031614610b0a5760405162461bcd60e51b815260040180806020018281038252602f815260200180612f3e602f913960400191505060405180910390fd5b610a9082826125ae565b60048181548110610b2157fe5b6000918252602090912001546001600160a01b0316905081565b654f7261636c6560d01b81565b610b656f4c49515549444154494f4e5f524f4c4560801b33611bb0565b610ba05760405162461bcd60e51b8152600401808060200182810382526022815260200180612eab6022913960400191505060405180910390fd5b610ba8612617565b565b610bb5600033611bb0565b610bf4576040805162461bcd60e51b815260206004820152601e6024820152600080516020612f1e833981519152604482015290519081900360640190fd5b600555565b6003546001600160a01b031681565b60015460ff1690565b6d151c9d5cdd1959519959541bdbdb60921b81565b60015460ff1615610c71576040805162461bcd60e51b815260206004820152601060248201526f14185d5cd8589b194e881c185d5cd95960821b604482015290519081900360640190fd5b6003546040805163130852b360e11b815260048101859052905184926000926001600160a01b0390911691632610a56691602480820192602092909190829003018186803b158015610cc257600080fd5b505afa158015610cd6573d6000803e3d6000fd5b505050506040513d6020811015610cec57600080fd5b50516001600160a01b03161415610d3f576040805162461bcd60e51b815260206004820152601260248201527110dbdb9d1c9858dd081b9bdd08195e1a5cdd60721b604482015290519081900360640190fd5b610d48836126b5565b6001600160a01b0316631e9a695033846040518363ffffffff1660e01b815260040180836001600160a01b0316815260200182815260200192505050600060405180830381600087803b158015610d9e57600080fd5b505af1158015610db2573d6000803e3d6000fd5b50505050505050565b60015460ff1615610e06576040805162461bcd60e51b815260206004820152601060248201526f14185d5cd8589b194e881c185d5cd95960821b604482015290519081900360640190fd5b60035460408051635da2251d60e11b81526004810188905260248101829052601060448201526f1d1d5b9b995b081b9bdd08195e1a5cdd60821b6064820152905187926000926001600160a01b039091169163bb444a3a91608480820192602092909190829003018186803b158015610e7e57600080fd5b505afa158015610e92573d6000803e3d6000fd5b505050506040513d6020811015610ea857600080fd5b505160408051635c975abb60e01b815290519192506001600160a01b03831691635c975abb91600480820192602092909190829003018186803b158015610eee57600080fd5b505afa158015610f02573d6000803e3d6000fd5b505050506040513d6020811015610f1857600080fd5b505115610f5f576040805162461bcd60e51b815260206004820152601060248201526f1d1d5b9b995b081a5cc81c185d5cd95960821b604482015290519081900360640190fd5b610f786b545255535445455f524f4c4560a01b33611bb0565b610fc1576040805162461bcd60e51b815260206004820152601560248201527443616c6c6572206973206e6f74207472757374656560581b604482015290519081900360640190fd5b6001600160a01b0384166111f0576007866040518082805190602001908083835b602083106110015780518252601f199092019160209182019101610fe2565b51815160209384036101000a600019018019909216911617905292019485525060405193849003019092205460ff16151591506111eb90505760016007876040518082805190602001908083835b6020831061106e5780518252601f19909201916020918201910161104f565b6001836020036101000a038019825116818451168082178552505050505050905001915050908152602001604051809103902060006101000a81548160ff0219169083151502179055507f4bc1997b63d05a364fe5d5d78b4deae806531ad47732917eecde4becb88b86d88787878733886040518087815260200180602001868152602001856001600160a01b03168152602001846001600160a01b0316815260200180602001838103835288818151815260200191508051906020019080838360005b8381101561114a578181015183820152602001611132565b50505050905090810190601f1680156111775780820380516001836020036101000a031916815260200191505b50838103825284518152845160209182019186019080838360005b838110156111aa578181015183820152602001611192565b50505050905090810190601f1680156111d75780820380516001836020036101000a031916815260200191505b509850505050505050505060405180910390a15b610db2565b600061120a6b545255535445455f524f4c4560a01b612247565b90506000611216612733565b6001600160a01b031663f99021a28a8a8a8a33886040518763ffffffff1660e01b81526004018087815260200180602001868152602001856001600160a01b03168152602001846001600160a01b03168152602001838152602001828103825287818151815260200191508051906020019080838360005b838110156112a657818101518382015260200161128e565b50505050905090810190601f1680156112d35780820380516001836020036101000a031916815260200191505b50975050505050505050602060405180830381600087803b1580156112f757600080fd5b505af115801561130b573d6000803e3d6000fd5b505050506040513d602081101561132157600080fd5b5051905080611331575050610db2565b600061133c8a6126b5565b6001600160a01b0316633c69e26b6040518163ffffffff1660e01b815260040160206040518083038186803b15801561137457600080fd5b505afa158015611388573d6000803e3d6000fd5b505050506040513d602081101561139e57600080fd5b5051905060006113ad8b6126b5565b6001600160a01b03166310d5e5906040518163ffffffff1660e01b815260040160206040518083038186803b1580156113e557600080fd5b505afa1580156113f9573d6000803e3d6000fd5b505050506040513d602081101561140f57600080fd5b505190508161148b611420836126b5565b6001600160a01b03166318160ddd6040518163ffffffff1660e01b815260040160206040518083038186803b15801561145857600080fd5b505afa15801561146c573d6000803e3d6000fd5b505050506040513d602081101561148257600080fd5b50518b9061278d565b11156115bb57896040518082805190602001908083835b602083106114c15780518252601f1990920191602091820191016114a2565b6001836020036101000a03801982511681845116808217855250505050505090500191505060405180910390208b7ff5ab3d402a4845f0bfb050bdce018a06672cc3a7f4161e69dc114b2c43cd1eab8b8b338c60405180858152602001846001600160a01b03168152602001836001600160a01b0316815260200180602001828103825283818151815260200191508051906020019080838360005b8381101561157557818101518382015260200161155d565b50505050905090810190601f1680156115a25780820380516001836020036101000a031916815260200191505b509550505050505060405180910390a350505050610db2565b6115c48b6126b5565b6001600160a01b031663867904b4898b6040518363ffffffff1660e01b815260040180836001600160a01b0316815260200182815260200192505050600060405180830381600087803b15801561161a57600080fd5b505af115801561162e573d6000803e3d6000fd5b50505050600061163e8c8b611f27565b905080156116ea57600254611653908261278d565b60025561165e6127e7565b600654604080516323b872dd60e01b81526001600160a01b0392831660048201528c8316602482015260448101859052905192909116916323b872dd916064808201926020929091908290030181600087803b1580156116bd57600080fd5b505af11580156116d1573d6000803e3d6000fd5b505050506040513d60208110156116e757600080fd5b50505b7fbf356171c0bbd785947f0936380f7bacc26c740c41ee8d68bfbd27a3225dbf458c8c8c8c8c6040518086815260200180602001858152602001846001600160a01b0316815260200180602001838103835287818151815260200191508051906020019080838360005b8381101561176c578181015183820152602001611754565b50505050905090810190601f1680156117995780820380516001836020036101000a031916815260200191505b50838103825284518152845160209182019186019080838360005b838110156117cc5781810151838201526020016117b4565b50505050905090810190601f1680156117f95780820380516001836020036101000a031916815260200191505b5097505050505050505060405180910390a1505050505050505050505050565b6b545255535445455f524f4c4560a01b81565b60055481565b6b135a5b9d141c9bdc1bdcd85b60a21b81565b60015460ff1615611890576040805162461bcd60e51b815260206004820152601060248201526f14185d5cd8589b194e881c185d5cd95960821b604482015290519081900360640190fd5b6003546040805163130852b360e11b815260048101859052905184926000926001600160a01b0390911691632610a56691602480820192602092909190829003018186803b1580156118e157600080fd5b505afa1580156118f5573d6000803e3d6000fd5b505050506040513d602081101561190b57600080fd5b50516001600160a01b0316141561195e576040805162461bcd60e51b815260206004820152601260248201527110dbdb9d1c9858dd081b9bdd08195e1a5cdd60721b604482015290519081900360640190fd5b816119676127e7565b60408051636eb1769f60e11b815233600482015230602482015290516001600160a01b03929092169163dd62ed3e91604480820192602092909190829003018186803b1580156119b657600080fd5b505afa1580156119ca573d6000803e3d6000fd5b505050506040513d60208110156119e057600080fd5b50511015611a2c576040805162461bcd60e51b81526020600482015260146024820152733737ba1030b63637bb9032b737bab3b4103137b960611b604482015290519081900360640190fd5b611a346127e7565b6001600160a01b03166323b872dd33611a4c866126b5565b856040518463ffffffff1660e01b815260040180846001600160a01b03168152602001836001600160a01b031681526020018281526020019350505050602060405180830381600087803b158015611aa357600080fd5b505af1158015611ab7573d6000803e3d6000fd5b505050506040513d6020811015611acd57600080fd5b50611ad99050836126b5565b6001600160a01b031663743b345233846040518363ffffffff1660e01b815260040180836001600160a01b0316815260200182815260200192505050600060405180830381600087803b158015610d9e57600080fd5b611b4c6f4c49515549444154494f4e5f524f4c4560801b33611bb0565b611b875760405162461bcd60e51b8152600401808060200182810382526022815260200180612eab6022913960400191505060405180910390fd5b610ba8612838565b6000828152602081905260408120611ba790836128b8565b90505b92915050565b6000828152602081905260408120611ba790836128c4565b60025481565b600080611bea6b545255535445455f524f4c4560a01b84611b8f565b9392505050565b6006546001600160a01b031681565b6a6e6574776f726b5f66656560a81b81565b600081565b6003546040805163130852b360e11b815260048101869052905185926000926001600160a01b0390911691632610a56691602480820192602092909190829003018186803b158015611c6857600080fd5b505afa158015611c7c573d6000803e3d6000fd5b505050506040513d6020811015611c9257600080fd5b50516001600160a01b03161415611ce5576040805162461bcd60e51b815260206004820152601260248201527110dbdb9d1c9858dd081b9bdd08195e1a5cdd60721b604482015290519081900360640190fd5b60035460408051635da2251d60e11b81526004810187905260248101829052601060448201526f1d1d5b9b995b081b9bdd08195e1a5cdd60821b6064820152905186926000926001600160a01b039091169163bb444a3a91608480820192602092909190829003018186803b158015611d5d57600080fd5b505afa158015611d71573d6000803e3d6000fd5b505050506040513d6020811015611d8757600080fd5b505160408051635c975abb60e01b815290519192506001600160a01b03831691635c975abb91600480820192602092909190829003018186803b158015611dcd57600080fd5b505afa158015611de1573d6000803e3d6000fd5b505050506040513d6020811015611df757600080fd5b505115611e3e576040805162461bcd60e51b815260206004820152601060248201526f1d1d5b9b995b081a5cc81c185d5cd95960821b604482015290519081900360640190fd5b611e47866126b5565b6001600160a01b03166315f570dc3387876040518463ffffffff1660e01b815260040180846001600160a01b0316815260200183815260200180602001828103825283818151815260200191508051906020019080838360005b83811015611eb9578181015183820152602001611ea1565b50505050905090810190601f168015611ee65780820380516001836020036101000a031916815260200191505b50945050505050600060405180830381600087803b158015611f0757600080fd5b505af1158015611f1b573d6000803e3d6000fd5b50505050505050505050565b6000600554600254101580611f3a575081155b15611f4757506000611baa565b6000611f516128d9565b6001600160a01b03166331d98b3f856040518263ffffffff1660e01b81526004018082815260200191505060206040518083038186803b158015611f9457600080fd5b505afa158015611fa8573d6000803e3d6000fd5b505050506040513d6020811015611fbe57600080fd5b505190506000611fcc6128d9565b6001600160a01b03166331d98b3f622127a960e91b6040518263ffffffff1660e01b81526004018082815260200191505060206040518083038186803b15801561201557600080fd5b505afa158015612029573d6000803e3d6000fd5b505050506040513d602081101561203f57600080fd5b505160025490915060009061205e9069021e19e0c9bab240000061292d565b9050600061206a61296f565b6001600160a01b031663171800cc88676d696e745f66656560c01b6040518363ffffffff1660e01b8152600401808381526020018281526020019250505060206040518083038186803b1580156120c057600080fd5b505afa1580156120d4573d6000803e3d6000fd5b505050506040513d60208110156120ea57600080fd5b505190506000612114600584900a61210e600486900a670de0b6b3a76400006129c6565b9061292d565b9050600061212061296f565b6001600160a01b031663171800cc8a6a6e6574776f726b5f66656560a81b6040518363ffffffff1660e01b8152600401808381526020018281526020019250505060206040518083038186803b15801561217957600080fd5b505afa15801561218d573d6000803e3d6000fd5b505050506040513d60208110156121a357600080fd5b5051905060006121bd826121b78b87612a1f565b9061278d565b905060006121e2876121dc866121d686818e60026129c6565b90612a1f565b90612a34565b90506005546121fc8260025461278d90919063ffffffff16565b106122135760025460055461221091612a49565b90505b9a9950505050505050505050565b6f4c49515549444154494f4e5f524f4c4560801b81565b67474f565f524f4c4560c01b81565b6000818152602081905260408120611baa90612a8b565b60008281526020819052604090206002015461227c90610a46612541565b610b0a5760405162461bcd60e51b8152600401808060200182810382526030815260200180612ecd6030913960400191505060405180910390fd5b6122c2600033611bb0565b612301576040805162461bcd60e51b815260206004820152601e6024820152600080516020612f1e833981519152604482015290519081900360640190fd5b60005b8151811015610a905761232982828151811061231c57fe5b6020026020010151612331565b600101612304565b61233c600033611bb0565b61237b576040805162461bcd60e51b815260206004820152601e6024820152600080516020612f1e833981519152604482015290519081900360640190fd5b6123946b545255535445455f524f4c4560a01b82610a86565b61239c612497565b6001600160a01b031663d014c01f826040518263ffffffff1660e01b815260040180826001600160a01b03168152602001915050600060405180830381600087803b1580156109ce57600080fd5b68506172616d426f6f6b60b81b81565b6000806124156b545255535445455f524f4c4560a01b612247565b604080514260208083019190915244828401528251808303840181526060909201909252805191012090915060009061244e9083612a96565b9050600061246b6b545255535445455f524f4c4560a01b83611b8f565b935050505090565b676d696e745f66656560c01b81565b6000611ba7836001600160a01b038416612ad8565b60035460408051635da2251d60e11b81526d151c9d5cdd1959519959541bdbdb60921b60048201818152602483019384526027604484018190526000956001600160a01b03169463bb444a3a949091606490910190612e8482396040019250505060206040518083038186803b15801561251057600080fd5b505afa158015612524573d6000803e3d6000fd5b505050506040513d602081101561253a57600080fd5b5051905090565b3390565b600082815260208190526040902061255d9082612482565b15610a905761256a612541565b6001600160a01b0316816001600160a01b0316837f2f8788117e7eff1d82e926ec794901d17c78024a50270940304540a733656f0d60405160405180910390a45050565b60008281526020819052604090206125c69082612b22565b15610a90576125d3612541565b6001600160a01b0316816001600160a01b0316837ff6391f5c32d9c69d2a47ea670b442974b53935d1edc7fd64eb21e047a839171b60405160405180910390a45050565b60015460ff16612665576040805162461bcd60e51b815260206004820152601460248201527314185d5cd8589b194e881b9bdd081c185d5cd95960621b604482015290519081900360640190fd5b6001805460ff191690557f5db9ee0a495bf2e6ff9c91a7834c1ba4fdd244a5e8aa4e537bd38aeae4b073aa612698612541565b604080516001600160a01b039092168252519081900360200190a1565b6003546040805163130852b360e11b81526004810184905290516000926001600160a01b031691632610a566916024808301926020929190829003018186803b15801561270157600080fd5b505afa158015612715573d6000803e3d6000fd5b505050506040513d602081101561272b57600080fd5b505192915050565b6003546040805163130852b360e11b81526b135a5b9d141c9bdc1bdcd85b60a21b600482015290516000926001600160a01b031691632610a566916024808301926020929190829003018186803b15801561251057600080fd5b600082820183811015611ba7576040805162461bcd60e51b815260206004820152601b60248201527f536166654d6174683a206164646974696f6e206f766572666c6f770000000000604482015290519081900360640190fd5b6003546040805163130852b360e11b8152622127a960e91b600482015290516000926001600160a01b031691632610a566916024808301926020929190829003018186803b15801561251057600080fd5b60015460ff1615612883576040805162461bcd60e51b815260206004820152601060248201526f14185d5cd8589b194e881c185d5cd95960821b604482015290519081900360640190fd5b6001805460ff1916811790557f62e78cea01bee320cd4e420270b5ea74000d11b0c9f74754ebdbfc544b05a258612698612541565b6000611ba78383612b37565b6000611ba7836001600160a01b038416612b9b565b6003546040805163130852b360e11b8152654f7261636c6560d01b600482015290516000926001600160a01b031691632610a566916024808301926020929190829003018186803b15801561251057600080fd5b6000611ba783836040518060400160405280601a81526020017f536166654d6174683a206469766973696f6e206279207a65726f000000000000815250612bb3565b6003546040805163130852b360e11b815268506172616d426f6f6b60b81b600482015290516000926001600160a01b031691632610a566916024808301926020929190829003018186803b15801561251057600080fd5b6000826129d557506000611baa565b828202828482816129e257fe5b0414611ba75760405162461bcd60e51b8152600401808060200182810382526021815260200180612efd6021913960400191505060405180910390fd5b6000611ba78383670de0b6b3a7640000612c55565b6000611ba78383670de0b6b3a7640000612c8c565b6000611ba783836040518060400160405280601e81526020017f536166654d6174683a207375627472616374696f6e206f766572666c6f770000815250612cac565b6000611baa82612d06565b6000611ba783836040518060400160405280601881526020017f536166654d6174683a206d6f64756c6f206279207a65726f0000000000000000815250612d0a565b6000612ae48383612b9b565b612b1a57508154600181810184556000848152602080822090930184905584548482528286019093526040902091909155611baa565b506000611baa565b6000611ba7836001600160a01b038416612d6c565b81546000908210612b795760405162461bcd60e51b8152600401808060200182810382526022815260200180612e336022913960400191505060405180910390fd5b826000018281548110612b8857fe5b9060005260206000200154905092915050565b60009081526001919091016020526040902054151590565b60008183612c3f5760405162461bcd60e51b81526004018080602001828103825283818151815260200191508051906020019080838360005b83811015612c04578181015183820152602001612bec565b50505050905090810190601f168015612c315780820380516001836020036101000a031916815260200191505b509250505060405180910390fd5b506000838581612c4b57fe5b0495945050505050565b600080600a8304612c6686866129c6565b81612c6d57fe5b0490506005600a825b0610612c8057600a015b600a9004949350505050565b600080612ca08461210e87600a87026129c6565b90506005600a82612c76565b60008184841115612cfe5760405162461bcd60e51b8152602060048201818152835160248401528351909283926044909101919085019080838360008315612c04578181015183820152602001612bec565b505050900390565b5490565b60008183612d595760405162461bcd60e51b8152602060048201818152835160248401528351909283926044909101919085019080838360008315612c04578181015183820152602001612bec565b50828481612d6357fe5b06949350505050565b60008181526001830160205260408120548015612e285783546000198083019190810190600090879083908110612d9f57fe5b9060005260206000200154905080876000018481548110612dbc57fe5b600091825260208083209091019290925582815260018981019092526040902090840190558654879080612dec57fe5b60019003818190600052602060002001600090559055866001016000878152602001908152602001600020600090556001945050505050611baa565b6000915050611baa56fe456e756d657261626c655365743a20696e646578206f7574206f6620626f756e6473416363657373436f6e74726f6c3a2073656e646572206d75737420626520616e2061646d696e20746f206772616e74426f72696e6744414f3a3a54727573746565466565506f6f6c206973206164647265737328302943616c6c6572206973206e6f74206c69717569646174696f6e20636f6e7472616374416363657373436f6e74726f6c3a2073656e646572206d75737420626520616e2061646d696e20746f207265766f6b65536166654d6174683a206d756c7469706c69636174696f6e206f766572666c6f77426f72696e6744414f3a3a63616c6c6572206973206e6f742061646d696e0000416363657373436f6e74726f6c3a2063616e206f6e6c792072656e6f756e636520726f6c657320666f722073656c66a264697066735822122054392864fe4ad10f32d94335d22b93f662e2db95db6298adf96bdde7028bdb7e64736f6c634300060c0033",
  "immutableReferences": {},
  "source": "// SPDX-License-Identifier: MIT\npragma solidity ^0.6.12;\n\nimport \"./interface/IBoringDAO.sol\";\nimport \"@openzeppelin/contracts/access/AccessControl.sol\";\nimport \"@openzeppelin/contracts/utils/Pausable.sol\";\nimport \"@openzeppelin/contracts/token/ERC20/IERC20.sol\";\nimport \"@openzeppelin/contracts/math/SafeMath.sol\";\nimport \"./interface/IAddressResolver.sol\";\nimport \"./interface/ITunnel.sol\";\nimport \"./ParamBook.sol\";\nimport \"./lib/SafeDecimalMath.sol\";\nimport \"./interface/IMintProposal.sol\";\nimport \"./interface/IOracle.sol\";\nimport \"./interface/ITrusteeFeePool.sol\";\n\n/**\n@notice The BoringDAO contract is the entrance to the entire system, \nproviding the functions of pledge BOR, redeem BOR, mint bBTC, and destroy bBTC\n */\ncontract BoringDAO is AccessControl, IBoringDAO, Pausable {\n    using SafeDecimalMath for uint256;\n    using SafeMath for uint256;\n\n    uint256 public amountByMint;\n\n    bytes32 public constant TRUSTEE_ROLE = \"TRUSTEE_ROLE\";\n    bytes32 public constant LIQUIDATION_ROLE = \"LIQUIDATION_ROLE\";\n    bytes32 public constant GOV_ROLE = \"GOV_ROLE\";\n\n    bytes32 public constant BOR = \"BOR\";\n    bytes32 public constant PARAM_BOOK = \"ParamBook\";\n    bytes32 public constant MINT_PROPOSAL = \"MintProposal\";\n    bytes32 public constant ORACLE = \"Oracle\";\n    bytes32 public constant TRUSTEE_FEE_POOL = \"TrusteeFeePool\";\n\n    bytes32 public constant TUNNEL_MINT_FEE_RATE = \"mint_fee\";\n    bytes32 public constant NETWORK_FEE = \"network_fee\";\n\n    IAddressResolver public addrReso;\n\n    // tunnels\n    ITunnel[] public tunnels;\n\n    uint256 public mintCap;\n\n    address public mine;\n\n    // The user may not provide the Ethereum address or the format of the Ethereum address is wrong when mint. \n    // this is for a transaction\n    mapping(string=>bool) public approveFlag;\n\n\n    constructor(IAddressResolver _addrReso, uint _mintCap, address _mine) public {\n        // set up resolver\n        addrReso = _addrReso;\n        mintCap = _mintCap;\n        mine = _mine;\n        _setupRole(DEFAULT_ADMIN_ROLE, msg.sender);\n    }\n\n\n    function tunnel(bytes32 tunnelKey) internal view returns (ITunnel) {\n        return ITunnel(addrReso.key2address(tunnelKey));\n    }\n\n    function btoken(bytes32 symbol) internal view returns (IERC20) {\n        return IERC20(addrReso.key2address(symbol));\n    }\n\n    function borERC20() internal view returns (IERC20) {\n        return IERC20(addrReso.key2address(BOR));\n    }\n\n    function paramBook() internal view returns (ParamBook) {\n        return ParamBook(addrReso.key2address(PARAM_BOOK));\n    }\n\n    function mintProposal() internal view returns (IMintProposal) {\n        return IMintProposal(addrReso.key2address(MINT_PROPOSAL));\n    }\n\n    function oracle() internal view returns (IOracle) {\n        return IOracle(addrReso.key2address(ORACLE));\n    }\n\n    function trusteeFeePool() internal view returns (ITrusteeFeePool) {\n        return ITrusteeFeePool(addrReso.requireAndKey2Address(TRUSTEE_FEE_POOL, \"BoringDAO::TrusteeFeePool is address(0)\"));\n    }\n\n    function getTrustee(uint256 index)\n        external\n        override\n        view\n        returns (address)\n    {\n        address addr = getRoleMember(TRUSTEE_ROLE, index);\n        return addr;\n    }\n\n    function getTrusteeCount() external override view returns (uint256) {\n        return getRoleMemberCount(TRUSTEE_ROLE);\n    }\n\n    function getRandomTrustee() public override view returns (address) {\n        uint256 trusteeCount = getRoleMemberCount(TRUSTEE_ROLE);\n        uint256 index = uint256(\n            keccak256(abi.encodePacked(now, block.difficulty))\n        )\n            .mod(trusteeCount);\n        address trustee = getRoleMember(TRUSTEE_ROLE, index);\n        return trustee;\n    }\n\n    function addTrustee(address account) public onlyAdmin {\n        _setupRole(TRUSTEE_ROLE, account);\n        trusteeFeePool().enter(account);\n\n    }\n\n    function addTrustees(address[] memory accounts) external onlyAdmin{\n        for (uint256 i = 0; i < accounts.length; i++) {\n            addTrustee(accounts[i]);\n        }\n    }\n\n    function removeTrustee(address account) public onlyAdmin {\n        revokeRole(TRUSTEE_ROLE, account);\n        trusteeFeePool().exit(account);\n    }\n\n    function setMine(address _mine) public onlyAdmin {\n        mine = _mine;\n    }\n\n    function setMintCap(uint256 amount) public onlyAdmin {\n        mintCap = amount;\n    }\n\n    /**\n    @notice tunnelKey is byte32(\"symbol\"), eg. bytes32(\"BTC\")\n     */\n    function pledge(bytes32 _tunnelKey, uint256 _amount)\n        public\n        override\n        whenNotPaused\n        whenContractExist(_tunnelKey)\n    {\n        require(\n            borERC20().allowance(msg.sender, address(this)) >= _amount,\n            \"not allow enough bor\"\n        );\n\n        borERC20().transferFrom(\n            msg.sender,\n            address(tunnel(_tunnelKey)),\n            _amount\n        );\n        tunnel(_tunnelKey).pledge(msg.sender, _amount);\n    }\n\n    /**\n    @notice redeem bor from tunnel\n     */\n    function redeem(bytes32 _tunnelKey, uint256 _amount)\n        public\n        override\n        whenNotPaused\n        whenContractExist(_tunnelKey)\n    {\n        tunnel(_tunnelKey).redeem(msg.sender, _amount);\n    }\n\n    function burnBToken(bytes32 _tunnelKey, uint256 amount, string memory assetAddress)\n        public\n        override\n        whenContractExist(_tunnelKey)\n        whenTunnelNotPause(_tunnelKey)\n    {\n        tunnel(_tunnelKey).burn(msg.sender, amount, assetAddress);\n    }\n\n    /**\n    @notice trustee will call the function to approve mint bToken\n    @param _txid the transaction id of bitcoin\n    @param _amount the amount to mint, 1BTC = 1bBTC = 1*10**18 weibBTC\n    @param to mint to the address\n     */\n    function approveMint(\n        bytes32 _tunnelKey,\n        string memory _txid,\n        uint256 _amount,\n        address to,\n        string memory assetAddress\n    ) public override whenNotPaused whenTunnelNotPause(_tunnelKey) onlyTrustee {\n        if(to == address(0)) {\n            if (approveFlag[_txid] == false) {\n                approveFlag[_txid] = true;\n                emit ETHAddressNotExist(_tunnelKey, _txid, _amount, to, msg.sender, assetAddress);\n            }\n            return;\n        }\n        \n        uint256 trusteeCount = getRoleMemberCount(TRUSTEE_ROLE);\n        bool shouldMint = mintProposal().approve(\n            _tunnelKey,\n            _txid,\n            _amount,\n            to,\n            msg.sender,\n            trusteeCount\n        );\n        if (!shouldMint) {\n            return;\n        }\n        uint256 canIssueAmount = tunnel(_tunnelKey).canIssueAmount();\n        bytes32 bTokenSymbolKey = tunnel(_tunnelKey).oTokenKey();\n        if (_amount.add(btoken(bTokenSymbolKey).totalSupply()) > canIssueAmount) {\n            emit NotEnoughPledgeValue(\n                _tunnelKey,\n                _txid,\n                _amount,\n                to,\n                msg.sender,\n                assetAddress\n            );\n            return;\n        }\n        // fee calculate in tunnel\n        tunnel(_tunnelKey).issue(to, _amount);\n\n        uint borMintAmount = calculateMintBORAmount(_tunnelKey, _amount);\n        if(borMintAmount != 0) {\n            amountByMint = amountByMint.add(borMintAmount);\n            borERC20().transferFrom(mine, to, borMintAmount);\n        }\n        emit ApproveMintSuccess(_tunnelKey, _txid, _amount, to, assetAddress);\n    }\n\n    function calculateMintBORAmount(bytes32 _tunnelKey, uint _amount) public view returns (uint) {\n        if (amountByMint >= mintCap || _amount == 0) {\n            return 0;\n        }\n        uint256 assetPrice = oracle().getPrice(_tunnelKey);\n        uint256 borPrice = oracle().getPrice(BOR);\n        uint256 reductionTimes = amountByMint.div(10_000e18);\n        uint256 mintFeeRate = paramBook().params2(\n            _tunnelKey,\n            TUNNEL_MINT_FEE_RATE\n        );\n        // for decimal calculation, so mul 1e18\n        uint256 reductionFactor = (4**reductionTimes).mul(1e18).div(5**reductionTimes);\n        uint networkFee = paramBook().params2(_tunnelKey, NETWORK_FEE);\n        uint baseAmount = _amount.multiplyDecimalRound(mintFeeRate).add(networkFee);\n        uint borAmount = assetPrice.mul(2).multiplyDecimalRound(baseAmount).multiplyDecimalRound(reductionFactor).divideDecimalRound(borPrice);\n        if (amountByMint.add(borAmount) >= mintCap) {\n            borAmount = mintCap.sub(amountByMint);\n        }\n        return borAmount;\n    }\n\n    function pause() public onlyLiquidation {\n        _pause();\n    }\n\n    function unpause() public onlyLiquidation {\n        _unpause();\n    }\n\n    modifier onlyTrustee {\n        require(hasRole(TRUSTEE_ROLE, msg.sender), \"Caller is not trustee\");\n        _;\n    }\n\n    modifier onlyAdmin {\n        require(hasRole(DEFAULT_ADMIN_ROLE, msg.sender), \"BoringDAO::caller is not admin\");\n        _;\n    }\n\n    modifier onlyLiquidation {\n        require(\n            hasRole(LIQUIDATION_ROLE, msg.sender),\n            \"Caller is not liquidation contract\"\n        );\n        _;\n    }\n\n    modifier whenContractExist(bytes32 key) {\n        require(\n            addrReso.key2address(key) != address(0),\n            \"Contract not exist\"\n        );\n        _;\n    }\n\n    modifier whenTunnelNotPause(bytes32 _tunnelKey) {\n        address tunnelAddress = addrReso.requireAndKey2Address(_tunnelKey, \"tunnel not exist\");\n        require(IPaused(tunnelAddress).paused() == false, \"tunnel is paused\");\n        _;\n    }\n\n    event NotEnoughPledgeValue(\n        bytes32 indexed _tunnelKey,\n        string indexed _txid,\n        uint256 _amount,\n        address to,\n        address trustee,\n        string assetAddress\n    );\n\n    event ApproveMintSuccess(\n        bytes32 _tunnelKey,\n        string _txid,\n        uint256 _amount,\n        address to,\n        string assetAddress\n    );\n\n    event ETHAddressNotExist(\n        bytes32 _tunnelKey,\n        string _txid,\n        uint256 _amount,\n        address to,\n        address trustee,\n        string assetAddress\n    );\n}\n\ninterface IPaused {\n    function paused() external view returns (bool);\n}\n",
  "sourcePath": "D:/workspace/sol/boring-contracts/contracts/BoringDAO.sol",
  "compiler": {
    "name": "solc",
    "version": "0.6.12+commit.27d51765.Emscripten.clang"
  },
  "schemaVersion": "3.2.4",
  "updatedAt": "2020-11-08T15:42:44.714Z",
  "networkType": "ethereum",
  "devdoc": {
    "kind": "dev",
    "methods": {
      "approveMint(bytes32,string,uint256,address,string)": {
        "params": {
          "_amount": "the amount to mint, 1BTC = 1bBTC = 1*10**18 weibBTC",
          "_txid": "the transaction id of bitcoin",
          "to": "mint to the address"
        }
      },
      "getRoleAdmin(bytes32)": {
        "details": "Returns the admin role that controls `role`. See {grantRole} and {revokeRole}. To change a role's admin, use {_setRoleAdmin}."
      },
      "getRoleMember(bytes32,uint256)": {
        "details": "Returns one of the accounts that have `role`. `index` must be a value between 0 and {getRoleMemberCount}, non-inclusive. Role bearers are not sorted in any particular way, and their ordering may change at any point. WARNING: When using {getRoleMember} and {getRoleMemberCount}, make sure you perform all queries on the same block. See the following https://forum.openzeppelin.com/t/iterating-over-elements-on-enumerableset-in-openzeppelin-contracts/2296[forum post] for more information."
      },
      "getRoleMemberCount(bytes32)": {
        "details": "Returns the number of accounts that have `role`. Can be used together with {getRoleMember} to enumerate all bearers of a role."
      },
      "grantRole(bytes32,address)": {
        "details": "Grants `role` to `account`. If `account` had not been already granted `role`, emits a {RoleGranted} event. Requirements: - the caller must have ``role``'s admin role."
      },
      "hasRole(bytes32,address)": {
        "details": "Returns `true` if `account` has been granted `role`."
      },
      "paused()": {
        "details": "Returns true if the contract is paused, and false otherwise."
      },
      "renounceRole(bytes32,address)": {
        "details": "Revokes `role` from the calling account. Roles are often managed via {grantRole} and {revokeRole}: this function's purpose is to provide a mechanism for accounts to lose their privileges if they are compromised (such as when a trusted device is misplaced). If the calling account had been granted `role`, emits a {RoleRevoked} event. Requirements: - the caller must be `account`."
      },
      "revokeRole(bytes32,address)": {
        "details": "Revokes `role` from `account`. If `account` had been granted `role`, emits a {RoleRevoked} event. Requirements: - the caller must have ``role``'s admin role."
      }
    },
    "version": 1
  },
  "userdoc": {
    "kind": "user",
    "methods": {
      "approveMint(bytes32,string,uint256,address,string)": {
        "notice": "trustee will call the function to approve mint bToken"
      },
      "pledge(bytes32,uint256)": {
        "notice": "tunnelKey is byte32(\"symbol\"), eg. bytes32(\"BTC\")"
      },
      "redeem(bytes32,uint256)": {
        "notice": "redeem bor from tunnel"
      }
    },
    "notice": "The BoringDAO contract is the entrance to the entire system,  providing the functions of pledge BOR, redeem BOR, mint bBTC, and destroy bBTC",
    "version": 1
  }
}