{
  "_format": "hh-sol-artifact-1",
  "contractName": "NBridge",
  "sourceName": "contracts/native/NBridge.sol",
  "abi": [
    {
      "inputs": [],
      "stateMutability": "nonpayable",
      "type": "constructor"
    },
    {
      "anonymous": false,
      "inputs": [
        {
          "indexed": false,
          "internalType": "address",
          "name": "previousAdmin",
          "type": "address"
        },
        {
          "indexed": false,
          "internalType": "address",
          "name": "newAdmin",
          "type": "address"
        }
      ],
      "name": "AdminChanged",
      "type": "event"
    },
    {
      "anonymous": false,
      "inputs": [
        {
          "indexed": true,
          "internalType": "address",
          "name": "beacon",
          "type": "address"
        }
      ],
      "name": "BeaconUpgraded",
      "type": "event"
    },
    {
      "anonymous": false,
      "inputs": [
        {
          "indexed": false,
          "internalType": "address",
          "name": "originToken",
          "type": "address"
        },
        {
          "indexed": false,
          "internalType": "uint256",
          "name": "originChainId",
          "type": "uint256"
        },
        {
          "indexed": false,
          "internalType": "uint256",
          "name": "fromChainId",
          "type": "uint256"
        },
        {
          "indexed": false,
          "internalType": "uint256",
          "name": "toChainId",
          "type": "uint256"
        },
        {
          "indexed": false,
          "internalType": "address",
          "name": "from",
          "type": "address"
        },
        {
          "indexed": false,
          "internalType": "address",
          "name": "to",
          "type": "address"
        },
        {
          "indexed": false,
          "internalType": "uint256",
          "name": "amount",
          "type": "uint256"
        }
      ],
      "name": "CrossIn",
      "type": "event"
    },
    {
      "anonymous": false,
      "inputs": [
        {
          "indexed": false,
          "internalType": "address",
          "name": "originToken",
          "type": "address"
        },
        {
          "indexed": false,
          "internalType": "uint256",
          "name": "originChainId",
          "type": "uint256"
        },
        {
          "indexed": false,
          "internalType": "uint256",
          "name": "fromChainId",
          "type": "uint256"
        },
        {
          "indexed": false,
          "internalType": "uint256",
          "name": "toChainId",
          "type": "uint256"
        },
        {
          "indexed": false,
          "internalType": "address",
          "name": "from",
          "type": "address"
        },
        {
          "indexed": false,
          "internalType": "address",
          "name": "to",
          "type": "address"
        },
        {
          "indexed": false,
          "internalType": "uint256",
          "name": "amount",
          "type": "uint256"
        }
      ],
      "name": "CrossOut",
      "type": "event"
    },
    {
      "anonymous": false,
      "inputs": [
        {
          "indexed": false,
          "internalType": "address",
          "name": "token",
          "type": "address"
        },
        {
          "indexed": false,
          "internalType": "uint256",
          "name": "feeRatio",
          "type": "uint256"
        }
      ],
      "name": "FeeChange",
      "type": "event"
    },
    {
      "anonymous": false,
      "inputs": [
        {
          "indexed": false,
          "internalType": "address",
          "name": "account",
          "type": "address"
        }
      ],
      "name": "FeeToChanged",
      "type": "event"
    },
    {
      "anonymous": false,
      "inputs": [
        {
          "indexed": false,
          "internalType": "address",
          "name": "token",
          "type": "address"
        },
        {
          "indexed": false,
          "internalType": "address",
          "name": "proposer",
          "type": "address"
        },
        {
          "indexed": false,
          "internalType": "uint256",
          "name": "count",
          "type": "uint256"
        },
        {
          "indexed": false,
          "internalType": "uint256",
          "name": "threshold",
          "type": "uint256"
        }
      ],
      "name": "ProposalVoted",
      "type": "event"
    },
    {
      "anonymous": false,
      "inputs": [
        {
          "indexed": true,
          "internalType": "bytes32",
          "name": "role",
          "type": "bytes32"
        },
        {
          "indexed": true,
          "internalType": "bytes32",
          "name": "previousAdminRole",
          "type": "bytes32"
        },
        {
          "indexed": true,
          "internalType": "bytes32",
          "name": "newAdminRole",
          "type": "bytes32"
        }
      ],
      "name": "RoleAdminChanged",
      "type": "event"
    },
    {
      "anonymous": false,
      "inputs": [
        {
          "indexed": true,
          "internalType": "bytes32",
          "name": "role",
          "type": "bytes32"
        },
        {
          "indexed": true,
          "internalType": "address",
          "name": "account",
          "type": "address"
        },
        {
          "indexed": true,
          "internalType": "address",
          "name": "sender",
          "type": "address"
        }
      ],
      "name": "RoleGranted",
      "type": "event"
    },
    {
      "anonymous": false,
      "inputs": [
        {
          "indexed": true,
          "internalType": "bytes32",
          "name": "role",
          "type": "bytes32"
        },
        {
          "indexed": true,
          "internalType": "address",
          "name": "account",
          "type": "address"
        },
        {
          "indexed": true,
          "internalType": "address",
          "name": "sender",
          "type": "address"
        }
      ],
      "name": "RoleRevoked",
      "type": "event"
    },
    {
      "anonymous": false,
      "inputs": [
        {
          "indexed": false,
          "internalType": "address",
          "name": "token",
          "type": "address"
        },
        {
          "indexed": false,
          "internalType": "uint256",
          "name": "oldThreshold",
          "type": "uint256"
        },
        {
          "indexed": false,
          "internalType": "uint256",
          "name": "newThreshold",
          "type": "uint256"
        }
      ],
      "name": "ThresholdChanged",
      "type": "event"
    },
    {
      "anonymous": false,
      "inputs": [
        {
          "indexed": true,
          "internalType": "address",
          "name": "implementation",
          "type": "address"
        }
      ],
      "name": "Upgraded",
      "type": "event"
    },
    {
      "inputs": [],
      "name": "DEFAULT_ADMIN_ROLE",
      "outputs": [
        {
          "internalType": "bytes32",
          "name": "",
          "type": "bytes32"
        }
      ],
      "stateMutability": "view",
      "type": "function"
    },
    {
      "inputs": [],
      "name": "UPGRADER_ROLE",
      "outputs": [
        {
          "internalType": "bytes32",
          "name": "",
          "type": "bytes32"
        }
      ],
      "stateMutability": "view",
      "type": "function"
    },
    {
      "inputs": [
        {
          "internalType": "uint256[]",
          "name": "_chainIds",
          "type": "uint256[]"
        },
        {
          "internalType": "address[]",
          "name": "_tokens",
          "type": "address[]"
        },
        {
          "components": [
            {
              "internalType": "uint256",
              "name": "tokenType",
              "type": "uint256"
            },
            {
              "internalType": "address",
              "name": "mirrorAddress",
              "type": "address"
            },
            {
              "internalType": "uint256",
              "name": "mirrorChainId",
              "type": "uint256"
            },
            {
              "internalType": "bool",
              "name": "isSupported",
              "type": "bool"
            }
          ],
          "internalType": "struct NBridge.TokenInfo[]",
          "name": "tis",
          "type": "tuple[]"
        }
      ],
      "name": "addMultiSupportTokens",
      "outputs": [],
      "stateMutability": "nonpayable",
      "type": "function"
    },
    {
      "inputs": [
        {
          "internalType": "uint256",
          "name": "_chainId",
          "type": "uint256"
        },
        {
          "internalType": "address",
          "name": "_token",
          "type": "address"
        },
        {
          "components": [
            {
              "internalType": "uint256",
              "name": "tokenType",
              "type": "uint256"
            },
            {
              "internalType": "address",
              "name": "mirrorAddress",
              "type": "address"
            },
            {
              "internalType": "uint256",
              "name": "mirrorChainId",
              "type": "uint256"
            },
            {
              "internalType": "bool",
              "name": "isSupported",
              "type": "bool"
            }
          ],
          "internalType": "struct NBridge.TokenInfo",
          "name": "ti",
          "type": "tuple"
        }
      ],
      "name": "addSupportToken",
      "outputs": [],
      "stateMutability": "nonpayable",
      "type": "function"
    },
    {
      "inputs": [
        {
          "internalType": "address",
          "name": "token",
          "type": "address"
        },
        {
          "internalType": "uint256",
          "name": "toChainId",
          "type": "uint256"
        },
        {
          "internalType": "uint256",
          "name": "amount",
          "type": "uint256"
        }
      ],
      "name": "calculateFee",
      "outputs": [
        {
          "internalType": "uint256",
          "name": "fixAmount",
          "type": "uint256"
        },
        {
          "internalType": "uint256",
          "name": "ratioAmount",
          "type": "uint256"
        },
        {
          "internalType": "uint256",
          "name": "remainAmount",
          "type": "uint256"
        }
      ],
      "stateMutability": "view",
      "type": "function"
    },
    {
      "inputs": [],
      "name": "chainId",
      "outputs": [
        {
          "internalType": "uint256",
          "name": "",
          "type": "uint256"
        }
      ],
      "stateMutability": "view",
      "type": "function"
    },
    {
      "inputs": [
        {
          "components": [
            {
              "internalType": "address",
              "name": "_originToken",
              "type": "address"
            },
            {
              "internalType": "uint256",
              "name": "_originChainId",
              "type": "uint256"
            },
            {
              "internalType": "uint256",
              "name": "fromChainId",
              "type": "uint256"
            },
            {
              "internalType": "uint256",
              "name": "toChainId",
              "type": "uint256"
            },
            {
              "internalType": "address",
              "name": "from",
              "type": "address"
            },
            {
              "internalType": "address",
              "name": "to",
              "type": "address"
            },
            {
              "internalType": "uint256",
              "name": "amount",
              "type": "uint256"
            },
            {
              "internalType": "string",
              "name": "txid",
              "type": "string"
            }
          ],
          "internalType": "struct NCrossInParams",
          "name": "p",
          "type": "tuple"
        }
      ],
      "name": "crossIn",
      "outputs": [],
      "stateMutability": "nonpayable",
      "type": "function"
    },
    {
      "inputs": [
        {
          "internalType": "address",
          "name": "_token",
          "type": "address"
        },
        {
          "internalType": "uint256",
          "name": "toChainID",
          "type": "uint256"
        },
        {
          "internalType": "address",
          "name": "to",
          "type": "address"
        },
        {
          "internalType": "uint256",
          "name": "amount",
          "type": "uint256"
        }
      ],
      "name": "crossOut",
      "outputs": [],
      "stateMutability": "payable",
      "type": "function"
    },
    {
      "inputs": [
        {
          "internalType": "uint256",
          "name": "",
          "type": "uint256"
        }
      ],
      "name": "eventHeight",
      "outputs": [
        {
          "internalType": "uint256",
          "name": "",
          "type": "uint256"
        }
      ],
      "stateMutability": "view",
      "type": "function"
    },
    {
      "inputs": [],
      "name": "eventIndex",
      "outputs": [
        {
          "internalType": "uint256",
          "name": "",
          "type": "uint256"
        }
      ],
      "stateMutability": "view",
      "type": "function"
    },
    {
      "inputs": [
        {
          "internalType": "address",
          "name": "",
          "type": "address"
        }
      ],
      "name": "feeRatio",
      "outputs": [
        {
          "internalType": "uint256",
          "name": "",
          "type": "uint256"
        }
      ],
      "stateMutability": "view",
      "type": "function"
    },
    {
      "inputs": [],
      "name": "feeTo",
      "outputs": [
        {
          "internalType": "address",
          "name": "",
          "type": "address"
        }
      ],
      "stateMutability": "view",
      "type": "function"
    },
    {
      "inputs": [
        {
          "internalType": "address",
          "name": "",
          "type": "address"
        },
        {
          "internalType": "uint256",
          "name": "",
          "type": "uint256"
        }
      ],
      "name": "fixFees",
      "outputs": [
        {
          "internalType": "uint256",
          "name": "",
          "type": "uint256"
        }
      ],
      "stateMutability": "view",
      "type": "function"
    },
    {
      "inputs": [
        {
          "internalType": "bytes32",
          "name": "role",
          "type": "bytes32"
        }
      ],
      "name": "getRoleAdmin",
      "outputs": [
        {
          "internalType": "bytes32",
          "name": "",
          "type": "bytes32"
        }
      ],
      "stateMutability": "view",
      "type": "function"
    },
    {
      "inputs": [
        {
          "internalType": "address",
          "name": "token",
          "type": "address"
        },
        {
          "internalType": "uint256",
          "name": "_chainId",
          "type": "uint256"
        }
      ],
      "name": "getRoleKey",
      "outputs": [
        {
          "internalType": "bytes32",
          "name": "",
          "type": "bytes32"
        }
      ],
      "stateMutability": "pure",
      "type": "function"
    },
    {
      "inputs": [
        {
          "internalType": "bytes32",
          "name": "role",
          "type": "bytes32"
        },
        {
          "internalType": "address",
          "name": "account",
          "type": "address"
        }
      ],
      "name": "grantRole",
      "outputs": [],
      "stateMutability": "nonpayable",
      "type": "function"
    },
    {
      "inputs": [
        {
          "internalType": "bytes32",
          "name": "role",
          "type": "bytes32"
        },
        {
          "internalType": "address",
          "name": "account",
          "type": "address"
        }
      ],
      "name": "hasRole",
      "outputs": [
        {
          "internalType": "bool",
          "name": "",
          "type": "bool"
        }
      ],
      "stateMutability": "view",
      "type": "function"
    },
    {
      "inputs": [
        {
          "internalType": "uint256",
          "name": "_chainId",
          "type": "uint256"
        }
      ],
      "name": "initialize",
      "outputs": [],
      "stateMutability": "nonpayable",
      "type": "function"
    },
    {
      "inputs": [],
      "name": "isClosed",
      "outputs": [
        {
          "internalType": "bool",
          "name": "",
          "type": "bool"
        }
      ],
      "stateMutability": "view",
      "type": "function"
    },
    {
      "inputs": [
        {
          "internalType": "address",
          "name": "",
          "type": "address"
        }
      ],
      "name": "isCoin",
      "outputs": [
        {
          "internalType": "bool",
          "name": "",
          "type": "bool"
        }
      ],
      "stateMutability": "view",
      "type": "function"
    },
    {
      "inputs": [
        {
          "internalType": "address",
          "name": "",
          "type": "address"
        },
        {
          "internalType": "address",
          "name": "",
          "type": "address"
        }
      ],
      "name": "isInWhitelist",
      "outputs": [
        {
          "internalType": "bool",
          "name": "",
          "type": "bool"
        }
      ],
      "stateMutability": "view",
      "type": "function"
    },
    {
      "inputs": [
        {
          "internalType": "address",
          "name": "",
          "type": "address"
        },
        {
          "internalType": "uint256",
          "name": "",
          "type": "uint256"
        }
      ],
      "name": "minCrossAmount",
      "outputs": [
        {
          "internalType": "uint256",
          "name": "",
          "type": "uint256"
        }
      ],
      "stateMutability": "view",
      "type": "function"
    },
    {
      "inputs": [
        {
          "internalType": "address",
          "name": "",
          "type": "address"
        },
        {
          "internalType": "uint256",
          "name": "",
          "type": "uint256"
        }
      ],
      "name": "ratioFees",
      "outputs": [
        {
          "internalType": "uint256",
          "name": "",
          "type": "uint256"
        }
      ],
      "stateMutability": "view",
      "type": "function"
    },
    {
      "inputs": [
        {
          "internalType": "bytes32",
          "name": "role",
          "type": "bytes32"
        },
        {
          "internalType": "address",
          "name": "account",
          "type": "address"
        }
      ],
      "name": "renounceRole",
      "outputs": [],
      "stateMutability": "nonpayable",
      "type": "function"
    },
    {
      "inputs": [
        {
          "internalType": "bytes32",
          "name": "role",
          "type": "bytes32"
        },
        {
          "internalType": "address",
          "name": "account",
          "type": "address"
        }
      ],
      "name": "revokeRole",
      "outputs": [],
      "stateMutability": "nonpayable",
      "type": "function"
    },
    {
      "inputs": [
        {
          "internalType": "address",
          "name": "token",
          "type": "address"
        },
        {
          "internalType": "uint256",
          "name": "toChainId",
          "type": "uint256"
        },
        {
          "internalType": "uint256",
          "name": "_feeFix",
          "type": "uint256"
        },
        {
          "internalType": "uint256",
          "name": "_feeRatio",
          "type": "uint256"
        }
      ],
      "name": "setFee",
      "outputs": [],
      "stateMutability": "nonpayable",
      "type": "function"
    },
    {
      "inputs": [
        {
          "internalType": "address",
          "name": "account",
          "type": "address"
        }
      ],
      "name": "setFeeTo",
      "outputs": [],
      "stateMutability": "nonpayable",
      "type": "function"
    },
    {
      "inputs": [
        {
          "internalType": "address[]",
          "name": "tokens",
          "type": "address[]"
        },
        {
          "internalType": "uint256[]",
          "name": "toChainIds",
          "type": "uint256[]"
        },
        {
          "internalType": "uint256[]",
          "name": "_feeFixMulti",
          "type": "uint256[]"
        },
        {
          "internalType": "uint256[]",
          "name": "_feeRatioMulti",
          "type": "uint256[]"
        }
      ],
      "name": "setFees",
      "outputs": [],
      "stateMutability": "nonpayable",
      "type": "function"
    },
    {
      "inputs": [
        {
          "internalType": "address",
          "name": "_token",
          "type": "address"
        },
        {
          "internalType": "bool",
          "name": "_isCoin",
          "type": "bool"
        }
      ],
      "name": "setIsCoin",
      "outputs": [],
      "stateMutability": "nonpayable",
      "type": "function"
    },
    {
      "inputs": [
        {
          "internalType": "address",
          "name": "token",
          "type": "address"
        },
        {
          "internalType": "uint256",
          "name": "_chainId",
          "type": "uint256"
        },
        {
          "internalType": "uint256",
          "name": "amount",
          "type": "uint256"
        }
      ],
      "name": "setMinCrossAmount",
      "outputs": [],
      "stateMutability": "nonpayable",
      "type": "function"
    },
    {
      "inputs": [
        {
          "internalType": "address",
          "name": "token0",
          "type": "address"
        },
        {
          "internalType": "uint256",
          "name": "_threshold",
          "type": "uint256"
        }
      ],
      "name": "setThreshold",
      "outputs": [],
      "stateMutability": "nonpayable",
      "type": "function"
    },
    {
      "inputs": [
        {
          "internalType": "address",
          "name": "token",
          "type": "address"
        },
        {
          "internalType": "address",
          "name": "user",
          "type": "address"
        },
        {
          "internalType": "bool",
          "name": "_isInWhitelist",
          "type": "bool"
        }
      ],
      "name": "setWhitelist",
      "outputs": [],
      "stateMutability": "nonpayable",
      "type": "function"
    },
    {
      "inputs": [
        {
          "internalType": "uint256",
          "name": "",
          "type": "uint256"
        },
        {
          "internalType": "address",
          "name": "",
          "type": "address"
        }
      ],
      "name": "supportedTokens",
      "outputs": [
        {
          "internalType": "uint256",
          "name": "tokenType",
          "type": "uint256"
        },
        {
          "internalType": "address",
          "name": "mirrorAddress",
          "type": "address"
        },
        {
          "internalType": "uint256",
          "name": "mirrorChainId",
          "type": "uint256"
        },
        {
          "internalType": "bool",
          "name": "isSupported",
          "type": "bool"
        }
      ],
      "stateMutability": "view",
      "type": "function"
    },
    {
      "inputs": [
        {
          "internalType": "bytes4",
          "name": "interfaceId",
          "type": "bytes4"
        }
      ],
      "name": "supportsInterface",
      "outputs": [
        {
          "internalType": "bool",
          "name": "",
          "type": "bool"
        }
      ],
      "stateMutability": "view",
      "type": "function"
    },
    {
      "inputs": [
        {
          "internalType": "address",
          "name": "",
          "type": "address"
        }
      ],
      "name": "threshold",
      "outputs": [
        {
          "internalType": "uint256",
          "name": "",
          "type": "uint256"
        }
      ],
      "stateMutability": "view",
      "type": "function"
    },
    {
      "inputs": [
        {
          "internalType": "string",
          "name": "",
          "type": "string"
        }
      ],
      "name": "txHandled",
      "outputs": [
        {
          "internalType": "bool",
          "name": "",
          "type": "bool"
        }
      ],
      "stateMutability": "view",
      "type": "function"
    },
    {
      "inputs": [
        {
          "internalType": "address",
          "name": "newImplementation",
          "type": "address"
        }
      ],
      "name": "upgradeTo",
      "outputs": [],
      "stateMutability": "nonpayable",
      "type": "function"
    },
    {
      "inputs": [
        {
          "internalType": "address",
          "name": "newImplementation",
          "type": "address"
        },
        {
          "internalType": "bytes",
          "name": "data",
          "type": "bytes"
        }
      ],
      "name": "upgradeToAndCall",
      "outputs": [],
      "stateMutability": "payable",
      "type": "function"
    }
  ],
  "bytecode": "0x60a06040523060601b6080523480156200001857600080fd5b50600054610100900460ff168062000033575060005460ff16155b6200009b5760405162461bcd60e51b815260206004820152602e60248201527f496e697469616c697a61626c653a20636f6e747261637420697320616c72656160448201526d191e481a5b9a5d1a585b1a5e995960921b606482015260840160405180910390fd5b600054610100900460ff16158015620000be576000805461ffff19166101011790555b8015620000d1576000805461ff00191690555b5060805160601c6136f96200010660003960008181610b8701528181610bc70152818161104c015261108c01526136f96000f3fe6080604052600436106102255760003560e01c80639a4686fb11610123578063d343c9a1116100ab578063f005c5251161006f578063f005c5251461077f578063f06410f8146107b8578063f46901ed146107d8578063f72c0d8b146107f8578063fe4b84df1461082c57600080fd5b8063d343c9a1146106de578063d547741f1461070c578063d93e76bb1461072c578063df7e600a1461074c578063ebf3c9761461075f57600080fd5b8063a5389e0b116100f2578063a5389e0b1461060c578063a611033e1461062c578063c2b6b58c1461065d578063c3470cb014610678578063c86ec2bf146106b157600080fd5b80639a4686fb146105845780639a8a0592146105c05780639d879990146105d7578063a217fddf146105f757600080fd5b80632f2ff15d116101b157806375d47f991161017557806375d47f99146104af578063824df449146104e85780638881a1aa1461052457806391d14854146105445780639393ffde1461056457600080fd5b80632f2ff15d1461041c57806336568abe1461043c5780633659cfe61461045c5780634871a7601461047c5780634f1ef2861461049c57600080fd5b806315431c48116101f857806315431c48146102f557806317d18bee1461037a5780631ba1b59e1461039f5780631bdbce49146103cc578063248a9ca3146103ec57600080fd5b8063017e7e581461022a57806301ffc9a7146102685780630324ef9c1461029857806311dc39d3146102d3575b600080fd5b34801561023657600080fd5b506101005461024b906001600160a01b031681565b6040516001600160a01b0390911681526020015b60405180910390f35b34801561027457600080fd5b50610288610283366004612fe5565b61084c565b604051901515815260200161025f565b3480156102a457600080fd5b506102b86102b3366004612d85565b610883565b6040805193845260208401929092529082015260600161025f565b3480156102df57600080fd5b506102f36102ee366004612e9e565b610942565b005b34801561030157600080fd5b50610350610310366004612fc2565b610102602090815260009283526040808420909152908252902080546001820154600283015460039093015491926001600160a01b039091169160ff1684565b604080519485526001600160a01b039093166020850152918301521515606082015260800161025f565b34801561038657600080fd5b5061039161010a5481565b60405190815260200161025f565b3480156103ab57600080fd5b506103916103ba366004612be9565b60ff6020526000908152604090205481565b3480156103d857600080fd5b506102f36103e7366004612c37565b610a06565b3480156103f857600080fd5b50610391610407366004612fa9565b60009081526065602052604090206001015490565b34801561042857600080fd5b506102f3610437366004612fc2565b610ad3565b34801561044857600080fd5b506102f3610457366004612fc2565b610afe565b34801561046857600080fd5b506102f3610477366004612be9565b610b7c565b34801561048857600080fd5b506102f3610497366004613044565b610c45565b6102f36104aa366004612cb5565b611041565b3480156104bb57600080fd5b506103916104ca366004612d17565b61010560209081526000928352604080842090915290825290205481565b3480156104f457600080fd5b5061028861050336600461300f565b80516020818301810180516101038252928201919093012091525460ff1681565b34801561053057600080fd5b5061039161053f366004612d17565b6110f7565b34801561055057600080fd5b5061028861055f366004612fc2565b61113b565b34801561057057600080fd5b506102f361057f366004612d85565b611166565b34801561059057600080fd5b5061028861059f366004612c04565b61010760209081526000928352604080842090915290825290205460ff1681565b3480156105cc57600080fd5b506103916101015481565b3480156105e357600080fd5b506102f36105f2366004612d17565b6111b4565b34801561060357600080fd5b50610391600081565b34801561061857600080fd5b506102f3610627366004612df1565b6111e5565b34801561063857600080fd5b50610288610647366004612be9565b6101086020526000908152604090205460ff1681565b34801561066957600080fd5b50610109546102889060ff1681565b34801561068457600080fd5b50610391610693366004612d17565b61010460209081526000928352604080842090915290825290205481565b3480156106bd57600080fd5b506103916106cc366004612be9565b60fb6020526000908152604090205481565b3480156106ea57600080fd5b506103916106f9366004612fa9565b61010b6020526000908152604090205481565b34801561071857600080fd5b506102f3610727366004612fc2565b6112d6565b34801561073857600080fd5b506102f3610747366004612c7e565b6112fc565b6102f361075a366004612d41565b6113a5565b34801561076b57600080fd5b506102f361077a36600461310d565b61181f565b34801561078b57600080fd5b5061039161079a366004612d17565b61010660209081526000928352604080842090915290825290205481565b3480156107c457600080fd5b506102f36107d3366004612db8565b611941565b3480156107e457600080fd5b506102f36107f3366004612be9565b6119a7565b34801561080457600080fd5b506103917f189ab7a9244df0848122154315af71fe140f3db0fe014031783b0946b8c9d2e381565b34801561083857600080fd5b506102f3610847366004612fa9565b6119d7565b60006001600160e01b03198216637965db0b60e01b148061087d57506301ffc9a760e01b6001600160e01b03198316145b92915050565b6001600160a01b0383166000908152610107602090815260408083203384529091528120548190819060ff16156108bb575082610939565b6001600160a01b03861660009081526101056020908152604080832088845290915281205493506108ec84866135d7565b6001600160a01b0388166000908152610106602090815260408083208a845290915290205490915061091e9082611a8e565b92508261092b85876135d7565b61093591906135d7565b9150505b93509350939050565b81518151811461098c5760405162461bcd60e51b815260206004820152601060248201526f0d8cadccee8d040dcdee840dac2e8c6d60831b60448201526064015b60405180910390fd5b60005b818110156109ff576109ed8582815181106109ac576109ac613662565b60200260200101518583815181106109c6576109c6613662565b60200260200101518584815181106109e0576109e0613662565b602002602001015161181f565b806109f781613631565b91505061098f565b5050505050565b610a1160003361113b565b610a2d5760405162461bcd60e51b81526004016109839061325c565b6001600160a01b038084166000908152610107602090815260408083209386168352929052205460ff1615158115151415610a985760405162461bcd60e51b815260206004820152600b60248201526a6572726f7220737461746560a81b6044820152606401610983565b6001600160a01b0392831660009081526101076020908152604080832094909516825292909252919020805460ff1916911515919091179055565b600082815260656020526040902060010154610aef8133611ab7565b610af98383611b1b565b505050565b6001600160a01b0381163314610b6e5760405162461bcd60e51b815260206004820152602f60248201527f416363657373436f6e74726f6c3a2063616e206f6e6c792072656e6f756e636560448201526e103937b632b9903337b91039b2b63360891b6064820152608401610983565b610b788282611ba1565b5050565b306001600160a01b037f0000000000000000000000000000000000000000000000000000000000000000161415610bc55760405162461bcd60e51b815260040161098390613289565b7f00000000000000000000000000000000000000000000000000000000000000006001600160a01b0316610bf7611c08565b6001600160a01b031614610c1d5760405162461bcd60e51b8152600401610983906132f8565b610c2681611c36565b60408051600080825260208201909252610c4291839190611c61565b50565b805160208201516000610c5883836110f7565b9050610c64813361113b565b610cb05760405162461bcd60e51b815260206004820152601d60248201527f4272696467653a3a63616c6c6572206973206e6f742063726f737365720000006044820152606401610983565b8360e0015161010381604051610cc69190613176565b9081526040519081900360200190205460ff1615610d135760405162461bcd60e51b815260206004820152600a6024820152691d1e081a185b991b195960b21b6044820152606401610983565b6101095460ff1615610d505760405162461bcd60e51b815260206004820152600660248201526518db1bdcd95960d21b6044820152606401610983565b610109805460ff1916600117905561010154606086015114610da45760405162461bcd60e51b815260206004820152600d60248201526c31b430b4b724b21032b93937b960991b6044820152606401610983565b60208086015160009081526101028252604080822088516001600160a01b0390811684529084529181902081516080810183528154815260018201549093169383019390935260028301549082015260039091015460ff16151560608201819052610e455760405162461bcd60e51b81526020600482015260116024820152703737ba1039bab83837b93a103a37b5b2b760791b6044820152606401610983565b6000610e5087611da5565b90508015610fff5760016101038860e00151604051610e6f9190613176565b908152604051908190036020019020805491151560ff19909216919091179055815160011415610f01576020808301516001600160a01b03166000908152610108909152604090205460ff1615610ed757610ed28760a001518860c00151612010565b610f9f565b610ed28760a001518860c0015184602001516001600160a01b03166121299092919063ffffffff16565b815160021415610f9f57602082015160a088015160c08901516040516340c10f1960e01b81526001600160a01b03928316600482015260248101919091529116906340c10f1990604401602060405180830381600087803b158015610f6557600080fd5b505af1158015610f79573d6000803e3d6000fd5b505050506040513d601f19601f82011682018060405250810190610f9d9190612f8c565b505b7fe69376bccafdb809f685ce8a90249211489ab0ec624c2faf6c91a22f8dddad5f8760000151886020015189604001518a606001518b608001518c60a001518d60c00151604051610ff69796959493929190613207565b60405180910390a15b505061010a8054600090815261010b602052604081204390558154600192919061102a908490613493565b9091555050610109805460ff191690555050505050565b306001600160a01b037f000000000000000000000000000000000000000000000000000000000000000016141561108a5760405162461bcd60e51b815260040161098390613289565b7f00000000000000000000000000000000000000000000000000000000000000006001600160a01b03166110bc611c08565b6001600160a01b0316146110e25760405162461bcd60e51b8152600401610983906132f8565b6110eb82611c36565b610b7882826001611c61565b6040805160609390931b6bffffffffffffffffffffffff19166020808501919091526034808501939093528151808503909301835260549093019052805191012090565b60009182526065602090815260408084206001600160a01b0393909316845291905290205460ff1690565b61117160003361113b565b61118d5760405162461bcd60e51b81526004016109839061325c565b6001600160a01b039092166000908152610104602090815260408083209383529290522055565b6111bf60003361113b565b6111db5760405162461bcd60e51b81526004016109839061325c565b610b78828261218c565b82518451146112065760405162461bcd60e51b8152600401610983906132d5565b81518451146112275760405162461bcd60e51b8152600401610983906132d5565b80518451146112485760405162461bcd60e51b8152600401610983906132d5565b60005b84518110156109ff576112c485828151811061126957611269613662565b602002602001015185838151811061128357611283613662565b602002602001015185848151811061129d5761129d613662565b60200260200101518585815181106112b7576112b7613662565b6020026020010151611941565b806112ce81613631565b91505061124b565b6000828152606560205260409020600101546112f28133611ab7565b610af98383611ba1565b61130760003361113b565b6113235760405162461bcd60e51b81526004016109839061325c565b6001600160a01b0382166000908152610108602052604090205460ff16151581151514156113795760405162461bcd60e51b8152602060048201526003602482015262444e4360e81b6044820152606401610983565b6001600160a01b0391909116600090815261010860205260409020805460ff1916911515919091179055565b6101095460ff16156113e25760405162461bcd60e51b815260206004820152600660248201526518db1bdcd95960d21b6044820152606401610983565b610109805460ff191660011790556001600160a01b03841660009081526101076020908152604080832033845290915290205460ff16611480576001600160a01b03841660009081526101056020908152604080832086845290915290205481116114805760405162461bcd60e51b815260206004820152600e60248201526d063726f737320616d6f756e7420360941b6044820152606401610983565b610101546000908152610102602090815260408083206001600160a01b038089168552908352928190208151608081018352815481526001820154909416928401929092526002820154908301526003015460ff1615156060820181905261151e5760405162461bcd60e51b81526020600482015260116024820152703737ba1039bab83837b93a103a37b5b2b760791b6044820152606401610983565b600080600061152e888887610883565b925092509250600081116115775760405162461bcd60e51b815260206004820152601060248201526f072656d61696e416d6f756e74203d20360841b6044820152606401610983565b60006115838385613493565b855190915060011415611692576001600160a01b0389166000908152610108602052604090205460ff161561160c578534146115f05760405162461bcd60e51b815260206004820152600c60248201526b30b6b7bab73a1032b93937b960a11b6044820152606401610983565b61010054611607906001600160a01b031682612010565b611644565b6116216001600160a01b038a163330856121f2565b80156116445761010054611644906001600160a01b038b811691339116846121f2565b7f549f0ee31ecfdd93c4d6c1591746373d18f77138d790e2424e759e4f3b88798a8961010154610101548b338c886040516116859796959493929190613207565b60405180910390a16117da565b8451600214156117da5784602001516001600160a01b0316876001600160a01b031614156116e75760405162461bcd60e51b8152602060048201526002602482015261544560f01b6044820152606401610983565b604051632770a7eb60e21b8152336004820152602481018390526001600160a01b038a1690639dc29fac90604401602060405180830381600087803b15801561172f57600080fd5b505af1158015611743573d6000803e3d6000fd5b505050506040513d601f19601f820116820180604052508101906117679190612f8c565b50801561178b576101005461178b906001600160a01b038b811691339116846121f2565b7f549f0ee31ecfdd93c4d6c1591746373d18f77138d790e2424e759e4f3b88798a85602001518660400151610101548b338c886040516117d19796959493929190613207565b60405180910390a15b505061010a8054600090815261010b602052604081204390558154600195509193509150611809908490613493565b9091555050610109805460ff1916905550505050565b61182a60003361113b565b6118465760405162461bcd60e51b81526004016109839061325c565b6001600160a01b0382166118925760405162461bcd60e51b81526020600482015260136024820152726572726f7220746f6b656e206164647265737360681b6044820152606401610983565b606081015115156001146118d75760405162461bcd60e51b815260206004820152600c60248201526b3830b930b6b99032b93937b960a11b6044820152606401610983565b6000928352610102602090815260408085206001600160a01b03948516865282529384902082518155908201516001820180546001600160a01b03191691909416179092559182015160028201556060909101516003909101805460ff1916911515919091179055565b61194c60003361113b565b6119685760405162461bcd60e51b81526004016109839061325c565b6001600160a01b039093166000818152610105602090815260408083208684528252808320949094559181526101068252828120938152929052902055565b6119b260003361113b565b6119ce5760405162461bcd60e51b81526004016109839061325c565b610c4281612230565b600054610100900460ff16806119f0575060005460ff16155b611a0c5760405162461bcd60e51b815260040161098390613344565b600054610100900460ff16158015611a2e576000805461ffff19166101011790555b610101829055611a3c6122e4565b611a44612367565b611a4f6000336123c5565b611a797f189ab7a9244df0848122154315af71fe140f3db0fe014031783b0946b8c9d2e3336123c5565b8015610b78576000805461ff00191690555050565b6000611a9c6012600a613510565b611aa684846123cf565b611ab091906134ab565b9392505050565b611ac1828261113b565b610b7857611ad9816001600160a01b031660146123db565b611ae48360206123db565b604051602001611af5929190613192565b60408051601f198184030181529082905262461bcd60e51b825261098391600401613249565b611b25828261113b565b610b785760008281526065602090815260408083206001600160a01b03851684529091529020805460ff19166001179055611b5d3390565b6001600160a01b0316816001600160a01b0316837f2f8788117e7eff1d82e926ec794901d17c78024a50270940304540a733656f0d60405160405180910390a45050565b611bab828261113b565b15610b785760008281526065602090815260408083206001600160a01b0385168085529252808320805460ff1916905551339285917ff6391f5c32d9c69d2a47ea670b442974b53935d1edc7fd64eb21e047a839171b9190a45050565b7f360894a13ba1a3210667c828492db98dca3e2076cc3735a920a3ca505d382bbc546001600160a01b031690565b7f189ab7a9244df0848122154315af71fe140f3db0fe014031783b0946b8c9d2e3610b788133611ab7565b6000611c6b611c08565b9050611c7684612577565b600083511180611c835750815b15611c9457611c92848461261c565b505b7f4910fdfa16fed3260ed0e7147f7cc6da11a60208b5b9406d12a635614ffd9143805460ff166109ff57805460ff191660011781556040516001600160a01b0383166024820152611d1390869060440160408051601f198184030181529190526020810180516001600160e01b0316631b2ce7f360e11b17905261261c565b50805460ff19168155611d24611c08565b6001600160a01b0316826001600160a01b031614611d9c5760405162461bcd60e51b815260206004820152602f60248201527f45524331393637557067726164653a207570677261646520627265616b73206660448201526e75727468657220757067726164657360881b6064820152608401610983565b6109ff85612707565b80516001600160a01b0316600090815260fb6020526040812054611e245760405162461bcd60e51b815260206004820152603060248201527f50726f706f73616c566f74653a207468726573686f6c642073686f756c64206260448201526f0652067726561746572207468616e20360841b6064820152608401610983565b81516001600160a01b0316600090815260fb60209081526040808320549051909291611e5291869101613392565b60408051601f198184030181529181528151602092830120600081815260fc90935291205490915060ff1615611eca5760405162461bcd60e51b815260206004820152601860248201527f5f766f74653a3a70726f706f73616c2066696e697368656400000000000000006044820152606401610983565b600081815260fd6020908152604080832033845290915290205460ff1615611f345760405162461bcd60e51b815260206004820152601760248201527f5f766f74653a3a6d73672e73656e64657220766f7465640000000000000000006044820152606401610983565b600081815260fe6020526040902054611f4e906001612747565b600082815260fe6020818152604080842094855560fd825280842033855282528320805460ff19166001179055918490529052548211611fa757600081815260fc60205260409020805460ff1916600190811790915592505b8351600082815260fe60209081526040918290205482516001600160a01b03909416845233918401919091528282015260608201849052517fd5e1f50833a6a0e9ff1fe5f197d08b82951819e13cd710daf0b35864b20bd8829181900360800190a15050919050565b804710156120605760405162461bcd60e51b815260206004820152601d60248201527f416464726573733a20696e73756666696369656e742062616c616e63650000006044820152606401610983565b6000826001600160a01b03168260405160006040518083038185875af1925050503d80600081146120ad576040519150601f19603f3d011682016040523d82523d6000602084013e6120b2565b606091505b5050905080610af95760405162461bcd60e51b815260206004820152603a60248201527f416464726573733a20756e61626c6520746f2073656e642076616c75652c207260448201527f6563697069656e74206d617920686176652072657665727465640000000000006064820152608401610983565b6040516001600160a01b038316602482015260448101829052610af990849063a9059cbb60e01b906064015b60408051601f198184030181529190526020810180516001600160e01b03166001600160e01b031990931692909217909152612753565b6001600160a01b038216600081815260fb60209081526040918290208054908590558251938452908301819052908201839052907fb18e91516e037486aa6fa38f56a8aac933fd127180efe9c9745ecbf660a78e449060600160405180910390a1505050565b6040516001600160a01b038085166024830152831660448201526064810182905261222a9085906323b872dd60e01b90608401612155565b50505050565b610100546001600160a01b038281169116141561228f5760405162461bcd60e51b815260206004820152601f60248201527f546f6c6c3a3a6163636f756e742077617320666565546f20616c7265616479006044820152606401610983565b61010080546001600160a01b0319166001600160a01b0383169081179091556040519081527f3dedba2a214b4fff9bf20fc473c114824654e0bc70512b4a92f6d5978763c28d9060200160405180910390a150565b600054610100900460ff16806122fd575060005460ff16155b6123195760405162461bcd60e51b815260040161098390613344565b600054610100900460ff1615801561233b576000805461ffff19166101011790555b612343612825565b61234b612825565b612353612825565b8015610c42576000805461ff001916905550565b600054610100900460ff1680612380575060005460ff16155b61239c5760405162461bcd60e51b815260040161098390613344565b600054610100900460ff16158015612343576000805461ffff191661010117905561234b612825565b610b788282611b1b565b6000611ab082846135b8565b606060006123ea8360026135b8565b6123f5906002613493565b67ffffffffffffffff81111561240d5761240d613678565b6040519080825280601f01601f191660200182016040528015612437576020820181803683370190505b509050600360fc1b8160008151811061245257612452613662565b60200101906001600160f81b031916908160001a905350600f60fb1b8160018151811061248157612481613662565b60200101906001600160f81b031916908160001a90535060006124a58460026135b8565b6124b0906001613493565b90505b6001811115612528576f181899199a1a9b1b9c1cb0b131b232b360811b85600f16601081106124e4576124e4613662565b1a60f81b8282815181106124fa576124fa613662565b60200101906001600160f81b031916908160001a90535060049490941c936125218161361a565b90506124b3565b508315611ab05760405162461bcd60e51b815260206004820181905260248201527f537472696e67733a20686578206c656e67746820696e73756666696369656e746044820152606401610983565b803b6125db5760405162461bcd60e51b815260206004820152602d60248201527f455243313936373a206e657720696d706c656d656e746174696f6e206973206e60448201526c1bdd08184818dbdb9d1c9858dd609a1b6064820152608401610983565b7f360894a13ba1a3210667c828492db98dca3e2076cc3735a920a3ca505d382bbc80546001600160a01b0319166001600160a01b0392909216919091179055565b6060823b61267b5760405162461bcd60e51b815260206004820152602660248201527f416464726573733a2064656c65676174652063616c6c20746f206e6f6e2d636f6044820152651b9d1c9858dd60d21b6064820152608401610983565b600080846001600160a01b0316846040516126969190613176565b600060405180830381855af49150503d80600081146126d1576040519150601f19603f3d011682016040523d82523d6000602084013e6126d6565b606091505b50915091506126fe828260405180606001604052806027815260200161369d6027913961288f565b95945050505050565b61271081612577565b6040516001600160a01b038216907fbc7cd75a20ee27fd9adebab32041f755214dbc6bffa90cc0225b39da2e5c2d3b90600090a250565b6000611ab08284613493565b60006127a8826040518060400160405280602081526020017f5361666545524332303a206c6f772d6c6576656c2063616c6c206661696c6564815250856001600160a01b03166128c89092919063ffffffff16565b805190915015610af957808060200190518101906127c69190612f8c565b610af95760405162461bcd60e51b815260206004820152602a60248201527f5361666545524332303a204552433230206f7065726174696f6e20646964206e6044820152691bdd081cdd58d8d9595960b21b6064820152608401610983565b600054610100900460ff168061283e575060005460ff16155b61285a5760405162461bcd60e51b815260040161098390613344565b600054610100900460ff16158015612353576000805461ffff19166101011790558015610c42576000805461ff001916905550565b6060831561289e575081611ab0565b8251156128ae5782518084602001fd5b8160405162461bcd60e51b81526004016109839190613249565b60606128d784846000856128df565b949350505050565b6060824710156129405760405162461bcd60e51b815260206004820152602660248201527f416464726573733a20696e73756666696369656e742062616c616e636520666f6044820152651c8818d85b1b60d21b6064820152608401610983565b843b61298e5760405162461bcd60e51b815260206004820152601d60248201527f416464726573733a2063616c6c20746f206e6f6e2d636f6e74726163740000006044820152606401610983565b600080866001600160a01b031685876040516129aa9190613176565b60006040518083038185875af1925050503d80600081146129e7576040519150601f19603f3d011682016040523d82523d6000602084013e6129ec565b606091505b50915091506129fc82828661288f565b979650505050505050565b600067ffffffffffffffff831115612a2157612a21613678565b612a34601f8401601f191660200161343e565b9050828152838383011115612a4857600080fd5b828260208301376000602084830101529392505050565b80356001600160a01b0381168114612a7657600080fd5b919050565b600082601f830112612a8c57600080fd5b81356020612aa1612a9c8361346f565b61343e565b80838252828201915082860187848660051b8901011115612ac157600080fd5b60005b85811015612ae757612ad582612a5f565b84529284019290840190600101612ac4565b5090979650505050505050565b600082601f830112612b0557600080fd5b81356020612b15612a9c8361346f565b80838252828201915082860187848660051b8901011115612b3557600080fd5b60005b85811015612ae757813584529284019290840190600101612b38565b600082601f830112612b6557600080fd5b611ab083833560208501612a07565b600060808284031215612b8657600080fd5b6040516080810181811067ffffffffffffffff82111715612ba957612ba9613678565b60405282358152905080612bbf60208401612a5f565b6020820152604083013560408201526060830135612bdc8161368e565b6060919091015292915050565b600060208284031215612bfb57600080fd5b611ab082612a5f565b60008060408385031215612c1757600080fd5b612c2083612a5f565b9150612c2e60208401612a5f565b90509250929050565b600080600060608486031215612c4c57600080fd5b612c5584612a5f565b9250612c6360208501612a5f565b91506040840135612c738161368e565b809150509250925092565b60008060408385031215612c9157600080fd5b612c9a83612a5f565b91506020830135612caa8161368e565b809150509250929050565b60008060408385031215612cc857600080fd5b612cd183612a5f565b9150602083013567ffffffffffffffff811115612ced57600080fd5b8301601f81018513612cfe57600080fd5b612d0d85823560208401612a07565b9150509250929050565b60008060408385031215612d2a57600080fd5b612d3383612a5f565b946020939093013593505050565b60008060008060808587031215612d5757600080fd5b612d6085612a5f565b935060208501359250612d7560408601612a5f565b9396929550929360600135925050565b600080600060608486031215612d9a57600080fd5b612da384612a5f565b95602085013595506040909401359392505050565b60008060008060808587031215612dce57600080fd5b612dd785612a5f565b966020860135965060408601359560600135945092505050565b60008060008060808587031215612e0757600080fd5b843567ffffffffffffffff80821115612e1f57600080fd5b612e2b88838901612a7b565b95506020870135915080821115612e4157600080fd5b612e4d88838901612af4565b94506040870135915080821115612e6357600080fd5b612e6f88838901612af4565b93506060870135915080821115612e8557600080fd5b50612e9287828801612af4565b91505092959194509250565b600080600060608486031215612eb357600080fd5b833567ffffffffffffffff80821115612ecb57600080fd5b612ed787838801612af4565b9450602091508186013581811115612eee57600080fd5b612efa88828901612a7b565b945050604086013581811115612f0f57600080fd5b86019050601f81018713612f2257600080fd5b8035612f30612a9c8261346f565b8082825284820191508484018a868560071b8701011115612f5057600080fd5b600094505b83851015612f7c57612f678b82612b74565b83526001949094019391850191608001612f55565b5080955050505050509250925092565b600060208284031215612f9e57600080fd5b8151611ab08161368e565b600060208284031215612fbb57600080fd5b5035919050565b60008060408385031215612fd557600080fd5b82359150612c2e60208401612a5f565b600060208284031215612ff757600080fd5b81356001600160e01b031981168114611ab057600080fd5b60006020828403121561302157600080fd5b813567ffffffffffffffff81111561303857600080fd5b6128d784828501612b54565b60006020828403121561305657600080fd5b813567ffffffffffffffff8082111561306e57600080fd5b90830190610100828603121561308357600080fd5b61308b613414565b61309483612a5f565b81526020830135602082015260408301356040820152606083013560608201526130c060808401612a5f565b60808201526130d160a08401612a5f565b60a082015260c083013560c082015260e0830135828111156130f257600080fd5b6130fe87828601612b54565b60e08301525095945050505050565b600080600060c0848603121561312257600080fd5b8335925061313260208501612a5f565b91506131418560408601612b74565b90509250925092565b600081518084526131628160208601602086016135ee565b601f01601f19169290920160200192915050565b600082516131888184602087016135ee565b9190910192915050565b7f416363657373436f6e74726f6c3a206163636f756e74200000000000000000008152600083516131ca8160178501602088016135ee565b7001034b99036b4b9b9b4b733903937b6329607d1b60179184019182015283516131fb8160288401602088016135ee565b01602801949350505050565b6001600160a01b0397881681526020810196909652604086019490945260608501929092528416608084015290921660a082015260c081019190915260e00190565b602081526000611ab0602083018461314a565b60208082526013908201527231b0b63632b91034b9903737ba1030b236b4b760691b604082015260600190565b6020808252602c908201527f46756e6374696f6e206d7573742062652063616c6c6564207468726f7567682060408201526b19195b1959d85d1958d85b1b60a21b606082015260800190565b6020808252600990820152680dcdee840dac2e8c6d60bb1b604082015260600190565b6020808252602c908201527f46756e6374696f6e206d7573742062652063616c6c6564207468726f7567682060408201526b6163746976652070726f787960a01b606082015260800190565b6020808252602e908201527f496e697469616c697a61626c653a20636f6e747261637420697320616c72656160408201526d191e481a5b9a5d1a585b1a5e995960921b606082015260800190565b60208152600060018060a01b038084511660208401526020840151604084015260408401516060840152606084015160808401528060808501511660a08401525060a08301516133ed60c08401826001600160a01b03169052565b5060c083015160e083015260e08301516101008081850152506128d761012084018261314a565b604051610100810167ffffffffffffffff8111828210171561343857613438613678565b60405290565b604051601f8201601f1916810167ffffffffffffffff8111828210171561346757613467613678565b604052919050565b600067ffffffffffffffff82111561348957613489613678565b5060051b60200190565b600082198211156134a6576134a661364c565b500190565b6000826134c857634e487b7160e01b600052601260045260246000fd5b500490565b600181815b808511156135085781600019048211156134ee576134ee61364c565b808516156134fb57918102915b93841c93908002906134d2565b509250929050565b6000611ab083836000826135265750600161087d565b816135335750600061087d565b816001811461354957600281146135535761356f565b600191505061087d565b60ff8411156135645761356461364c565b50506001821b61087d565b5060208310610133831016604e8410600b8410161715613592575081810a61087d565b61359c83836134cd565b80600019048211156135b0576135b061364c565b029392505050565b60008160001904831182151516156135d2576135d261364c565b500290565b6000828210156135e9576135e961364c565b500390565b60005b838110156136095781810151838201526020016135f1565b8381111561222a5750506000910152565b6000816136295761362961364c565b506000190190565b60006000198214156136455761364561364c565b5060010190565b634e487b7160e01b600052601160045260246000fd5b634e487b7160e01b600052603260045260246000fd5b634e487b7160e01b600052604160045260246000fd5b8015158114610c4257600080fdfe416464726573733a206c6f772d6c6576656c2064656c65676174652063616c6c206661696c6564a264697066735822122017b80f7ef8f613613dbe492fb79ff35fb5574b30cf00eaec33fe2deab12ede1364736f6c63430008060033",
  "linkReferences": {},
  "deployedLinkReferences": {}
}