{
  "contractName": "Tunnel",
  "abi": [
    {
      "inputs": [
        {
          "internalType": "contract IAddressResolver",
          "name": "_addrResolver",
          "type": "address"
        },
        {
          "internalType": "bytes32",
          "name": "_oTokenKey",
          "type": "bytes32"
        },
        {
          "internalType": "bytes32",
          "name": "_tunnelKey",
          "type": "bytes32"
        }
      ],
      "stateMutability": "nonpayable",
      "type": "constructor"
    },
    {
      "anonymous": false,
      "inputs": [
        {
          "indexed": true,
          "internalType": "address",
          "name": "account",
          "type": "address"
        },
        {
          "indexed": false,
          "internalType": "uint256",
          "name": "amount",
          "type": "uint256"
        },
        {
          "indexed": false,
          "internalType": "address",
          "name": "proposer",
          "type": "address"
        },
        {
          "indexed": false,
          "internalType": "string",
          "name": "assetAddress",
          "type": "string"
        }
      ],
      "name": "BurnOToken",
      "type": "event"
    },
    {
      "anonymous": false,
      "inputs": [
        {
          "indexed": true,
          "internalType": "address",
          "name": "previousOwner",
          "type": "address"
        },
        {
          "indexed": true,
          "internalType": "address",
          "name": "newOwner",
          "type": "address"
        }
      ],
      "name": "OwnershipTransferred",
      "type": "event"
    },
    {
      "anonymous": false,
      "inputs": [
        {
          "indexed": false,
          "internalType": "address",
          "name": "account",
          "type": "address"
        }
      ],
      "name": "Paused",
      "type": "event"
    },
    {
      "anonymous": false,
      "inputs": [
        {
          "indexed": false,
          "internalType": "address",
          "name": "account",
          "type": "address"
        }
      ],
      "name": "Unpaused",
      "type": "event"
    },
    {
      "inputs": [],
      "name": "ADDRESS_BOOK",
      "outputs": [
        {
          "internalType": "bytes32",
          "name": "",
          "type": "bytes32"
        }
      ],
      "stateMutability": "view",
      "type": "function",
      "constant": true
    },
    {
      "inputs": [],
      "name": "BOR",
      "outputs": [
        {
          "internalType": "bytes32",
          "name": "",
          "type": "bytes32"
        }
      ],
      "stateMutability": "view",
      "type": "function",
      "constant": true
    },
    {
      "inputs": [],
      "name": "BORINGDAO",
      "outputs": [
        {
          "internalType": "bytes32",
          "name": "",
          "type": "bytes32"
        }
      ],
      "stateMutability": "view",
      "type": "function",
      "constant": true
    },
    {
      "inputs": [],
      "name": "BURN_FEE",
      "outputs": [
        {
          "internalType": "bytes32",
          "name": "",
          "type": "bytes32"
        }
      ],
      "stateMutability": "view",
      "type": "function",
      "constant": true
    },
    {
      "inputs": [],
      "name": "BURN_FEE_INSURANCE",
      "outputs": [
        {
          "internalType": "bytes32",
          "name": "",
          "type": "bytes32"
        }
      ],
      "stateMutability": "view",
      "type": "function",
      "constant": true
    },
    {
      "inputs": [],
      "name": "BURN_FEE_PLEDGER",
      "outputs": [
        {
          "internalType": "bytes32",
          "name": "",
          "type": "bytes32"
        }
      ],
      "stateMutability": "view",
      "type": "function",
      "constant": true
    },
    {
      "inputs": [],
      "name": "DEV_ADDRESS",
      "outputs": [
        {
          "internalType": "bytes32",
          "name": "",
          "type": "bytes32"
        }
      ],
      "stateMutability": "view",
      "type": "function",
      "constant": true
    },
    {
      "inputs": [],
      "name": "FEE_POOL",
      "outputs": [
        {
          "internalType": "bytes32",
          "name": "",
          "type": "bytes32"
        }
      ],
      "stateMutability": "view",
      "type": "function",
      "constant": true
    },
    {
      "inputs": [],
      "name": "INSURANCE_POOL",
      "outputs": [
        {
          "internalType": "bytes32",
          "name": "",
          "type": "bytes32"
        }
      ],
      "stateMutability": "view",
      "type": "function",
      "constant": true
    },
    {
      "inputs": [],
      "name": "MINT_FEE",
      "outputs": [
        {
          "internalType": "bytes32",
          "name": "",
          "type": "bytes32"
        }
      ],
      "stateMutability": "view",
      "type": "function",
      "constant": true
    },
    {
      "inputs": [],
      "name": "MINT_FEE_DEV",
      "outputs": [
        {
          "internalType": "bytes32",
          "name": "",
          "type": "bytes32"
        }
      ],
      "stateMutability": "view",
      "type": "function",
      "constant": true
    },
    {
      "inputs": [],
      "name": "MINT_FEE_PLEDGER",
      "outputs": [
        {
          "internalType": "bytes32",
          "name": "",
          "type": "bytes32"
        }
      ],
      "stateMutability": "view",
      "type": "function",
      "constant": true
    },
    {
      "inputs": [],
      "name": "MINT_FEE_TRUSTEE",
      "outputs": [
        {
          "internalType": "bytes32",
          "name": "",
          "type": "bytes32"
        }
      ],
      "stateMutability": "view",
      "type": "function",
      "constant": true
    },
    {
      "inputs": [],
      "name": "NETWORK_FEE",
      "outputs": [
        {
          "internalType": "bytes32",
          "name": "",
          "type": "bytes32"
        }
      ],
      "stateMutability": "view",
      "type": "function",
      "constant": true
    },
    {
      "inputs": [],
      "name": "ORACLE",
      "outputs": [
        {
          "internalType": "bytes32",
          "name": "",
          "type": "bytes32"
        }
      ],
      "stateMutability": "view",
      "type": "function",
      "constant": true
    },
    {
      "inputs": [],
      "name": "PARAM_BOOK",
      "outputs": [
        {
          "internalType": "bytes32",
          "name": "",
          "type": "bytes32"
        }
      ],
      "stateMutability": "view",
      "type": "function",
      "constant": true
    },
    {
      "inputs": [],
      "name": "PLEDGE_RATE",
      "outputs": [
        {
          "internalType": "bytes32",
          "name": "",
          "type": "bytes32"
        }
      ],
      "stateMutability": "view",
      "type": "function",
      "constant": true
    },
    {
      "inputs": [],
      "name": "PLEDGE_TOKEN",
      "outputs": [
        {
          "internalType": "bytes32",
          "name": "",
          "type": "bytes32"
        }
      ],
      "stateMutability": "view",
      "type": "function",
      "constant": true
    },
    {
      "inputs": [],
      "name": "SATELLITE_POOL_FACTORY",
      "outputs": [
        {
          "internalType": "bytes32",
          "name": "",
          "type": "bytes32"
        }
      ],
      "stateMutability": "view",
      "type": "function",
      "constant": true
    },
    {
      "inputs": [],
      "name": "TRUSTEE_FEE_POOL",
      "outputs": [
        {
          "internalType": "bytes32",
          "name": "",
          "type": "bytes32"
        }
      ],
      "stateMutability": "view",
      "type": "function",
      "constant": true
    },
    {
      "inputs": [
        {
          "internalType": "address",
          "name": "",
          "type": "address"
        }
      ],
      "name": "borPledgeInfo",
      "outputs": [
        {
          "internalType": "uint256",
          "name": "",
          "type": "uint256"
        }
      ],
      "stateMutability": "view",
      "type": "function",
      "constant": true
    },
    {
      "inputs": [],
      "name": "burnMiniLimit",
      "outputs": [
        {
          "internalType": "uint256",
          "name": "",
          "type": "uint256"
        }
      ],
      "stateMutability": "view",
      "type": "function",
      "constant": true
    },
    {
      "inputs": [],
      "name": "lockDuration",
      "outputs": [
        {
          "internalType": "uint256",
          "name": "",
          "type": "uint256"
        }
      ],
      "stateMutability": "view",
      "type": "function",
      "constant": true
    },
    {
      "inputs": [
        {
          "internalType": "address",
          "name": "",
          "type": "address"
        },
        {
          "internalType": "uint256",
          "name": "",
          "type": "uint256"
        }
      ],
      "name": "lockInfo",
      "outputs": [
        {
          "internalType": "uint256",
          "name": "unlockTime",
          "type": "uint256"
        },
        {
          "internalType": "uint256",
          "name": "amount",
          "type": "uint256"
        }
      ],
      "stateMutability": "view",
      "type": "function",
      "constant": true
    },
    {
      "inputs": [],
      "name": "oTokenKey",
      "outputs": [
        {
          "internalType": "bytes32",
          "name": "",
          "type": "bytes32"
        }
      ],
      "stateMutability": "view",
      "type": "function",
      "constant": true
    },
    {
      "inputs": [],
      "name": "owner",
      "outputs": [
        {
          "internalType": "address",
          "name": "",
          "type": "address"
        }
      ],
      "stateMutability": "view",
      "type": "function",
      "constant": true
    },
    {
      "inputs": [],
      "name": "paused",
      "outputs": [
        {
          "internalType": "bool",
          "name": "",
          "type": "bool"
        }
      ],
      "stateMutability": "view",
      "type": "function",
      "constant": true
    },
    {
      "inputs": [],
      "name": "redeemLockTxLimit",
      "outputs": [
        {
          "internalType": "uint256",
          "name": "",
          "type": "uint256"
        }
      ],
      "stateMutability": "view",
      "type": "function",
      "constant": true
    },
    {
      "inputs": [],
      "name": "renounceOwnership",
      "outputs": [],
      "stateMutability": "nonpayable",
      "type": "function"
    },
    {
      "inputs": [],
      "name": "totalPledgeBOR",
      "outputs": [
        {
          "internalType": "uint256",
          "name": "",
          "type": "uint256"
        }
      ],
      "stateMutability": "view",
      "type": "function",
      "constant": true
    },
    {
      "inputs": [
        {
          "internalType": "address",
          "name": "newOwner",
          "type": "address"
        }
      ],
      "name": "transferOwnership",
      "outputs": [],
      "stateMutability": "nonpayable",
      "type": "function"
    },
    {
      "inputs": [],
      "name": "tunnelKey",
      "outputs": [
        {
          "internalType": "bytes32",
          "name": "",
          "type": "bytes32"
        }
      ],
      "stateMutability": "view",
      "type": "function",
      "constant": true
    },
    {
      "inputs": [],
      "name": "totalValuePledge",
      "outputs": [
        {
          "internalType": "uint256",
          "name": "",
          "type": "uint256"
        }
      ],
      "stateMutability": "view",
      "type": "function",
      "constant": true
    },
    {
      "inputs": [
        {
          "internalType": "address",
          "name": "account",
          "type": "address"
        }
      ],
      "name": "userLockLength",
      "outputs": [
        {
          "internalType": "uint256",
          "name": "",
          "type": "uint256"
        }
      ],
      "stateMutability": "view",
      "type": "function",
      "constant": true
    },
    {
      "inputs": [],
      "name": "userLockAmount",
      "outputs": [
        {
          "internalType": "uint256",
          "name": "",
          "type": "uint256"
        },
        {
          "internalType": "uint256",
          "name": "",
          "type": "uint256"
        }
      ],
      "stateMutability": "view",
      "type": "function",
      "constant": true
    },
    {
      "inputs": [
        {
          "internalType": "uint256",
          "name": "duration",
          "type": "uint256"
        }
      ],
      "name": "setLockDuration",
      "outputs": [],
      "stateMutability": "nonpayable",
      "type": "function"
    },
    {
      "inputs": [
        {
          "internalType": "uint256",
          "name": "limit",
          "type": "uint256"
        }
      ],
      "name": "setRedeemLockTxLimit",
      "outputs": [],
      "stateMutability": "nonpayable",
      "type": "function"
    },
    {
      "inputs": [
        {
          "internalType": "uint256",
          "name": "amount",
          "type": "uint256"
        }
      ],
      "name": "setBurnMiniLimit",
      "outputs": [],
      "stateMutability": "nonpayable",
      "type": "function"
    },
    {
      "inputs": [
        {
          "internalType": "address",
          "name": "account",
          "type": "address"
        },
        {
          "internalType": "uint256",
          "name": "amount",
          "type": "uint256"
        }
      ],
      "name": "pledge",
      "outputs": [],
      "stateMutability": "nonpayable",
      "type": "function"
    },
    {
      "inputs": [
        {
          "internalType": "address",
          "name": "account",
          "type": "address"
        },
        {
          "internalType": "uint256",
          "name": "amount",
          "type": "uint256"
        }
      ],
      "name": "redeem",
      "outputs": [],
      "stateMutability": "nonpayable",
      "type": "function"
    },
    {
      "inputs": [],
      "name": "withdrawUnlock",
      "outputs": [],
      "stateMutability": "nonpayable",
      "type": "function"
    },
    {
      "inputs": [
        {
          "internalType": "address",
          "name": "account",
          "type": "address"
        },
        {
          "internalType": "uint256",
          "name": "amount",
          "type": "uint256"
        }
      ],
      "name": "issue",
      "outputs": [],
      "stateMutability": "nonpayable",
      "type": "function"
    },
    {
      "inputs": [
        {
          "internalType": "address",
          "name": "account",
          "type": "address"
        },
        {
          "internalType": "uint256",
          "name": "amount",
          "type": "uint256"
        },
        {
          "internalType": "string",
          "name": "assetAddress",
          "type": "string"
        }
      ],
      "name": "burn",
      "outputs": [],
      "stateMutability": "nonpayable",
      "type": "function"
    },
    {
      "inputs": [],
      "name": "totalTVL",
      "outputs": [
        {
          "internalType": "uint256",
          "name": "",
          "type": "uint256"
        }
      ],
      "stateMutability": "view",
      "type": "function",
      "constant": true
    },
    {
      "inputs": [],
      "name": "pledgeRatio",
      "outputs": [
        {
          "internalType": "uint256",
          "name": "",
          "type": "uint256"
        }
      ],
      "stateMutability": "view",
      "type": "function",
      "constant": true
    },
    {
      "inputs": [],
      "name": "canIssueAmount",
      "outputs": [
        {
          "internalType": "uint256",
          "name": "",
          "type": "uint256"
        }
      ],
      "stateMutability": "view",
      "type": "function",
      "constant": true
    },
    {
      "inputs": [],
      "name": "unpause",
      "outputs": [
        {
          "internalType": "bool",
          "name": "",
          "type": "bool"
        }
      ],
      "stateMutability": "nonpayable",
      "type": "function"
    }
  ],
  "bytecode": "0x608060405266038d7ea4c680006006556005600755620151806009553480156200002857600080fd5b5060405162002cb938038062002cb98339810160408190526200004b9162000177565b600062000057620000e6565b600080546001600160a01b0319166001600160a01b0383169081178255604051929350917f8be0079c531659141344cd1fd0a4f28419497f9722a3daafe3b4186f6b6457e0908290a3506000805460ff60a01b19169055600180546001600160a01b0319166001600160a01b03851617905560028290556003819055620000dd620000ea565b505050620001f8565b3390565b600054600160a01b900460ff1615620001205760405162461bcd60e51b81526004016200011790620001ce565b60405180910390fd5b6000805460ff60a01b1916600160a01b1790557f62e78cea01bee320cd4e420270b5ea74000d11b0c9f74754ebdbfc544b05a2586200015e620000e6565b6040516200016d9190620001ba565b60405180910390a1565b6000806000606084860312156200018c578283fd5b83516001600160a01b0381168114620001a3578384fd5b602085015160409095015190969495509392505050565b6001600160a01b0391909116815260200190565b60208082526010908201526f14185d5cd8589b194e881c185d5cd95960821b604082015260600190565b612ab180620002086000396000f3fe608060405234801561001057600080fd5b50600436106102955760003560e01c8063715018a611610167578063b78c0ffb116100ce578063dff667bf11610087578063dff667bf14610485578063e34bc6f31461048d578063e4886e0514610495578063eb24e4721461049d578063f2fde38b146104a5578063fe07c43b146104b857610295565b8063b78c0ffb14610455578063c01f3a571461045d578063c891574214610465578063d751b6cf1461046d578063d7bf81a314610475578063dcc4f6841461047d57610295565b80639be5c024116101205780639be5c0241461041a578063a13aed1f14610422578063a8bc6f7c1461042a578063a975166514610432578063b049e25a1461043a578063b2520a7c1461044257610295565b8063715018a6146103c7578063743b3452146103cf5780637a431b8a146103e2578063867904b4146103ea5780638da5cb5b146103fd5780639416c30f1461041257610295565b80633b0c64f71161020b5780634eb665af116101c45780634eb665af14610381578063537aa33c146103945780635639e8cf146103a75780635c975abb146103af5780635fc5f4de146103b7578063654a864a146103bf57610295565b80633b0c64f7146103205780633c69e26b146103335780633f4ba83a1461033b5780633fce824a14610350578063480df058146103635780634b8dfca21461036b57610295565b806315f570dc1161025d57806315f570dc146102d85780631e9a6950146102ed57806326abdad4146103005780632f4f0d1c14610308578063340b79491461031057806338013f021461031857610295565b8063045544431461029a578063074e8317146102b85780630ccfe3e2146102c05780630dc6ff08146102c857806310d5e590146102d0575b600080fd5b6102a26104cb565b6040516102af9190612625565b60405180910390f35b6102a26104d1565b6102a26104d7565b6102a26104e9565b6102a26104fb565b6102eb6102e6366004612477565b610501565b005b6102eb6102fb36600461244c565b610aae565b6102a2610d94565b6102a2610d9e565b6102a2610da4565b6102a2610dc2565b6102eb61032e36600461254e565b610dcf565b6102a2610e09565b610343610f5a565b6040516102af919061261a565b6102eb61035e36600461254e565b610f83565b6102a2610fbd565b610373610fcc565b6040516102af92919061262e565b6102eb61038f36600461254e565b6110bd565b6102a26103a2366004612414565b6110f7565b6102a2611112565b610343611120565b6102a2611130565b6102eb611145565b6102eb611321565b6102eb6103dd36600461244c565b6113a0565b6102a2611531565b6102eb6103f836600461244c565b61153f565b610405611a68565b6040516102af91906125c9565b6102a2611a77565b6102a2611a8e565b6102a2611aa0565b6102a2611ab4565b6102a2611b4e565b6102a2611b65565b61037361045036600461244c565b611b78565b6102a2611bb1565b6102a2611c53565b6102a2611c59565b6102a2611c67565b6102a2611c6d565b6102a2611c7c565b6102a2611c93565b6102a2611cac565b6102a2611cbc565b6102a2611ccc565b6102eb6104b3366004612414565b611dbf565b6102a26104c6366004612414565b611e75565b60095481565b60075481565b6a41646472657373426f6f6b60a81b81565b6a706c656467655f7261746560a81b81565b60025481565b60015460405163130852b360e11b81526001600160a01b0390911690632610a5669061053d9068426f72696e6744414f60b81b90600401612625565b60206040518083038186803b15801561055557600080fd5b505afa158015610569573d6000803e3d6000fd5b505050506040513d601f19601f8201168201806040525081019061058d9190612430565b6001600160a01b0316336001600160a01b0316146105aa57600080fd5b6006548210156105d55760405162461bcd60e51b81526004016105cc906129aa565b60405180910390fd5b60006105f56105ee676275726e5f66656560c01b611e87565b8490611f16565b9050600061071a610604611f3a565b6001600160a01b03166331d98b3f622127a960e91b6040518263ffffffff1660e01b81526004016106359190612625565b60206040518083038186803b15801561064d57600080fd5b505afa158015610661573d6000803e3d6000fd5b505050506040513d601f19601f820116820180604052508101906106859190612566565b61071484610691611f3a565b6001600160a01b03166331d98b3f6003546040518263ffffffff1660e01b81526004016106be9190612625565b60206040518083038186803b1580156106d657600080fd5b505afa1580156106ea573d6000803e3d6000fd5b505050506040513d601f19601f8201168201806040525081019061070e9190612566565b90611f16565b90611fc4565b60015460405163130852b360e11b81529192506000916001600160a01b0390911690632610a56690610760906c125b9cdd5c985b98d9541bdbdb609a1b90600401612625565b60206040518083038186803b15801561077857600080fd5b505afa15801561078c573d6000803e3d6000fd5b505050506040513d601f19601f820116820180604052508101906107b09190612430565b905060006107d56105ee716275726e5f6665655f696e737572616e636560701b611e87565b905060006107ff6107f86f313ab9372fb332b2afb83632b233b2b960811b611e87565b8590611f16565b9050610809611fe9565b6001600160a01b03166323b872dd8985856040518463ffffffff1660e01b8152600401610838939291906125f6565b602060405180830381600087803b15801561085257600080fd5b505af1158015610866573d6000803e3d6000fd5b505050506040513d601f19601f8201168201806040525081019061088a919061252e565b50610893611fe9565b6001600160a01b03166323b872dd896108aa612020565b846040518463ffffffff1660e01b81526004016108c9939291906125f6565b602060405180830381600087803b1580156108e357600080fd5b505af11580156108f7573d6000803e3d6000fd5b505050506040513d601f19601f8201168201806040525081019061091b919061252e565b50610924612020565b6001600160a01b0316639bc51d09826040518263ffffffff1660e01b815260040161094f9190612625565b600060405180830381600087803b15801561096957600080fd5b505af115801561097d573d6000803e3d6000fd5b5050505061098961205b565b6001600160a01b0316639dc29fac89896040518363ffffffff1660e01b81526004016109b69291906125dd565b600060405180830381600087803b1580156109d057600080fd5b505af11580156109e4573d6000803e3d6000fd5b50505050876001600160a01b03167f664cd9ab0b020c7547d330dd6186656a2fac38bbca46ba6f125081f0d409f0bd88610a1c61208e565b6001600160a01b031663e9857da16040518163ffffffff1660e01b815260040160206040518083038186803b158015610a5457600080fd5b505afa158015610a68573d6000803e3d6000fd5b505050506040513d601f19601f82011682018060405250810190610a8c9190612430565b89604051610a9c93929190612a30565b60405180910390a25050505050505050565b60015460405163130852b360e11b81526001600160a01b0390911690632610a56690610aea9068426f72696e6744414f60b81b90600401612625565b60206040518083038186803b158015610b0257600080fd5b505afa158015610b16573d6000803e3d6000fd5b505050506040513d601f19601f82011682018060405250810190610b3a9190612430565b6001600160a01b0316336001600160a01b031614610b5757600080fd5b80610b606120cb565b6001600160a01b03166370a08231846040518263ffffffff1660e01b8152600401610b8b91906125c9565b60206040518083038186803b158015610ba357600080fd5b505afa158015610bb7573d6000803e3d6000fd5b505050506040513d601f19601f82011682018060405250810190610bdb9190612566565b1015610bf95760405162461bcd60e51b81526004016105cc9061295a565b6001600160a01b038216600090815260046020526040902054811115610c315760405162461bcd60e51b81526004016105cc906129ec565b6007546001600160a01b0383166000908152600860205260409020541115610c6b5760405162461bcd60e51b81526004016105cc90612868565b6001600160a01b038216600090815260046020526040902054610c8e9082612106565b6001600160a01b038316600090815260046020526040902055600954610cc29083908390610cbd904290612148565b61216d565b610cca6120cb565b6001600160a01b0316639dc29fac83836040518363ffffffff1660e01b8152600401610cf79291906125dd565b600060405180830381600087803b158015610d1157600080fd5b505af1158015610d25573d6000803e3d6000fd5b50505050610d31612020565b6001600160a01b031663f3fef3a383836040518363ffffffff1660e01b8152600401610d5e9291906125dd565b600060405180830381600087803b158015610d7857600080fd5b505af1158015610d8c573d6000803e3d6000fd5b505050505050565b622127a960e91b81565b60035481565b76425443536174656c6c697465506f6f6c466163746f727960481b81565b654f7261636c6560d01b81565b610dd76121be565b6000546001600160a01b03908116911614610e045760405162461bcd60e51b81526004016105cc90612925565b600755565b600080610e14611ab4565b90506000610e206121c2565b6001600160a01b031663171800cc6003546a706c656467655f7261746560a81b6040518363ffffffff1660e01b8152600401610e5d92919061262e565b60206040518083038186803b158015610e7557600080fd5b505afa158015610e89573d6000803e3d6000fd5b505050506040513d601f19601f82011682018060405250810190610ead9190612566565b90506000610ebb8383611fc4565b90506000610ec7611f3a565b6001600160a01b03166331d98b3f6003546040518263ffffffff1660e01b8152600401610ef49190612625565b60206040518083038186803b158015610f0c57600080fd5b505afa158015610f20573d6000803e3d6000fd5b505050506040513d601f19601f82011682018060405250810190610f449190612566565b9050610f508282611fc4565b9450505050505b90565b600068a2a15d09519be0000060055410610f7657610f766121ff565b610f7e611120565b905090565b610f8b6121be565b6000546001600160a01b03908116911614610fb85760405162461bcd60e51b81526004016105cc90612925565b600655565b676275726e5f66656560c01b81565b60008060008060005b336000908152600860205260409020548110156110b35733600090815260086020526040902080548290811061100757fe5b906000526020600020906002020160000154421061106757336000908152600860205260409020805461106091908390811061103f57fe5b9060005260206000209060020201600101548361214890919063ffffffff16565b91506110ab565b33600090815260086020526040902080546110a891908390811061108757fe5b9060005260206000209060020201600101548461214890919063ffffffff16565b92505b600101610fd5565b5090925090509091565b6110c56121be565b6000546001600160a01b039081169116146110f25760405162461bcd60e51b81526004016105cc90612925565b600955565b6001600160a01b031660009081526008602052604090205490565b662232bb2ab9b2b960c91b81565b600054600160a01b900460ff1690565b6d151c9d5cdd1959519959541bdbdb60921b81565b6000805b33600090815260086020526040902054811461127e5733600090815260086020526040902080548290811061117a57fe5b90600052602060002090600202016000015442106112755733600090815260086020526040902080546111b291908390811061103f57fe5b3360009081526008602052604090208054919350906111d2906001612106565b815481106111dc57fe5b906000526020600020906002020160086000336001600160a01b03166001600160a01b03168152602001908152602001600020828154811061121a57fe5b600091825260208083208454600290930201918255600193840154939091019290925533815260089091526040902080548061125257fe5b600082815260208120600260001990930192830201818155600101559055611279565b6001015b611149565b811561131d576005546112919083612106565b60055561129c611fe9565b6001600160a01b031663a9059cbb33846040518363ffffffff1660e01b81526004016112c99291906125dd565b602060405180830381600087803b1580156112e357600080fd5b505af11580156112f7573d6000803e3d6000fd5b505050506040513d601f19601f8201168201806040525081019061131b919061252e565b505b5050565b6113296121be565b6000546001600160a01b039081169116146113565760405162461bcd60e51b81526004016105cc90612925565b600080546040516001600160a01b03909116907f8be0079c531659141344cd1fd0a4f28419497f9722a3daafe3b4186f6b6457e0908390a3600080546001600160a01b0319169055565b60015460405163130852b360e11b81526001600160a01b0390911690632610a566906113dc9068426f72696e6744414f60b81b90600401612625565b60206040518083038186803b1580156113f457600080fd5b505afa158015611408573d6000803e3d6000fd5b505050506040513d601f19601f8201168201806040525081019061142c9190612430565b6001600160a01b0316336001600160a01b03161461144957600080fd5b6001600160a01b03821660009081526004602052604090205461146c9082612148565b6001600160a01b0383166000908152600460205260409020556005546114929082612148565b60055561149d6120cb565b6001600160a01b03166340c10f1983836040518363ffffffff1660e01b81526004016114ca9291906125dd565b600060405180830381600087803b1580156114e457600080fd5b505af11580156114f8573d6000803e3d6000fd5b50505050611504612020565b6001600160a01b0316631a63f35c83836040518363ffffffff1660e01b8152600401610d5e9291906125dd565b665050542d42544360c81b81565b60015460405163130852b360e11b81526001600160a01b0390911690632610a5669061157b9068426f72696e6744414f60b81b90600401612625565b60206040518083038186803b15801561159357600080fd5b505afa1580156115a7573d6000803e3d6000fd5b505050506040513d601f19601f820116820180604052508101906115cb9190612430565b6001600160a01b0316336001600160a01b0316146115e857600080fd5b60006115f26121c2565b6001600160a01b031663171800cc6003546a6e6574776f726b5f66656560a81b6040518363ffffffff1660e01b815260040161162f92919061262e565b60206040518083038186803b15801561164757600080fd5b505afa15801561165b573d6000803e3d6000fd5b505050506040513d601f19601f8201168201806040525081019061167f9190612566565b90506000611697676d696e745f66656560c01b611e87565b905060006116a58483611f16565b905060006116bd846116b78785612106565b90612106565b90506116c761205b565b6001600160a01b03166340c10f1987836040518363ffffffff1660e01b81526004016116f49291906125dd565b600060405180830381600087803b15801561170e57600080fd5b505af1158015611722573d6000803e3d6000fd5b5050505060006117446f6d696e745f6665655f7472757374656560801b611e87565b9050600061175c866117568685611f16565b90612148565b905061176661205b565b6001600160a01b03166340c10f1961177c612275565b836040518363ffffffff1660e01b815260040161179a9291906125dd565b600060405180830381600087803b1580156117b457600080fd5b505af11580156117c8573d6000803e3d6000fd5b505050506117d4612275565b6001600160a01b03166360993b5b826040518263ffffffff1660e01b81526004016117ff9190612625565b600060405180830381600087803b15801561181957600080fd5b505af115801561182d573d6000803e3d6000fd5b50505050600061184f6f36b4b73a2fb332b2afb83632b233b2b960811b611e87565b9050600061185d8683611f16565b90506000611869612020565b905061187361205b565b6001600160a01b03166340c10f1982846040518363ffffffff1660e01b81526004016118a09291906125dd565b600060405180830381600087803b1580156118ba57600080fd5b505af11580156118ce573d6000803e3d6000fd5b505050506118da612020565b6001600160a01b0316633328817e836040518263ffffffff1660e01b81526004016119059190612625565b600060405180830381600087803b15801561191f57600080fd5b505af1158015611933573d6000803e3d6000fd5b5050505060006119516b36b4b73a2fb332b2afb232bb60a11b611e87565b9050600061195f8983611f16565b60015460405163130852b360e11b81529192506000916001600160a01b0390911690632610a5669061199f90662232bb2ab9b2b960c91b90600401612625565b60206040518083038186803b1580156119b757600080fd5b505afa1580156119cb573d6000803e3d6000fd5b505050506040513d601f19601f820116820180604052508101906119ef9190612430565b90506119f961205b565b6001600160a01b03166340c10f1982846040518363ffffffff1660e01b8152600401611a269291906125dd565b600060405180830381600087803b158015611a4057600080fd5b505af1158015611a54573d6000803e3d6000fd5b505050505050505050505050505050505050565b6000546001600160a01b031690565b6f313ab9372fb332b2afb83632b233b2b960811b81565b6a6e6574776f726b5f66656560a81b81565b6c125b9cdd5c985b98d9541bdbdb609a1b81565b600080611abf611bb1565b90506000611acb6122b7565b6001600160a01b031663f7b59acb6040518163ffffffff1660e01b815260040160206040518083038186803b158015611b0357600080fd5b505afa158015611b17573d6000803e3d6000fd5b505050506040513d601f19601f82011682018060405250810190611b3b9190612566565b9050611b478282612148565b9250505090565b6f36b4b73a2fb332b2afb83632b233b2b960811b81565b6b36b4b73a2fb332b2afb232bb60a11b81565b60086020528160005260406000208181548110611b9157fe5b600091825260209091206002909102018054600190910154909250905082565b600080611bbc611f3a565b6001600160a01b03166331d98b3f622127a960e91b6040518263ffffffff1660e01b8152600401611bed9190612625565b60206040518083038186803b158015611c0557600080fd5b505afa158015611c19573d6000803e3d6000fd5b505050506040513d601f19601f82011682018060405250810190611c3d9190612566565b600554909150611c4d9082611f16565b91505090565b60065481565b66119959541bdbdb60ca1b81565b60055481565b676d696e745f66656560c01b81565b6f6d696e745f6665655f7472757374656560801b81565b716275726e5f6665655f696e737572616e636560701b81565b68506172616d426f6f6b60b81b81565b68426f72696e6744414f60b81b81565b600080611cd7611ab4565b90506000611da3611ce6611f3a565b6001600160a01b03166331d98b3f6003546040518263ffffffff1660e01b8152600401611d139190612625565b60206040518083038186803b158015611d2b57600080fd5b505afa158015611d3f573d6000803e3d6000fd5b505050506040513d601f19601f82011682018060405250810190611d639190612566565b611d6b612302565b6001600160a01b03166318160ddd6040518163ffffffff1660e01b815260040160206040518083038186803b1580156106d657600080fd5b905080611db557600092505050610f57565b611b478282611fc4565b611dc76121be565b6000546001600160a01b03908116911614611df45760405162461bcd60e51b81526004016105cc90612925565b6001600160a01b038116611e1a5760405162461bcd60e51b81526004016105cc906127eb565b600080546040516001600160a01b03808516939216917f8be0079c531659141344cd1fd0a4f28419497f9722a3daafe3b4186f6b6457e091a3600080546001600160a01b0319166001600160a01b0392909216919091179055565b60046020526000908152604090205481565b6000611e916121c2565b6001600160a01b031663171800cc600354846040518363ffffffff1660e01b8152600401611ec092919061262e565b60206040518083038186803b158015611ed857600080fd5b505afa158015611eec573d6000803e3d6000fd5b505050506040513d601f19601f82011682018060405250810190611f109190612566565b92915050565b6000670de0b6b3a7640000611f2b8484612335565b81611f3257fe5b049392505050565b60015460405163130852b360e11b81526000916001600160a01b031690632610a56690611f7490654f7261636c6560d01b90600401612625565b60206040518083038186803b158015611f8c57600080fd5b505afa158015611fa0573d6000803e3d6000fd5b505050506040513d601f19601f82011682018060405250810190610f7e9190612430565b6000611fe282611fdc85670de0b6b3a7640000612335565b9061236f565b9392505050565b600154604051635da2251d60e11b81526000916001600160a01b03169063bb444a3a90611f7490622127a960e91b9060040161263c565b60015460405163130852b360e11b81526000916001600160a01b031690632610a56690611f749066119959541bdbdb60ca1b90600401612625565b600154600254604051635da2251d60e11b81526000926001600160a01b03169163bb444a3a91611f749190600401612697565b60015460405163130852b360e11b81526000916001600160a01b031690632610a56690611f749068426f72696e6744414f60b81b90600401612625565b60015460405163130852b360e11b81526000916001600160a01b031690632610a56690611f7490665050542d42544360c81b90600401612625565b6000611fe283836040518060400160405280601e81526020017f536166654d6174683a207375627472616374696f6e206f766572666c6f7700008152506123b1565b600082820183811015611fe25760405162461bcd60e51b81526004016105cc90612831565b6001600160a01b039092166000908152600860209081526040808320815180830190925294815280820193845284546001818101875595845291909220915160029091029091019081559051910155565b3390565b60015460405163130852b360e11b81526000916001600160a01b031690632610a56690611f749068506172616d426f6f6b60b81b90600401612625565b600054600160a01b900460ff166122285760405162461bcd60e51b81526004016105cc906127bd565b6000805460ff60a01b191690557f5db9ee0a495bf2e6ff9c91a7834c1ba4fdd244a5e8aa4e537bd38aeae4b073aa61225e6121be565b60405161226b91906125c9565b60405180910390a1565b600154604051635da2251d60e11b81526000916001600160a01b03169063bb444a3a90611f74906d151c9d5cdd1959519959541bdbdb60921b9060040161275f565b60015460405163130852b360e11b81526000916001600160a01b031690632610a56690611f749076425443536174656c6c697465506f6f6c466163746f727960481b90600401612625565b600154600254604051635da2251d60e11b81526000926001600160a01b03169163bb444a3a91611f7491906004016126fb565b60008261234457506000611f10565b8282028284828161235157fe5b0414611fe25760405162461bcd60e51b81526004016105cc906128e4565b6000611fe283836040518060400160405280601a81526020017f536166654d6174683a206469766973696f6e206279207a65726f0000000000008152506123dd565b600081848411156123d55760405162461bcd60e51b81526004016105cc91906127aa565b505050900390565b600081836123fe5760405162461bcd60e51b81526004016105cc91906127aa565b50600083858161240a57fe5b0495945050505050565b600060208284031215612425578081fd5b8135611fe281612a63565b600060208284031215612441578081fd5b8151611fe281612a63565b6000806040838503121561245e578081fd5b823561246981612a63565b946020939093013593505050565b60008060006060848603121561248b578081fd5b833561249681612a63565b92506020848101359250604085013567ffffffffffffffff808211156124ba578384fd5b818701915087601f8301126124cd578384fd5b8135818111156124db578485fd5b604051601f8201601f19168101850183811182821017156124fa578687fd5b60405281815283820185018a1015612510578586fd5b81858501868301378585838301015280955050505050509250925092565b60006020828403121561253f578081fd5b81518015158114611fe2578182fd5b60006020828403121561255f578081fd5b5035919050565b600060208284031215612577578081fd5b5051919050565b60008151808452815b818110156125a357602081850181015186830182015201612587565b818111156125b45782602083870101525b50601f01601f19169290920160200192915050565b6001600160a01b0391909116815260200190565b6001600160a01b03929092168252602082015260400190565b6001600160a01b039384168152919092166020820152604081019190915260600190565b901515815260200190565b90815260200190565b918252602082015260400190565b9081526040602082018190526034908201527f626f7245524332303a3a626f7245524332303a20424f5220636f6e7472616374606082015273081b9bdd08195e1a5cdd081a5b88151d5b9b995b60621b608082015260a00190565b908152604060208201819052603b908201527f54756e6e656c3a3a6f746f6b656e4d696e744275726e3a206f546f6b656e206360608201527f6f6e7472616374206e6f7420657869737420696e2054756e6e656c0000000000608082015260a00190565b9081526040602082018190526038908201527f54756e6e656c3a3a6f746f6b656e45524332303a206f546f6b656e20636f6e7460608201527f72616374206e6f7420657869737420696e2054756e6e656c0000000000000000608082015260a00190565b9081526040602082018190526024908201527f54756e6e656c3a3a74727573746565466565506f6f6c206973206164647265736060820152637328302960e01b608082015260a00190565b600060208252611fe2602083018461257e565b60208082526014908201527314185d5cd8589b194e881b9bdd081c185d5cd95960621b604082015260600190565b60208082526026908201527f4f776e61626c653a206e6577206f776e657220697320746865207a65726f206160408201526564647265737360d01b606082015260800190565b6020808252601b908201527f536166654d6174683a206164646974696f6e206f766572666c6f770000000000604082015260600190565b60208082526056908201527f54756e6e656c3a3a72656465656d3a204120757365722063616e206f6e6c792060408201527f72656465656d206174206d6f737420666976652072656465656d2c207472792060608201527530b3b0b4b71030b33a32b91032bc3a3930b1ba34b7b760511b608082015260a00190565b60208082526021908201527f536166654d6174683a206d756c7469706c69636174696f6e206f766572666c6f6040820152607760f81b606082015260800190565b6020808252818101527f4f776e61626c653a2063616c6c6572206973206e6f7420746865206f776e6572604082015260600190565b60208082526030908201527f54756e6e656c3a3a72656465656d3a206e6f7420656e6f75676820706c65646760408201526f3290383937bb34b232b9103a37b5b2b760811b606082015260800190565b60208082526022908201527f54756e6e656c3a3a6275726e3a2074686520616d6f756e7420746f6f20736d616040820152611b1b60f21b606082015260800190565b60208082526024908201527f54756e6e656c3a72656465656d3a204e6f7420656e6f75676820626f7220616d6040820152631bdd5b9d60e21b606082015260800190565b8381526001600160a01b0383166020820152606060408201819052600090612a5a9083018461257e565b95945050505050565b6001600160a01b0381168114612a7857600080fd5b5056fea2646970667358221220f51e322ae5e6b9227b79117b6ddd08f17d00e814228ef328344b43303c13a43864736f6c634300060c0033",
  "immutableReferences": {},
  "source": "// SPDX-License-Identifier: MIT\n\npragma solidity ^0.6.12;\npragma experimental ABIEncoderV2;\n\nimport \"@openzeppelin/contracts/access/Ownable.sol\";\nimport \"@openzeppelin/contracts/math/SafeMath.sol\";\nimport \"@openzeppelin/contracts/utils/Pausable.sol\";\nimport \"./interface/IAddressResolver.sol\";\nimport \"./interface/ITunnel.sol\";\nimport \"./ParamBook.sol\";\nimport \"./lib/SafeDecimalMath.sol\";\nimport \"./interface/IBoringDAO.sol\";\nimport \"./interface/IOracle.sol\";\nimport \"@openzeppelin/contracts/token/ERC20/IERC20.sol\";\nimport \"./interface/IFeePool.sol\";\nimport \"./interface/IStakingRewardsFactory.sol\";\nimport \"./interface/IMintBurn.sol\";\nimport \"./interface/ITrusteeFeePool.sol\";\n\ncontract Tunnel is Ownable, Pausable, ITunnel {\n    using SafeMath for uint256;\n    using SafeDecimalMath for uint256;\n\n    IAddressResolver addrResolver;\n    bytes32 public constant BORINGDAO = \"BoringDAO\";\n    // BTOKEN_BTC\n    bytes32 public override oTokenKey;\n    bytes32 public tunnelKey;\n    bytes32 public constant MINT_FEE = \"mint_fee\";\n    bytes32 public constant BURN_FEE = \"burn_fee\";\n    bytes32 public constant MINT_FEE_TRUSTEE = \"mint_fee_trustee\";\n    bytes32 public constant MINT_FEE_PLEDGER = \"mint_fee_pledger\";\n    bytes32 public constant MINT_FEE_DEV = \"mint_fee_dev\";\n    bytes32 public constant BURN_FEE_INSURANCE = \"burn_fee_insurance\";\n    bytes32 public constant BURN_FEE_PLEDGER = \"burn_fee_pledger\";\n    bytes32 public constant FEE_POOL = \"FeePool\";\n    bytes32 public constant INSURANCE_POOL = \"InsurancePool\";\n    bytes32 public constant DEV_ADDRESS = \"DevUser\";\n    bytes32 public constant ADDRESS_BOOK = \"AddressBook\";\n    bytes32 public constant ORACLE = \"Oracle\";\n    bytes32 public constant BOR = \"BOR\";\n    bytes32 public constant PLEDGE_RATE = \"pledge_rate\";\n    bytes32 public constant NETWORK_FEE = \"network_fee\";\n    bytes32 public constant PLEDGE_TOKEN = \"PPT-BTC\";\n    bytes32 public constant PARAM_BOOK = \"ParamBook\";\n    bytes32 public constant TRUSTEE_FEE_POOL = \"TrusteeFeePool\";\n    bytes32 public constant SATELLITE_POOL_FACTORY = \"BTCSatellitePoolFactory\";\n\n    mapping(address => uint) public borPledgeInfo;\n    // total pledge value in one token\n    uint256 public totalPledgeBOR;\n\n    // burn mini limit\n    uint256 public burnMiniLimit=1e15;\n    uint256 public redeemLockTxLimit=5;\n\n    struct PledgerInfo {\n        uint256 amount;\n        uint256 feeDebt;\n    }\n\n    struct LockAmount{\n        uint unlockTime;\n        uint amount;\n    }\n    mapping(address=>LockAmount[]) public lockInfo;\n\n    uint256 public lockDuration = 86400;\n\n    constructor(\n        IAddressResolver _addrResolver,\n        bytes32 _oTokenKey,\n        bytes32 _tunnelKey\n    ) public {\n        addrResolver = _addrResolver;\n        oTokenKey = _oTokenKey;\n        tunnelKey = _tunnelKey;\n        _pause();\n    }\n\n    // view\n    function otokenMintBurn() internal view returns (IMintBurn) {\n        return IMintBurn(addrResolver.requireAndKey2Address(oTokenKey, \"Tunnel::otokenMintBurn: oToken contract not exist in Tunnel\"));\n    }\n\n    function otokenERC20() internal view returns (IERC20) {\n        return IERC20(addrResolver.requireAndKey2Address(oTokenKey, \"Tunnel::otokenERC20: oToken contract not exist in Tunnel\"));\n    }\n\n    function borERC20() internal view returns (IERC20) {\n        return IERC20(addrResolver.requireAndKey2Address(BOR, \"borERC20::borERC20: BOR contract not exist in Tunnel\"));\n    }\n\n    function boringDAO() internal view returns (IBoringDAO) {\n        return IBoringDAO(addrResolver.key2address(BORINGDAO));\n    }\n\n    function oracle() internal view returns (IOracle) {\n        return IOracle(addrResolver.key2address(ORACLE));\n    }\n\n    function ppTokenMintBurn() internal view returns (IMintBurn) {\n        return IMintBurn(addrResolver.key2address(PLEDGE_TOKEN));\n    }\n\n    function ppTokenERC20() internal view returns (IERC20) {\n        return IERC20(addrResolver.key2address(PLEDGE_TOKEN));\n    }\n\n    function feePool() internal view returns (IFeePool) {\n        return IFeePool(addrResolver.key2address(FEE_POOL));\n    }\n\n    function trusteeFeePool() internal view returns (ITrusteeFeePool) {\n        return ITrusteeFeePool(addrResolver.requireAndKey2Address(TRUSTEE_FEE_POOL, \"Tunnel::trusteeFeePool is address(0)\"));\n    }\n\n    function paramBook() internal view returns (ParamBook) {\n        return ParamBook(addrResolver.key2address(PARAM_BOOK));\n    }\n\n    function getRate(bytes32 name) internal view returns (uint256) {\n        return paramBook().params2(tunnelKey, name);\n    }\n\n    function satellitePoolFactory() internal view returns(IStakingRewardsFactory) {\n        return IStakingRewardsFactory(addrResolver.key2address(SATELLITE_POOL_FACTORY));\n    }\n\n    function totalValuePledge() public override view returns (uint256) {\n        uint256 borPrice = oracle().getPrice(BOR);\n        return totalPledgeBOR.multiplyDecimal(borPrice);\n    }\n\n    function userLockLength(address account) public view returns (uint) {\n        return lockInfo[account].length;\n    }\n\n    function userLockAmount() public view returns(uint256, uint256) {\n        uint lock;\n        uint unlock;\n        for (uint i=0; i<lockInfo[msg.sender].length; i++) {\n            if(block.timestamp >= lockInfo[msg.sender][i].unlockTime) {\n                unlock = unlock.add(lockInfo[msg.sender][i].amount);\n            } else {\n                lock = lock.add(lockInfo[msg.sender][i].amount);\n            }\n        }\n        return (lock, unlock);\n    }\n\n    // todo\n\n    // duration should bigger than lockDuration\n    function setLockDuration(uint duration) public onlyOwner {\n        lockDuration = duration;\n    }\n\n    function setRedeemLockTxLimit(uint limit) public onlyOwner {\n            redeemLockTxLimit = limit;\n    }\n\n    function setBurnMiniLimit(uint amount) public onlyOwner {\n        burnMiniLimit = amount;\n    }\n\n    function pledge(address account, uint256 amount)\n        external\n        override\n        onlyBoringDAO\n    {\n        borPledgeInfo[account] = borPledgeInfo[account].add(amount);\n        totalPledgeBOR = totalPledgeBOR.add(amount);\n        // mint pledge token\n        ppTokenMintBurn().mint(account, amount);\n        feePool().notifyPTokenAmount(account, amount);\n    }\n\n    function redeem(address account, uint256 amount)\n        external\n        override\n        onlyBoringDAO\n    {\n        require(\n            ppTokenERC20().balanceOf(account) >= amount,\n            \"Tunnel::redeem: not enough pledge provider token\"\n        );\n        require(borPledgeInfo[account] >= amount, \"Tunnel:redeem: Not enough bor amount\");\n        require(lockInfo[account].length <= redeemLockTxLimit, \"Tunnel::redeem: A user can only redeem at most five redeem, try again after extraction\");\n        borPledgeInfo[account] = borPledgeInfo[account].sub(amount);\n        // send fee and burn ptoken\n        // pledge token and fee\n        // burn ptoken and tansfer back BOR\n        lock(account, amount, block.timestamp.add(lockDuration));\n        ppTokenMintBurn().burn(account, amount);\n        feePool().withdraw(account, amount);\n    }\n\n    function lock(address account, uint amount, uint unlockTime) internal {\n        lockInfo[account].push(LockAmount(unlockTime, amount));\n    }\n\n    function withdrawUnlock() public {\n        uint unlock;\n        uint  i = 0;\n        while (i!=lockInfo[msg.sender].length) {\n            if (block.timestamp >= lockInfo[msg.sender][i].unlockTime) {\n                unlock = unlock.add(lockInfo[msg.sender][i].amount);\n                lockInfo[msg.sender][i] = lockInfo[msg.sender][lockInfo[msg.sender].length.sub(1)];\n                lockInfo[msg.sender].pop();\n            } else {\n                i++;\n            }\n        }\n        if (unlock > 0 ) {\n            totalPledgeBOR = totalPledgeBOR.sub(unlock);\n            borERC20().transfer(msg.sender, unlock);\n        }\n    }\n\n\n    // when approved then issue\n    function issue(address account, uint256 amount)\n        external\n        override\n        onlyBoringDAO\n    {\n        //network fee\n        uint networkFee = paramBook().params2(tunnelKey, NETWORK_FEE);\n        // calculate fee\n        uint256 mintFeeRation = getRate(MINT_FEE);\n        uint256 mintFeeAmount = amount.multiplyDecimal(mintFeeRation);\n        uint256 mintAmount = amount.sub(mintFeeAmount).sub(networkFee);\n        otokenMintBurn().mint(account, mintAmount);\n        // handle fee\n        // trustee fee\n        uint256 mintFeeTrusteeRatio = getRate(MINT_FEE_TRUSTEE);\n        uint256 mintFeeTrusteeAmount = mintFeeAmount.multiplyDecimal(mintFeeTrusteeRatio).add(networkFee);\n        otokenMintBurn().mint(address(trusteeFeePool()), mintFeeTrusteeAmount);\n        trusteeFeePool().notifyReward(mintFeeTrusteeAmount);\n\n        // fee to pledger\n        uint256 mintFeePledgerRation = getRate(MINT_FEE_PLEDGER);\n        uint256 mintFeePledgerAmount = mintFeeAmount.multiplyDecimal(\n            mintFeePledgerRation\n        );\n        address feePoolAddress = address(feePool());\n        otokenMintBurn().mint(feePoolAddress, mintFeePledgerAmount);\n        feePool().notifyBTokenFeeAmount(mintFeePledgerAmount);\n\n\n        // to developer team\n        uint256 mintFeeDevRation = getRate(MINT_FEE_DEV);\n        uint256 mintFeeDevAmount = mintFeeAmount.multiplyDecimal(\n            mintFeeDevRation\n        );\n        address devAddress = addrResolver.key2address(DEV_ADDRESS);\n\n        otokenMintBurn().mint(devAddress, mintFeeDevAmount);\n    }\n\n\n    function burn(address account, uint256 amount, string memory assetAddress) external override onlyBoringDAO{\n        require(amount>=burnMiniLimit, \"Tunnel::burn: the amount too small\");\n        uint256 burnFeeAmountBToken = amount.multiplyDecimal(getRate(BURN_FEE));\n        // convert to bor amount\n        uint burnFeeAmount = oracle().getPrice(tunnelKey).multiplyDecimal(burnFeeAmountBToken).divideDecimal(oracle().getPrice(BOR));\n\n        // insurance apart\n        address insurancePoolAddress = addrResolver.key2address(INSURANCE_POOL);\n        uint256 burnFeeAmountInsurance = burnFeeAmount.multiplyDecimal(\n            getRate(BURN_FEE_INSURANCE)\n        );\n\n\n        // pledger apart\n        uint256 burnFeeAmountPledger = burnFeeAmount.multiplyDecimal(\n            getRate(BURN_FEE_PLEDGER)\n        );\n        borERC20().transferFrom(\n            account,\n            insurancePoolAddress,\n            burnFeeAmountInsurance\n        );\n        //fee to feepool\n        borERC20().transferFrom(\n            account,\n            address(feePool()),\n            burnFeeAmountPledger\n        );\n        feePool().notifyBORFeeAmount(burnFeeAmountPledger);\n        // otoken burn\n        otokenMintBurn().burn(account, amount);\n        emit BurnOToken(\n            account,\n            amount,\n            boringDAO().getRandomTrustee(),\n            assetAddress\n        );\n    }\n\n    function totalTVL() public view returns(uint) {\n        uint256 borTVL = totalValuePledge();\n        uint satelliteTVL = satellitePoolFactory().satelliteTVL();\n        return borTVL.add(satelliteTVL);\n    }\n    \n    function pledgeRatio() public view returns(uint) {\n        uint tvl = totalTVL();\n        uint btokenValue = otokenERC20().totalSupply().multiplyDecimal(oracle().getPrice(tunnelKey));\n        // todo\n        if (btokenValue == 0) {\n            return 0;\n        }\n        return tvl.divideDecimal(btokenValue);\n    }\n\n    function canIssueAmount() external override view returns (uint256) {\n        // satellite pool tvl\n        uint total = totalTVL();\n        uint256 pledgeRate = paramBook().params2(tunnelKey, PLEDGE_RATE);\n        uint256 canIssueValue = total.divideDecimal(pledgeRate);\n        uint256 tunnelKeyPrice = oracle().getPrice(tunnelKey);\n        return canIssueValue.divideDecimal(tunnelKeyPrice);\n    }\n\n    function unpause() public returns (bool) {\n        if (totalPledgeBOR >= 3000e18) {\n            _unpause();\n        } \n        return paused();\n    }\n\n    modifier onlyBoringDAO {\n        require(msg.sender == addrResolver.key2address(BORINGDAO));\n        _;\n    }\n\n    event BurnOToken(\n        address indexed account,\n        uint256 amount,\n        address proposer,\n        string assetAddress\n    );\n}\n",
  "sourcePath": "D:/workspace/sol/boring-contracts/contracts/Tunnel.sol",
  "compiler": {
    "name": "solc",
    "version": "0.6.12+commit.27d51765.Emscripten.clang"
  },
  "schemaVersion": "3.2.4",
  "updatedAt": "2020-11-08T15:42:44.729Z",
  "networkType": "ethereum",
  "devdoc": {
    "kind": "dev",
    "methods": {
      "owner()": {
        "details": "Returns the address of the current owner."
      },
      "paused()": {
        "details": "Returns true if the contract is paused, and false otherwise."
      },
      "renounceOwnership()": {
        "details": "Leaves the contract without owner. It will not be possible to call `onlyOwner` functions anymore. Can only be called by the current owner. NOTE: Renouncing ownership will leave the contract without an owner, thereby removing any functionality that is only available to the owner."
      },
      "transferOwnership(address)": {
        "details": "Transfers ownership of the contract to a new account (`newOwner`). Can only be called by the current owner."
      }
    },
    "version": 1
  },
  "userdoc": {
    "kind": "user",
    "methods": {},
    "version": 1
  }
}