{
  "_format": "hh-sol-artifact-1",
  "contractName": "TwoWayCenter",
  "sourceName": "contracts/twowayV2/TwoWayCenter.sol",
  "abi": [
    {
      "inputs": [],
      "stateMutability": "nonpayable",
      "type": "constructor"
    },
    {
      "anonymous": false,
      "inputs": [
        {
          "indexed": false,
          "internalType": "address",
          "name": "previousAdmin",
          "type": "address"
        },
        {
          "indexed": false,
          "internalType": "address",
          "name": "newAdmin",
          "type": "address"
        }
      ],
      "name": "AdminChanged",
      "type": "event"
    },
    {
      "anonymous": false,
      "inputs": [
        {
          "indexed": true,
          "internalType": "address",
          "name": "beacon",
          "type": "address"
        }
      ],
      "name": "BeaconUpgraded",
      "type": "event"
    },
    {
      "anonymous": false,
      "inputs": [
        {
          "components": [
            {
              "internalType": "uint256",
              "name": "fromChainId",
              "type": "uint256"
            },
            {
              "internalType": "address",
              "name": "fromToken",
              "type": "address"
            },
            {
              "internalType": "address",
              "name": "from",
              "type": "address"
            },
            {
              "internalType": "uint256",
              "name": "toChainId",
              "type": "uint256"
            },
            {
              "internalType": "address",
              "name": "toToken",
              "type": "address"
            },
            {
              "internalType": "address",
              "name": "to",
              "type": "address"
            },
            {
              "internalType": "uint256",
              "name": "amount",
              "type": "uint256"
            }
          ],
          "indexed": false,
          "internalType": "struct InParam",
          "name": "p",
          "type": "tuple"
        }
      ],
      "name": "CrossInFailed",
      "type": "event"
    },
    {
      "anonymous": false,
      "inputs": [
        {
          "components": [
            {
              "internalType": "uint256",
              "name": "fromChainId",
              "type": "uint256"
            },
            {
              "internalType": "address",
              "name": "fromToken",
              "type": "address"
            },
            {
              "internalType": "address",
              "name": "from",
              "type": "address"
            },
            {
              "internalType": "uint256",
              "name": "toChainId",
              "type": "uint256"
            },
            {
              "internalType": "address",
              "name": "toToken",
              "type": "address"
            },
            {
              "internalType": "address",
              "name": "to",
              "type": "address"
            },
            {
              "internalType": "uint256",
              "name": "amount",
              "type": "uint256"
            }
          ],
          "indexed": false,
          "internalType": "struct InParam",
          "name": "p",
          "type": "tuple"
        }
      ],
      "name": "CrossIned",
      "type": "event"
    },
    {
      "anonymous": false,
      "inputs": [
        {
          "components": [
            {
              "internalType": "uint256",
              "name": "fromChainId",
              "type": "uint256"
            },
            {
              "internalType": "address",
              "name": "fromToken",
              "type": "address"
            },
            {
              "internalType": "address",
              "name": "from",
              "type": "address"
            },
            {
              "internalType": "uint256",
              "name": "toChainId",
              "type": "uint256"
            },
            {
              "internalType": "address",
              "name": "toToken",
              "type": "address"
            },
            {
              "internalType": "address",
              "name": "to",
              "type": "address"
            },
            {
              "internalType": "uint256",
              "name": "amount",
              "type": "uint256"
            }
          ],
          "indexed": false,
          "internalType": "struct InParam",
          "name": "p",
          "type": "tuple"
        }
      ],
      "name": "CrossOuted",
      "type": "event"
    },
    {
      "anonymous": false,
      "inputs": [
        {
          "indexed": false,
          "internalType": "uint256",
          "name": "fromChainId",
          "type": "uint256"
        },
        {
          "indexed": false,
          "internalType": "address",
          "name": "fromToken",
          "type": "address"
        },
        {
          "indexed": false,
          "internalType": "address",
          "name": "from",
          "type": "address"
        },
        {
          "indexed": false,
          "internalType": "uint256",
          "name": "amount",
          "type": "uint256"
        }
      ],
      "name": "Deposited",
      "type": "event"
    },
    {
      "anonymous": false,
      "inputs": [
        {
          "components": [
            {
              "internalType": "uint256",
              "name": "fromChainId",
              "type": "uint256"
            },
            {
              "internalType": "address",
              "name": "fromToken",
              "type": "address"
            },
            {
              "internalType": "address",
              "name": "from",
              "type": "address"
            },
            {
              "internalType": "uint256",
              "name": "toChainId",
              "type": "uint256"
            },
            {
              "internalType": "address",
              "name": "toToken",
              "type": "address"
            },
            {
              "internalType": "address",
              "name": "to",
              "type": "address"
            },
            {
              "internalType": "uint256",
              "name": "amount",
              "type": "uint256"
            }
          ],
          "indexed": false,
          "internalType": "struct InParam",
          "name": "p",
          "type": "tuple"
        }
      ],
      "name": "ForwardCrossOutFailed",
      "type": "event"
    },
    {
      "anonymous": false,
      "inputs": [
        {
          "components": [
            {
              "internalType": "uint256",
              "name": "fromChainId",
              "type": "uint256"
            },
            {
              "internalType": "address",
              "name": "fromToken",
              "type": "address"
            },
            {
              "internalType": "address",
              "name": "from",
              "type": "address"
            },
            {
              "internalType": "uint256",
              "name": "toChainId",
              "type": "uint256"
            },
            {
              "internalType": "address",
              "name": "toToken",
              "type": "address"
            },
            {
              "internalType": "address",
              "name": "to",
              "type": "address"
            },
            {
              "internalType": "uint256",
              "name": "amount",
              "type": "uint256"
            }
          ],
          "indexed": false,
          "internalType": "struct InParam",
          "name": "p",
          "type": "tuple"
        }
      ],
      "name": "ForwardCrossOuted",
      "type": "event"
    },
    {
      "anonymous": false,
      "inputs": [
        {
          "components": [
            {
              "internalType": "uint256",
              "name": "fromChainId",
              "type": "uint256"
            },
            {
              "internalType": "address",
              "name": "fromToken",
              "type": "address"
            },
            {
              "internalType": "address",
              "name": "from",
              "type": "address"
            },
            {
              "internalType": "uint256",
              "name": "toChainId",
              "type": "uint256"
            },
            {
              "internalType": "address",
              "name": "toToken",
              "type": "address"
            },
            {
              "internalType": "address",
              "name": "to",
              "type": "address"
            },
            {
              "internalType": "uint256",
              "name": "amount",
              "type": "uint256"
            }
          ],
          "indexed": false,
          "internalType": "struct InParam",
          "name": "p",
          "type": "tuple"
        }
      ],
      "name": "Issued",
      "type": "event"
    },
    {
      "anonymous": false,
      "inputs": [
        {
          "indexed": false,
          "internalType": "address",
          "name": "token",
          "type": "address"
        },
        {
          "indexed": false,
          "internalType": "address",
          "name": "from",
          "type": "address"
        },
        {
          "indexed": false,
          "internalType": "address",
          "name": "to",
          "type": "address"
        },
        {
          "indexed": false,
          "internalType": "uint256",
          "name": "amount",
          "type": "uint256"
        },
        {
          "indexed": false,
          "internalType": "address",
          "name": "proposer",
          "type": "address"
        },
        {
          "indexed": false,
          "internalType": "uint256",
          "name": "count",
          "type": "uint256"
        },
        {
          "indexed": false,
          "internalType": "uint256",
          "name": "threshold",
          "type": "uint256"
        }
      ],
      "name": "ProposalVoted",
      "type": "event"
    },
    {
      "anonymous": false,
      "inputs": [
        {
          "indexed": true,
          "internalType": "bytes32",
          "name": "role",
          "type": "bytes32"
        },
        {
          "indexed": true,
          "internalType": "bytes32",
          "name": "previousAdminRole",
          "type": "bytes32"
        },
        {
          "indexed": true,
          "internalType": "bytes32",
          "name": "newAdminRole",
          "type": "bytes32"
        }
      ],
      "name": "RoleAdminChanged",
      "type": "event"
    },
    {
      "anonymous": false,
      "inputs": [
        {
          "indexed": true,
          "internalType": "bytes32",
          "name": "role",
          "type": "bytes32"
        },
        {
          "indexed": true,
          "internalType": "address",
          "name": "account",
          "type": "address"
        },
        {
          "indexed": true,
          "internalType": "address",
          "name": "sender",
          "type": "address"
        }
      ],
      "name": "RoleGranted",
      "type": "event"
    },
    {
      "anonymous": false,
      "inputs": [
        {
          "indexed": true,
          "internalType": "bytes32",
          "name": "role",
          "type": "bytes32"
        },
        {
          "indexed": true,
          "internalType": "address",
          "name": "account",
          "type": "address"
        },
        {
          "indexed": true,
          "internalType": "address",
          "name": "sender",
          "type": "address"
        }
      ],
      "name": "RoleRevoked",
      "type": "event"
    },
    {
      "anonymous": false,
      "inputs": [
        {
          "indexed": false,
          "internalType": "address",
          "name": "oToken",
          "type": "address"
        }
      ],
      "name": "StakingRewardReseted",
      "type": "event"
    },
    {
      "anonymous": false,
      "inputs": [
        {
          "indexed": false,
          "internalType": "address",
          "name": "token",
          "type": "address"
        },
        {
          "indexed": false,
          "internalType": "uint256",
          "name": "chainId",
          "type": "uint256"
        },
        {
          "indexed": false,
          "internalType": "bool",
          "name": "status",
          "type": "bool"
        }
      ],
      "name": "Supported",
      "type": "event"
    },
    {
      "anonymous": false,
      "inputs": [
        {
          "indexed": false,
          "internalType": "address",
          "name": "token",
          "type": "address"
        },
        {
          "indexed": false,
          "internalType": "uint256",
          "name": "oldThreshold",
          "type": "uint256"
        },
        {
          "indexed": false,
          "internalType": "uint256",
          "name": "newThreshold",
          "type": "uint256"
        }
      ],
      "name": "ThresholdChanged",
      "type": "event"
    },
    {
      "anonymous": false,
      "inputs": [
        {
          "indexed": true,
          "internalType": "address",
          "name": "implementation",
          "type": "address"
        }
      ],
      "name": "Upgraded",
      "type": "event"
    },
    {
      "anonymous": false,
      "inputs": [
        {
          "components": [
            {
              "internalType": "uint256",
              "name": "fromChainId",
              "type": "uint256"
            },
            {
              "internalType": "address",
              "name": "fromToken",
              "type": "address"
            },
            {
              "internalType": "address",
              "name": "from",
              "type": "address"
            },
            {
              "internalType": "uint256",
              "name": "toChainId",
              "type": "uint256"
            },
            {
              "internalType": "address",
              "name": "toToken",
              "type": "address"
            },
            {
              "internalType": "address",
              "name": "to",
              "type": "address"
            },
            {
              "internalType": "uint256",
              "name": "amount",
              "type": "uint256"
            }
          ],
          "indexed": false,
          "internalType": "struct InParam",
          "name": "p",
          "type": "tuple"
        }
      ],
      "name": "Withdrawed",
      "type": "event"
    },
    {
      "anonymous": false,
      "inputs": [
        {
          "components": [
            {
              "internalType": "uint256",
              "name": "fromChainId",
              "type": "uint256"
            },
            {
              "internalType": "address",
              "name": "fromToken",
              "type": "address"
            },
            {
              "internalType": "address",
              "name": "from",
              "type": "address"
            },
            {
              "internalType": "uint256",
              "name": "toChainId",
              "type": "uint256"
            },
            {
              "internalType": "address",
              "name": "toToken",
              "type": "address"
            },
            {
              "internalType": "address",
              "name": "to",
              "type": "address"
            },
            {
              "internalType": "uint256",
              "name": "amount",
              "type": "uint256"
            }
          ],
          "indexed": false,
          "internalType": "struct InParam",
          "name": "p",
          "type": "tuple"
        }
      ],
      "name": "WithdrawedToCenter",
      "type": "event"
    },
    {
      "inputs": [],
      "name": "DEFAULT_ADMIN_ROLE",
      "outputs": [
        {
          "internalType": "bytes32",
          "name": "",
          "type": "bytes32"
        }
      ],
      "stateMutability": "view",
      "type": "function"
    },
    {
      "inputs": [],
      "name": "UPGRADER_ROLE",
      "outputs": [
        {
          "internalType": "bytes32",
          "name": "",
          "type": "bytes32"
        }
      ],
      "stateMutability": "view",
      "type": "function"
    },
    {
      "inputs": [
        {
          "internalType": "address",
          "name": "_centerToken",
          "type": "address"
        },
        {
          "internalType": "uint256",
          "name": "_edgeChainId",
          "type": "uint256"
        },
        {
          "internalType": "address",
          "name": "_edgeToken",
          "type": "address"
        }
      ],
      "name": "addToken",
      "outputs": [],
      "stateMutability": "nonpayable",
      "type": "function"
    },
    {
      "inputs": [
        {
          "internalType": "address",
          "name": "oToken",
          "type": "address"
        },
        {
          "internalType": "uint256",
          "name": "toChainId",
          "type": "uint256"
        },
        {
          "internalType": "uint256",
          "name": "amount",
          "type": "uint256"
        }
      ],
      "name": "calculateFee",
      "outputs": [
        {
          "internalType": "uint256",
          "name": "fixAmount",
          "type": "uint256"
        },
        {
          "internalType": "uint256",
          "name": "ratioAmount",
          "type": "uint256"
        },
        {
          "internalType": "uint256",
          "name": "remainAmount",
          "type": "uint256"
        }
      ],
      "stateMutability": "view",
      "type": "function"
    },
    {
      "inputs": [
        {
          "internalType": "address",
          "name": "oToken",
          "type": "address"
        },
        {
          "internalType": "uint256",
          "name": "fromChainId",
          "type": "uint256"
        },
        {
          "internalType": "uint256",
          "name": "amount",
          "type": "uint256"
        }
      ],
      "name": "calculateReward",
      "outputs": [
        {
          "internalType": "uint256",
          "name": "_reward",
          "type": "uint256"
        }
      ],
      "stateMutability": "view",
      "type": "function"
    },
    {
      "inputs": [],
      "name": "chainId",
      "outputs": [
        {
          "internalType": "uint256",
          "name": "",
          "type": "uint256"
        }
      ],
      "stateMutability": "view",
      "type": "function"
    },
    {
      "inputs": [
        {
          "components": [
            {
              "internalType": "uint256",
              "name": "fromChainId",
              "type": "uint256"
            },
            {
              "internalType": "address",
              "name": "fromToken",
              "type": "address"
            },
            {
              "internalType": "address",
              "name": "from",
              "type": "address"
            },
            {
              "internalType": "uint256",
              "name": "toChainId",
              "type": "uint256"
            },
            {
              "internalType": "address",
              "name": "to",
              "type": "address"
            },
            {
              "internalType": "uint256",
              "name": "amount",
              "type": "uint256"
            }
          ],
          "internalType": "struct OutParam",
          "name": "p",
          "type": "tuple"
        },
        {
          "internalType": "string",
          "name": "txid",
          "type": "string"
        }
      ],
      "name": "crossIn",
      "outputs": [],
      "stateMutability": "nonpayable",
      "type": "function"
    },
    {
      "inputs": [
        {
          "internalType": "address",
          "name": "fromToken",
          "type": "address"
        },
        {
          "internalType": "uint256",
          "name": "toChainId",
          "type": "uint256"
        },
        {
          "internalType": "address",
          "name": "to",
          "type": "address"
        },
        {
          "internalType": "uint256",
          "name": "amount",
          "type": "uint256"
        }
      ],
      "name": "crossOut",
      "outputs": [],
      "stateMutability": "payable",
      "type": "function"
    },
    {
      "inputs": [
        {
          "internalType": "address",
          "name": "",
          "type": "address"
        }
      ],
      "name": "decimalDiff",
      "outputs": [
        {
          "internalType": "uint256",
          "name": "",
          "type": "uint256"
        }
      ],
      "stateMutability": "view",
      "type": "function"
    },
    {
      "inputs": [
        {
          "internalType": "address",
          "name": "token",
          "type": "address"
        },
        {
          "internalType": "uint256",
          "name": "amount",
          "type": "uint256"
        }
      ],
      "name": "deposit",
      "outputs": [],
      "stateMutability": "payable",
      "type": "function"
    },
    {
      "inputs": [
        {
          "internalType": "uint256",
          "name": "",
          "type": "uint256"
        },
        {
          "internalType": "uint256",
          "name": "",
          "type": "uint256"
        }
      ],
      "name": "eventHeights0",
      "outputs": [
        {
          "internalType": "uint256",
          "name": "",
          "type": "uint256"
        }
      ],
      "stateMutability": "view",
      "type": "function"
    },
    {
      "inputs": [
        {
          "internalType": "uint256",
          "name": "",
          "type": "uint256"
        }
      ],
      "name": "eventHeights1",
      "outputs": [
        {
          "internalType": "uint256",
          "name": "",
          "type": "uint256"
        }
      ],
      "stateMutability": "view",
      "type": "function"
    },
    {
      "inputs": [
        {
          "internalType": "uint256",
          "name": "",
          "type": "uint256"
        }
      ],
      "name": "eventIndex0",
      "outputs": [
        {
          "internalType": "uint256",
          "name": "",
          "type": "uint256"
        }
      ],
      "stateMutability": "view",
      "type": "function"
    },
    {
      "inputs": [],
      "name": "eventIndex1",
      "outputs": [
        {
          "internalType": "uint256",
          "name": "",
          "type": "uint256"
        }
      ],
      "stateMutability": "view",
      "type": "function"
    },
    {
      "inputs": [],
      "name": "feeTo",
      "outputs": [
        {
          "internalType": "address",
          "name": "",
          "type": "address"
        }
      ],
      "stateMutability": "view",
      "type": "function"
    },
    {
      "inputs": [
        {
          "internalType": "address",
          "name": "",
          "type": "address"
        }
      ],
      "name": "feeToTreasuryRatio",
      "outputs": [
        {
          "internalType": "uint256",
          "name": "",
          "type": "uint256"
        }
      ],
      "stateMutability": "view",
      "type": "function"
    },
    {
      "inputs": [
        {
          "internalType": "address",
          "name": "",
          "type": "address"
        },
        {
          "internalType": "uint256",
          "name": "",
          "type": "uint256"
        }
      ],
      "name": "fixFees",
      "outputs": [
        {
          "internalType": "uint256",
          "name": "",
          "type": "uint256"
        }
      ],
      "stateMutability": "view",
      "type": "function"
    },
    {
      "inputs": [
        {
          "components": [
            {
              "internalType": "uint256",
              "name": "fromChainId",
              "type": "uint256"
            },
            {
              "internalType": "address",
              "name": "fromToken",
              "type": "address"
            },
            {
              "internalType": "address",
              "name": "from",
              "type": "address"
            },
            {
              "internalType": "uint256",
              "name": "toChainId",
              "type": "uint256"
            },
            {
              "internalType": "address",
              "name": "to",
              "type": "address"
            },
            {
              "internalType": "uint256",
              "name": "amount",
              "type": "uint256"
            }
          ],
          "internalType": "struct OutParam",
          "name": "p",
          "type": "tuple"
        },
        {
          "internalType": "string",
          "name": "txid",
          "type": "string"
        }
      ],
      "name": "forwardCrossOut",
      "outputs": [],
      "stateMutability": "nonpayable",
      "type": "function"
    },
    {
      "inputs": [],
      "name": "getMsgSender",
      "outputs": [
        {
          "internalType": "address",
          "name": "",
          "type": "address"
        },
        {
          "internalType": "address",
          "name": "",
          "type": "address"
        }
      ],
      "stateMutability": "view",
      "type": "function"
    },
    {
      "inputs": [
        {
          "internalType": "bytes32",
          "name": "role",
          "type": "bytes32"
        }
      ],
      "name": "getRoleAdmin",
      "outputs": [
        {
          "internalType": "bytes32",
          "name": "",
          "type": "bytes32"
        }
      ],
      "stateMutability": "view",
      "type": "function"
    },
    {
      "inputs": [
        {
          "internalType": "address",
          "name": "toToken",
          "type": "address"
        }
      ],
      "name": "getRoleKey",
      "outputs": [
        {
          "internalType": "bytes32",
          "name": "key",
          "type": "bytes32"
        }
      ],
      "stateMutability": "pure",
      "type": "function"
    },
    {
      "inputs": [
        {
          "internalType": "bytes32",
          "name": "role",
          "type": "bytes32"
        },
        {
          "internalType": "address",
          "name": "account",
          "type": "address"
        }
      ],
      "name": "grantRole",
      "outputs": [],
      "stateMutability": "nonpayable",
      "type": "function"
    },
    {
      "inputs": [
        {
          "internalType": "bytes32",
          "name": "role",
          "type": "bytes32"
        },
        {
          "internalType": "address",
          "name": "account",
          "type": "address"
        }
      ],
      "name": "hasRole",
      "outputs": [
        {
          "internalType": "bool",
          "name": "",
          "type": "bool"
        }
      ],
      "stateMutability": "view",
      "type": "function"
    },
    {
      "inputs": [
        {
          "internalType": "uint256",
          "name": "_chainId",
          "type": "uint256"
        },
        {
          "internalType": "address",
          "name": "_feeTo",
          "type": "address"
        },
        {
          "internalType": "address",
          "name": "_treasuryTo",
          "type": "address"
        }
      ],
      "name": "initialize",
      "outputs": [],
      "stateMutability": "nonpayable",
      "type": "function"
    },
    {
      "inputs": [],
      "name": "isClosed",
      "outputs": [
        {
          "internalType": "bool",
          "name": "",
          "type": "bool"
        }
      ],
      "stateMutability": "view",
      "type": "function"
    },
    {
      "inputs": [
        {
          "internalType": "address",
          "name": "",
          "type": "address"
        }
      ],
      "name": "isCoin",
      "outputs": [
        {
          "internalType": "bool",
          "name": "",
          "type": "bool"
        }
      ],
      "stateMutability": "view",
      "type": "function"
    },
    {
      "inputs": [
        {
          "internalType": "address",
          "name": "",
          "type": "address"
        },
        {
          "internalType": "address",
          "name": "",
          "type": "address"
        }
      ],
      "name": "isInWhilelist",
      "outputs": [
        {
          "internalType": "bool",
          "name": "",
          "type": "bool"
        }
      ],
      "stateMutability": "view",
      "type": "function"
    },
    {
      "inputs": [
        {
          "components": [
            {
              "internalType": "uint256",
              "name": "fromChainId",
              "type": "uint256"
            },
            {
              "internalType": "address",
              "name": "fromToken",
              "type": "address"
            },
            {
              "internalType": "address",
              "name": "from",
              "type": "address"
            },
            {
              "internalType": "uint256",
              "name": "toChainId",
              "type": "uint256"
            },
            {
              "internalType": "address",
              "name": "toToken",
              "type": "address"
            },
            {
              "internalType": "address",
              "name": "to",
              "type": "address"
            },
            {
              "internalType": "uint256",
              "name": "amount",
              "type": "uint256"
            }
          ],
          "internalType": "struct InParam",
          "name": "p",
          "type": "tuple"
        },
        {
          "internalType": "string",
          "name": "txid",
          "type": "string"
        }
      ],
      "name": "issue",
      "outputs": [],
      "stateMutability": "nonpayable",
      "type": "function"
    },
    {
      "inputs": [
        {
          "internalType": "address",
          "name": "",
          "type": "address"
        },
        {
          "internalType": "uint256",
          "name": "",
          "type": "uint256"
        }
      ],
      "name": "lockBalances",
      "outputs": [
        {
          "internalType": "uint256",
          "name": "",
          "type": "uint256"
        }
      ],
      "stateMutability": "view",
      "type": "function"
    },
    {
      "inputs": [
        {
          "internalType": "address",
          "name": "",
          "type": "address"
        },
        {
          "internalType": "uint256",
          "name": "",
          "type": "uint256"
        }
      ],
      "name": "ratioFeesHigh",
      "outputs": [
        {
          "internalType": "uint256",
          "name": "",
          "type": "uint256"
        }
      ],
      "stateMutability": "view",
      "type": "function"
    },
    {
      "inputs": [
        {
          "internalType": "address",
          "name": "",
          "type": "address"
        },
        {
          "internalType": "uint256",
          "name": "",
          "type": "uint256"
        }
      ],
      "name": "ratioFeesLow",
      "outputs": [
        {
          "internalType": "uint256",
          "name": "",
          "type": "uint256"
        }
      ],
      "stateMutability": "view",
      "type": "function"
    },
    {
      "inputs": [
        {
          "internalType": "address",
          "name": "",
          "type": "address"
        },
        {
          "internalType": "uint256",
          "name": "",
          "type": "uint256"
        }
      ],
      "name": "ratioFeesMedium",
      "outputs": [
        {
          "internalType": "uint256",
          "name": "",
          "type": "uint256"
        }
      ],
      "stateMutability": "view",
      "type": "function"
    },
    {
      "inputs": [
        {
          "internalType": "address",
          "name": "",
          "type": "address"
        }
      ],
      "name": "remainHigh",
      "outputs": [
        {
          "internalType": "uint256",
          "name": "",
          "type": "uint256"
        }
      ],
      "stateMutability": "view",
      "type": "function"
    },
    {
      "inputs": [
        {
          "internalType": "address",
          "name": "",
          "type": "address"
        }
      ],
      "name": "remainLow",
      "outputs": [
        {
          "internalType": "uint256",
          "name": "",
          "type": "uint256"
        }
      ],
      "stateMutability": "view",
      "type": "function"
    },
    {
      "inputs": [
        {
          "internalType": "address",
          "name": "_centerToken",
          "type": "address"
        },
        {
          "internalType": "uint256",
          "name": "_edgeChainId",
          "type": "uint256"
        },
        {
          "internalType": "address",
          "name": "_edgeToken",
          "type": "address"
        }
      ],
      "name": "removeToken",
      "outputs": [],
      "stateMutability": "nonpayable",
      "type": "function"
    },
    {
      "inputs": [
        {
          "internalType": "bytes32",
          "name": "role",
          "type": "bytes32"
        },
        {
          "internalType": "address",
          "name": "account",
          "type": "address"
        }
      ],
      "name": "renounceRole",
      "outputs": [],
      "stateMutability": "nonpayable",
      "type": "function"
    },
    {
      "inputs": [
        {
          "internalType": "address",
          "name": "_oToken",
          "type": "address"
        }
      ],
      "name": "resetStakingReward",
      "outputs": [],
      "stateMutability": "nonpayable",
      "type": "function"
    },
    {
      "inputs": [
        {
          "internalType": "bytes32",
          "name": "role",
          "type": "bytes32"
        },
        {
          "internalType": "address",
          "name": "account",
          "type": "address"
        }
      ],
      "name": "revokeRole",
      "outputs": [],
      "stateMutability": "nonpayable",
      "type": "function"
    },
    {
      "inputs": [
        {
          "internalType": "address",
          "name": "",
          "type": "address"
        }
      ],
      "name": "rewardRatio",
      "outputs": [
        {
          "internalType": "uint256",
          "name": "",
          "type": "uint256"
        }
      ],
      "stateMutability": "view",
      "type": "function"
    },
    {
      "inputs": [
        {
          "internalType": "address",
          "name": "token",
          "type": "address"
        },
        {
          "internalType": "uint256[]",
          "name": "toChainIds",
          "type": "uint256[]"
        },
        {
          "internalType": "uint256[]",
          "name": "_fixFees",
          "type": "uint256[]"
        },
        {
          "internalType": "uint256[]",
          "name": "_ratioFeesHigh",
          "type": "uint256[]"
        },
        {
          "internalType": "uint256[]",
          "name": "_ratioFeesMedium",
          "type": "uint256[]"
        },
        {
          "internalType": "uint256[]",
          "name": "_ratioFeesLow",
          "type": "uint256[]"
        },
        {
          "internalType": "uint256[]",
          "name": "_remains",
          "type": "uint256[]"
        }
      ],
      "name": "setFee",
      "outputs": [],
      "stateMutability": "nonpayable",
      "type": "function"
    },
    {
      "inputs": [
        {
          "internalType": "address",
          "name": "_feeTo",
          "type": "address"
        }
      ],
      "name": "setFeeTo",
      "outputs": [],
      "stateMutability": "nonpayable",
      "type": "function"
    },
    {
      "inputs": [
        {
          "internalType": "address",
          "name": "_oToken",
          "type": "address"
        },
        {
          "internalType": "uint256",
          "name": "_ratio",
          "type": "uint256"
        }
      ],
      "name": "setFeeToTreasuryRatio",
      "outputs": [],
      "stateMutability": "nonpayable",
      "type": "function"
    },
    {
      "inputs": [
        {
          "internalType": "address",
          "name": "token",
          "type": "address"
        },
        {
          "internalType": "bool",
          "name": "_isCoin",
          "type": "bool"
        }
      ],
      "name": "setIsCoin",
      "outputs": [],
      "stateMutability": "nonpayable",
      "type": "function"
    },
    {
      "inputs": [
        {
          "internalType": "address",
          "name": "_oToken",
          "type": "address"
        },
        {
          "internalType": "uint256",
          "name": "_ratio",
          "type": "uint256"
        }
      ],
      "name": "setRewardRatio",
      "outputs": [],
      "stateMutability": "nonpayable",
      "type": "function"
    },
    {
      "inputs": [
        {
          "internalType": "address[]",
          "name": "oTokens",
          "type": "address[]"
        },
        {
          "internalType": "address[]",
          "name": "_srs",
          "type": "address[]"
        }
      ],
      "name": "setStakingRewards",
      "outputs": [],
      "stateMutability": "nonpayable",
      "type": "function"
    },
    {
      "inputs": [
        {
          "internalType": "address",
          "name": "token0",
          "type": "address"
        },
        {
          "internalType": "uint256",
          "name": "_threshold",
          "type": "uint256"
        }
      ],
      "name": "setThreshold",
      "outputs": [],
      "stateMutability": "nonpayable",
      "type": "function"
    },
    {
      "inputs": [
        {
          "internalType": "address",
          "name": "_treasuryTo",
          "type": "address"
        }
      ],
      "name": "setTreasuryTo",
      "outputs": [],
      "stateMutability": "nonpayable",
      "type": "function"
    },
    {
      "inputs": [
        {
          "internalType": "address",
          "name": "oToken",
          "type": "address"
        },
        {
          "internalType": "address",
          "name": "user",
          "type": "address"
        },
        {
          "internalType": "bool",
          "name": "_isInWhitelist",
          "type": "bool"
        }
      ],
      "name": "setWhitelist",
      "outputs": [],
      "stateMutability": "nonpayable",
      "type": "function"
    },
    {
      "inputs": [],
      "name": "sr",
      "outputs": [
        {
          "internalType": "contract IStakingReward",
          "name": "",
          "type": "address"
        }
      ],
      "stateMutability": "view",
      "type": "function"
    },
    {
      "inputs": [
        {
          "internalType": "address",
          "name": "",
          "type": "address"
        }
      ],
      "name": "srs",
      "outputs": [
        {
          "internalType": "address",
          "name": "",
          "type": "address"
        }
      ],
      "stateMutability": "view",
      "type": "function"
    },
    {
      "inputs": [
        {
          "internalType": "bytes4",
          "name": "interfaceId",
          "type": "bytes4"
        }
      ],
      "name": "supportsInterface",
      "outputs": [
        {
          "internalType": "bool",
          "name": "",
          "type": "bool"
        }
      ],
      "stateMutability": "view",
      "type": "function"
    },
    {
      "inputs": [
        {
          "internalType": "address",
          "name": "",
          "type": "address"
        }
      ],
      "name": "threshold",
      "outputs": [
        {
          "internalType": "uint256",
          "name": "",
          "type": "uint256"
        }
      ],
      "stateMutability": "view",
      "type": "function"
    },
    {
      "inputs": [
        {
          "internalType": "uint256",
          "name": "",
          "type": "uint256"
        },
        {
          "internalType": "address",
          "name": "",
          "type": "address"
        }
      ],
      "name": "toCenterToken",
      "outputs": [
        {
          "internalType": "address",
          "name": "",
          "type": "address"
        }
      ],
      "stateMutability": "view",
      "type": "function"
    },
    {
      "inputs": [
        {
          "internalType": "address",
          "name": "",
          "type": "address"
        },
        {
          "internalType": "uint256",
          "name": "",
          "type": "uint256"
        }
      ],
      "name": "toEdgeToken",
      "outputs": [
        {
          "internalType": "address",
          "name": "",
          "type": "address"
        }
      ],
      "stateMutability": "view",
      "type": "function"
    },
    {
      "inputs": [],
      "name": "treasuryTo",
      "outputs": [
        {
          "internalType": "address",
          "name": "",
          "type": "address"
        }
      ],
      "stateMutability": "view",
      "type": "function"
    },
    {
      "inputs": [
        {
          "internalType": "string",
          "name": "",
          "type": "string"
        }
      ],
      "name": "txHandled",
      "outputs": [
        {
          "internalType": "bool",
          "name": "",
          "type": "bool"
        }
      ],
      "stateMutability": "view",
      "type": "function"
    },
    {
      "inputs": [
        {
          "internalType": "address",
          "name": "newImplementation",
          "type": "address"
        }
      ],
      "name": "upgradeTo",
      "outputs": [],
      "stateMutability": "nonpayable",
      "type": "function"
    },
    {
      "inputs": [
        {
          "internalType": "address",
          "name": "newImplementation",
          "type": "address"
        },
        {
          "internalType": "bytes",
          "name": "data",
          "type": "bytes"
        }
      ],
      "name": "upgradeToAndCall",
      "outputs": [],
      "stateMutability": "payable",
      "type": "function"
    },
    {
      "inputs": [
        {
          "internalType": "address",
          "name": "oToken",
          "type": "address"
        },
        {
          "internalType": "uint256",
          "name": "toChainId",
          "type": "uint256"
        },
        {
          "internalType": "address",
          "name": "to",
          "type": "address"
        },
        {
          "internalType": "uint256",
          "name": "amount",
          "type": "uint256"
        }
      ],
      "name": "withdraw",
      "outputs": [],
      "stateMutability": "nonpayable",
      "type": "function"
    }
  ],
  "bytecode": "0x60a06040523060601b6080523480156200001857600080fd5b50600054610100900460ff168062000033575060005460ff16155b6200009b5760405162461bcd60e51b815260206004820152602e60248201527f496e697469616c697a61626c653a20636f6e747261637420697320616c72656160448201526d191e481a5b9a5d1a585b1a5e995960921b606482015260840160405180910390fd5b600054610100900460ff16158015620000be576000805461ffff19166101011790555b8015620000d1576000805461ff00191690555b5060805160601c6159f66200010660003960008181611a9001528181611ad0015281816126f9015261273901526159f66000f3fe60806040526004361061038c5760003560e01c8063824df449116101dc578063bf81472011610102578063df7e600a116100a0578063f46901ed1161006f578063f46901ed14610c22578063f72c0d8b14610c42578063f88d0a2a14610c76578063fc1aa90914610c9657600080fd5b8063df7e600a14610b66578063e473250014610b79578063ee5f7d9614610bb2578063f3669d8014610beb57600080fd5b8063ced2a7ba116100dc578063ced2a7ba14610ad7578063d547741f14610b05578063d93e76bb14610b25578063df791d8014610b4557600080fd5b8063bf81472014610a61578063c2b6b58c14610a8f578063c86ec2bf14610aaa57600080fd5b8063a217fddf1161017a578063a766a39211610149578063a766a392146109bf578063af437845146109df578063b4988fd0146109ff578063bafd2d1914610a1f57600080fd5b8063a217fddf14610920578063a5886f2d14610935578063a611033e14610955578063a6ba8fc11461098657600080fd5b806397bb15c9116101b657806397bb15c91461088e5780639a8a0592146108ae5780639d879990146108c4578063a07b32c0146108e457600080fd5b8063824df4491461081257806391d148541461084e5780639773a0001461086e57600080fd5b806336568abe116102c157806347e7ef241161025f578063527b0f641161022e578063527b0f641461074957806359ded2d71461078b57806375d47f99146107b95780637a6ce2e1146107f257600080fd5b806347e7ef24146106e35780634b2084e3146106f65780634ba9b352146107165780634f1ef2861461073657600080fd5b80633ff9bb661161029b5780633ff9bb661461063b57806341950ad31461067457806342079671146106945780634297171f146106b557600080fd5b806336568abe146105db5780633659cfe6146105fb5780633ab796e71461061b57600080fd5b806315cd2c701161032e578063248a9ca311610308578063248a9ca31461053d578063260ca4d51461056d5780632c32c3601461059b5780632f2ff15d146105bb57600080fd5b806315cd2c70146104e65780631bdbce49146104fd5780631ca971851461051d57600080fd5b806305e825061161036a57806305e825061461043a5780630826820e1461047657806308b60fb8146104a45780630f4693c6146104c657600080fd5b8063017e7e581461039157806301ffc9a7146103cf5780630324ef9c146103ff575b600080fd5b34801561039d57600080fd5b50610100546103b2906001600160a01b031681565b6040516001600160a01b0390911681526020015b60405180910390f35b3480156103db57600080fd5b506103ef6103ea3660046150f6565b610ccf565b60405190151581526020016103c6565b34801561040b57600080fd5b5061041f61041a366004615010565b610d06565b604080519384526020840192909252908201526060016103c6565b34801561044657600080fd5b506104686104553660046150ba565b6101176020526000908152604090205481565b6040519081526020016103c6565b34801561048257600080fd5b506104686104913660046150ba565b6101146020526000908152604090205481565b3480156104b057600080fd5b506104c46104bf366004614d31565b610ef0565b005b3480156104d257600080fd5b506104c46104e1366004614d31565b610f69565b3480156104f257600080fd5b506104686101165481565b34801561050957600080fd5b506104c4610518366004614d7f565b610fee565b34801561052957600080fd5b506104c4610538366004615205565b6110bb565b34801561054957600080fd5b506104686105583660046150ba565b60009081526065602052604090206001015490565b34801561057957600080fd5b50610468610588366004614d31565b61010d6020526000908152604090205481565b3480156105a757600080fd5b506104686105b6366004615010565b61168c565b3480156105c757600080fd5b506104c46105d63660046150d3565b6119dc565b3480156105e757600080fd5b506104c46105f63660046150d3565b611a07565b34801561060757600080fd5b506104c4610616366004614d31565b611a85565b34801561062757600080fd5b50610468610636366004614d31565b611b4e565b34801561064757600080fd5b50610468610656366004614f66565b61010b60209081526000928352604080842090915290825290205481565b34801561068057600080fd5b506104c461068f366004614f66565b611b8d565b3480156106a057600080fd5b50610101546103b2906001600160a01b031681565b3480156106c157600080fd5b506104686106d0366004614d31565b61010e6020526000908152604090205481565b6104c46106f1366004614f66565b611bd1565b34801561070257600080fd5b506104c4610711366004614fcc565b611e54565b34801561072257600080fd5b506104c4610731366004615205565b6121fb565b6104c4610744366004614f04565b6126ee565b34801561075557600080fd5b506103b2610764366004614f66565b6101046020908152600092835260408084209091529082529020546001600160a01b031681565b34801561079757600080fd5b506104686107a6366004614d31565b6101116020526000908152604090205481565b3480156107c557600080fd5b506104686107d4366004614f66565b61010860209081526000928352604080842090915290825290205481565b3480156107fe57600080fd5b5060408051338082526020820152016103c6565b34801561081e57600080fd5b506103ef61082d366004615120565b80516020818301810180516101068252928201919093012091525460ff1681565b34801561085a57600080fd5b506103ef6108693660046150d3565b6127a4565b34801561087a57600080fd5b506104c4610889366004615043565b6127cf565b34801561089a57600080fd5b506104c46108a9366004614f90565b612967565b3480156108ba57600080fd5b5061046860ff5481565b3480156108d057600080fd5b506104c46108df366004614f66565b612ab6565b3480156108f057600080fd5b506103ef6108ff366004614d4c565b61010760209081526000928352604080842090915290825290205460ff1681565b34801561092c57600080fd5b50610468600081565b34801561094157600080fd5b506104c4610950366004614dc6565b612ae7565b34801561096157600080fd5b506103ef610970366004614d31565b6101126020526000908152604090205460ff1681565b34801561099257600080fd5b506104686109a1366004614f66565b61010960209081526000928352604080842090915290825290205481565b3480156109cb57600080fd5b506104c46109da366004614f90565b612e68565b3480156109eb57600080fd5b506104c46109fa366004615155565b613064565b348015610a0b57600080fd5b506104c4610a1a3660046152b0565b61339b565b348015610a2b57600080fd5b506103b2610a3a3660046150d3565b6101036020908152600092835260408084209091529082529020546001600160a01b031681565b348015610a6d57600080fd5b50610468610a7c366004614d31565b6101056020526000908152604090205481565b348015610a9b57600080fd5b50610113546103ef9060ff1681565b348015610ab657600080fd5b50610468610ac5366004614d31565b60fb6020526000908152604090205481565b348015610ae357600080fd5b50610468610af2366004614d31565b6101106020526000908152604090205481565b348015610b1157600080fd5b506104c4610b203660046150d3565b613486565b348015610b3157600080fd5b506104c4610b40366004614ecd565b6134ac565b348015610b5157600080fd5b50610102546103b2906001600160a01b031681565b6104c4610b74366004614fcc565b6134ff565b348015610b8557600080fd5b50610468610b94366004614f66565b61010c60209081526000928352604080842090915290825290205481565b348015610bbe57600080fd5b50610468610bcd366004614f66565b61010a60209081526000928352604080842090915290825290205481565b348015610bf757600080fd5b506103b2610c06366004614d31565b61010f602052600090815260409020546001600160a01b031681565b348015610c2e57600080fd5b506104c4610c3d366004614d31565b613837565b348015610c4e57600080fd5b506104687f189ab7a9244df0848122154315af71fe140f3db0fe014031783b0946b8c9d2e381565b348015610c8257600080fd5b506104c4610c91366004614f66565b6138a7565b348015610ca257600080fd5b50610468610cb13660046152e3565b61011560209081526000928352604080842090915290825290205481565b60006001600160e01b03198216637965db0b60e01b1480610d0057506301ffc9a760e01b6001600160e01b03198316145b92915050565b6001600160a01b0383166000908152610107602090815260408083203384529091528120548190819060ff1615610d3e575082610ee7565b6001600160a01b038616600090815261010960209081526040808320888452909152812054819080871115610d99576001600160a01b038916600090815261010c602090815260408083208b84529091529020549250610da6565b610da387826158b1565b91505b6001600160a01b038916600090815261010e60205260409020548211610df2576001600160a01b038916600090815261010a602090815260408083208b84529091529020549250610e8c565b6001600160a01b038916600090815261010e602052604090205482118015610e3357506001600160a01b038916600090815261010d60205260409020548211155b15610e64576001600160a01b038916600090815261010b602090815260408083208b84529091529020549250610e8c565b6001600160a01b038916600090815261010c602090815260408083208b845290915290205492505b6001600160a01b0389166000908152610108602090815260408083208b84529091528120549650610ebd87896158b1565b9050610ec98482613931565b955085610ed6888a6158b1565b610ee091906158b1565b9450505050505b93509350939050565b610efb6000336127a4565b610f205760405162461bcd60e51b8152600401610f17906155d2565b60405180910390fd5b6001600160a01b038116610f465760405162461bcd60e51b8152600401610f1790615609565b61010180546001600160a01b0319166001600160a01b0392909216919091179055565b610f746000336127a4565b610f905760405162461bcd60e51b8152600401610f17906155d2565b6001600160a01b038116600081815261010f602090815260409182902080546001600160a01b031916905590519182527f4b8830da429e7f8c1dc368e9a9a3dc21aa6e3e08d115679e616b1fedaf420aeb910160405180910390a150565b610ff96000336127a4565b6110155760405162461bcd60e51b8152600401610f17906155d2565b6001600160a01b038084166000908152610107602090815260408083209386168352929052205460ff16151581151514156110805760405162461bcd60e51b815260206004820152600b60248201526a6572726f7220737461746560a81b6044820152606401610f17565b6001600160a01b0392831660009081526101076020908152604080832094909516825292909252919020805460ff1916911515919091179055565b8151600090815261010360209081526040808320828601516001600160a01b039081168552925282205416906110f082611b4e565b90506110fc81336127a4565b6111185760405162461bcd60e51b8152600401610f1790615465565b826101068160405161112a9190615328565b9081526040519081900360200190205460ff161561115a5760405162461bcd60e51b8152600401610f179061550d565b6101135460ff16156111975760405162461bcd60e51b815260206004820152600660248201526518db1bdcd95960d21b6044820152606401610f17565b610113805460ff1916600117905560ff546060860151146111ea5760405162461bcd60e51b815260206004820152600d60248201526c31b430b4b724b21032b93937b960991b6044820152606401610f17565b8451600090815261010360209081526040808320828901516001600160a01b039081168552908352818420548116808552610104845282852060608b01518652909352922054909116816112805760405162461bcd60e51b815260206004820152601760248201527f63656e746572546f6b656e206e6f7420737570706f72740000000000000000006044820152606401610f17565b6001600160a01b0381166112ce5760405162461bcd60e51b8152602060048201526015602482015274195919d9551bdad95b881b9bdd081cdd5c1c1bdc9d605a1b6044820152606401610f17565b60006112ee8860000151848a604001518b608001518c60a001518c613953565b9050801561166f576001610106886040516113099190615328565b9081526040805160209281900383019020805460ff19169315159390931790925560a08a01516001600160a01b038616600090815261010983528381208c518252909252918120805490919061136090849061575d565b909155505060a08801516001600160a01b03841660009081526101096020908152604080832060ff548452909152902054106115425760008060006113ae868c606001518d60a00151610d06565b6001600160a01b03891660009081526101126020526040902054929550909350915060ff16156114105760808b01516001600160a01b0386166000908152610105602052604090205461140b91906114069084615775565b613be1565b61144f565b60808b01516001600160a01b0386166000908152610105602052604090205461144f919061143e9084615775565b6001600160a01b0388169190613cfa565b61145a868484613d50565b6001600160a01b03861660009081526101096020908152604080832060608f01518452909152812080548392906114929084906158b1565b925050819055507fe63fe074c53764bbe6e6f716575da08b4e5546ea802aa49ba761f2c1799715416040518060e001604052808d6000015181526020018d602001516001600160a01b031681526020018d604001516001600160a01b031681526020018d606001518152602001876001600160a01b031681526020018d608001516001600160a01b0316815260200183815250604051611532919061565c565b60405180910390a150505061166f565b608088015160a08901516040516340c10f1960e01b81526001600160a01b038616926340c10f199261157692600401615419565b602060405180830381600087803b15801561159057600080fd5b505af11580156115a4573d6000803e3d6000fd5b505050506040513d601f19601f820116820180604052508101906115c8919061509d565b507f1ecf44265cb8eead95bfe72d8e66611159bbbe6c385212224660bf7ee22874116040518060e001604052808a6000015181526020018a602001516001600160a01b031681526020018a604001516001600160a01b031681526020018a606001518152602001846001600160a01b031681526020018a608001516001600160a01b031681526020018a60a00151815250604051611666919061565c565b60405180910390a15b50505061167a61405c565b5050610113805460ff19169055505050565b6001600160a01b038316600090815261011060205260408120546116b2575060006119d5565b6001600160a01b03841660008181526101096020908152604080832087845282528083205493835261010d90915290205481106116f35760009150506119d5565b60006116ff848361575d565b6001600160a01b0387166000908152610110602090815260408083205461010a83528184208a8552909252822054929350909161173b91613931565b6001600160a01b0388166000908152610110602090815260408083205461010b83528184208b8552909252822054929350909161177791613931565b6001600160a01b038916600090815261010e602052604090205490915084116118c5576001600160a01b038816600090815261010e602052604090205483116117cb576117c48683613931565b945061193a565b6001600160a01b038816600090815261010d6020526040902054831161185f576001600160a01b038816600090815261010e602052604081205461181c9084906118169088906158b1565b90613931565b6001600160a01b038a16600090815261010e60205260408120549192509061184a90849061181690886158b1565b9050611856818361575d565b9650505061193a565b6001600160a01b038816600090815261010e602052604081205461188a9084906118169088906158b1565b6001600160a01b038a16600090815261010e602090815260408083205461010d909252822054929350909161184a91859161181691906158b1565b6001600160a01b038816600090815261010d6020526040902054841161193a576001600160a01b038816600090815261010d6020526040902054831161190f576117c48682613931565b6001600160a01b038816600090815261010d60205260409020546117c49082906118169087906158b1565b610101546040516370a0823160e01b81526001600160a01b0391821660048201526000918a16906370a082319060240160206040518083038186803b15801561198257600080fd5b505afa158015611996573d6000803e3d6000fd5b505050506040513d601f19601f820116820180604052508101906119ba9190615297565b90508581116119cf5794506119d59350505050565b50505050505b9392505050565b6000828152606560205260409020600101546119f8813361408d565b611a0283836140f1565b505050565b6001600160a01b0381163314611a775760405162461bcd60e51b815260206004820152602f60248201527f416363657373436f6e74726f6c3a2063616e206f6e6c792072656e6f756e636560448201526e103937b632b9903337b91039b2b63360891b6064820152608401610f17565b611a818282614177565b5050565b306001600160a01b037f0000000000000000000000000000000000000000000000000000000000000000161415611ace5760405162461bcd60e51b8152600401610f17906154c1565b7f00000000000000000000000000000000000000000000000000000000000000006001600160a01b0316611b006141de565b6001600160a01b031614611b265760405162461bcd60e51b8152600401610f1790615538565b611b2f8161420c565b60408051600080825260208201909252611b4b91839190614237565b50565b6040516bffffffffffffffffffffffff19606083901b166020820152600090603401604051602081830303815290604052805190602001209050919050565b611b986000336127a4565b611bb45760405162461bcd60e51b8152600401610f17906155d2565b6001600160a01b0390911660009081526101106020526040902055565b60ff546000908152610103602090815260408083206001600160a01b0380871685529252909120541680611c175760405162461bcd60e51b8152600401610f179061549c565b6001600160a01b0381166000908152610112602052604090205460ff1615611c7c57348214611c775760405162461bcd60e51b815260206004820152600c60248201526b30b6b7bab73a1032b93937b960a11b6044820152606401610f17565b611c91565b611c916001600160a01b03841633308561437b565b6001600160a01b0383811660009081526101056020526040902054908216906340c10f19903390611cc29086615892565b6040518363ffffffff1660e01b8152600401611cdf929190615419565b602060405180830381600087803b158015611cf957600080fd5b505af1158015611d0d573d6000803e3d6000fd5b505050506040513d601f19601f82011682018060405250810190611d31919061509d565b5060ff546001600160a01b03841660009081526101056020526040902054611d669183913390611d619087615892565b6143b3565b6001600160a01b03831660009081526101056020526040902054611d8a9083615892565b6001600160a01b03821660009081526101096020908152604080832060ff54845290915281208054909190611dc090849061575d565b909155505060ff546001600160a01b038416600090815261010560205260409020547f984a71c9d95fd4794aeba33ae72edfec22053fde75488d63abef9dc69ee795af919085903390611e139087615892565b604051611e4394939291909384526001600160a01b03928316602085015291166040830152606082015260800190565b60405180910390a150611a8161405c565b6101135460ff1615611e915760405162461bcd60e51b815260206004820152600660248201526518db1bdcd95960d21b6044820152606401610f17565b610113805460ff191660011790556001600160a01b038416600090815261010960209081526040808320868452909152902054811115611f065760405162461bcd60e51b815260206004820152601060248201526f6e6f7420656e6f756768206c6971756960801b6044820152606401610f17565b6001600160a01b038085166000908152610104602090815260408083208784529091529020541680611f725760405162461bcd60e51b8152602060048201526015602482015274195919d9481d1bdad9481b9bdd081cdd5c1c1bdc9d605a1b6044820152606401610f17565b6000806000611f82888887610d06565b925092509250611f93888484613d50565b604051632770a7eb60e21b81526001600160a01b03891690639dc29fac90611fc19033908990600401615419565b602060405180830381600087803b158015611fdb57600080fd5b505af1158015611fef573d6000803e3d6000fd5b505050506040513d601f19601f82011682018060405250810190612013919061509d565b506001600160a01b0388166000908152610109602090815260408083208a8452909152812080548792906120489084906158b1565b909155505060ff5487141561215e576001600160a01b0388166000908152610112602052604090205460ff16156120a8576001600160a01b038416600090815261010560205260409020546120a39033906114069084615775565b6120e3565b6001600160a01b038416600090815261010560205260409020546120e39033906120d29084615775565b6001600160a01b0387169190613cfa565b6040805160e08101825260ff5481526001600160a01b03808b1660208301523382840152606082018a90528681166080830152881660a082015260c0810183905290517f7f50f8e7f2e365c46040fcc45f0f1ee1b3f7d8c3befc68282bfa0562f4f1d2b0916121519161565c565b60405180910390a16121de565b612167876143e4565b6040805160e08101825260ff5481526001600160a01b03808b1660208301523382840152606082018a90528681166080830152881660a082015260c0810183905290517ff0bc31bd6717a3afcc9a7f44d5b6d8638707a8ee613a6d3b38ec03e9f0392d67916121d59161565c565b60405180910390a15b505050506121ea61405c565b5050610113805460ff191690555050565b8151600090815261010360209081526040808320828601516001600160a01b0390811685529252822054169061223082611b4e565b905061223c81336127a4565b6122585760405162461bcd60e51b8152600401610f1790615465565b826101068160405161226a9190615328565b9081526040519081900360200190205460ff161561229a5760405162461bcd60e51b8152600401610f179061550d565b6060850151855114156122df5760405162461bcd60e51b815260206004820152600d60248201526c31b430b4b724b21032b93937b960991b6044820152606401610f17565b8451600090815261010360209081526040808320828901516001600160a01b03908116855292529091205416806123585760405162461bcd60e51b815260206004820152601760248201527f6e6f7420737570706f72742063656e746572546f6b656e0000000000000000006044820152606401610f17565b6001600160a01b0380821660009081526101046020908152604080832060608b0151845290915290205416806123c85760405162461bcd60e51b81526020600482015260156024820152743737ba1039bab83837b93a1032b233b2aa37b5b2b760591b6044820152606401610f17565b60006123e88860000151848a604001518b608001518c60a001518c613953565b905080156126dc576001610106886040516124039190615328565b9081526040805160209281900383019020805460ff19169315159390931790925560a08a01516001600160a01b038616600090815261010983528381208c518252909252918120805490919061245a90849061575d565b909155505060a08801516001600160a01b03841660009081526101096020908152604080832060608d01518452909152902054106125af5760008060006124aa868c606001518d60a00151610d06565b9250925092506124bb868484613d50565b6001600160a01b03861660009081526101096020908152604080832060608f01518452909152812080548392906124f39084906158b1565b909155505060608b0151612506906143e4565b7f715d2e6514c297c9e18ba16c3e3972b7562b34f8f185c21a5cc305324039c77a6040518060e001604052808d6000015181526020018d602001516001600160a01b031681526020018d604001516001600160a01b031681526020018d606001518152602001876001600160a01b031681526020018d608001516001600160a01b031681526020018381525060405161259f919061565c565b60405180910390a15050506126dc565b608088015160a08901516040516340c10f1960e01b81526001600160a01b038616926340c10f19926125e392600401615419565b602060405180830381600087803b1580156125fd57600080fd5b505af1158015612611573d6000803e3d6000fd5b505050506040513d601f19601f82011682018060405250810190612635919061509d565b507fa22f2d032a9fe57cd0476bed912548f17dccb0695666d445bed754d98219b6a06040518060e001604052808a6000015181526020018a602001516001600160a01b031681526020018a604001516001600160a01b031681526020018a606001518152602001846001600160a01b031681526020018a608001516001600160a01b031681526020018a60a001518152506040516126d3919061565c565b60405180910390a15b5050506126e761405c565b5050505050565b306001600160a01b037f00000000000000000000000000000000000000000000000000000000000000001614156127375760405162461bcd60e51b8152600401610f17906154c1565b7f00000000000000000000000000000000000000000000000000000000000000006001600160a01b03166127696141de565b6001600160a01b03161461278f5760405162461bcd60e51b8152600401610f1790615538565b6127988261420c565b611a8182826001614237565b60009182526065602090815260408084206001600160a01b0393909316845291905290205460ff1690565b6127da6000336127a4565b6127f65760405162461bcd60e51b8152600401610f17906155d2565b80518251146128335760405162461bcd60e51b81526020600482015260096024820152680dcdee840dac2e8c6d60bb1b6044820152606401610f17565b60005b8251811015611a025760006001600160a01b031683828151811061285c5761285c61595f565b60200260200101516001600160a01b0316141561288b5760405162461bcd60e51b8152600401610f1790615609565b60006001600160a01b03168282815181106128a8576128a861595f565b60200260200101516001600160a01b031614156128d75760405162461bcd60e51b8152600401610f1790615609565b8181815181106128e9576128e961595f565b602002602001015161010f60008584815181106129085761290861595f565b60200260200101516001600160a01b03166001600160a01b0316815260200190815260200160002060006101000a8154816001600160a01b0302191690836001600160a01b03160217905550808061295f9061592e565b915050612836565b6129726000336127a4565b61298e5760405162461bcd60e51b8152600401610f17906155d2565b6000828152610103602090815260408083206001600160a01b038581168552925290912054166129f85760405162461bcd60e51b815260206004820152601560248201527418d95b9d195c951bdad95b881b9bdd08195e1a5cdd605a1b6044820152606401610f17565b6001600160a01b0383811660009081526101046020908152604080832086845290915290205416612a615760405162461bcd60e51b8152602060048201526013602482015272195919d9551bdad95b881b9bdd08195e1a5cdd606a1b6044820152606401610f17565b6000828152610103602090815260408083206001600160a01b039485168452825280832080546001600160a01b0319908116909155959093168252610104815282822093825292909252902080549091169055565b612ac16000336127a4565b612add5760405162461bcd60e51b8152600401610f17906155d2565b611a818282614445565b612af26000336127a4565b612b0e5760405162461bcd60e51b8152600401610f17906155d2565b8451865114612b565760405162461bcd60e51b8152602060048201526014602482015273040e8de86d0c2d2dc92c840dcdee840dac2e8c6d60631b6044820152606401610f17565b8451845114612b775760405162461bcd60e51b8152600401610f179061562f565b8451835114612b985760405162461bcd60e51b8152600401610f179061562f565b8451825114612bb95760405162461bcd60e51b8152600401610f179061562f565b8051600214612bfd5760405162461bcd60e51b815260206004820152601060248201526f0e4c2dad2dce640dcdee840dac2e8c6d60831b6044820152606401610f17565b60005b8651811015612dd457858181518110612c1b57612c1b61595f565b602002602001015161010860008a6001600160a01b03166001600160a01b031681526020019081526020016000206000898481518110612c5d57612c5d61595f565b6020026020010151815260200190815260200160002081905550848181518110612c8957612c8961595f565b602002602001015161010a60008a6001600160a01b03166001600160a01b031681526020019081526020016000206000898481518110612ccb57612ccb61595f565b6020026020010151815260200190815260200160002081905550838181518110612cf757612cf761595f565b602002602001015161010b60008a6001600160a01b03166001600160a01b031681526020019081526020016000206000898481518110612d3957612d3961595f565b6020026020010151815260200190815260200160002081905550828181518110612d6557612d6561595f565b602002602001015161010c60008a6001600160a01b03166001600160a01b031681526020019081526020016000206000898481518110612da757612da761595f565b60200260200101518152602001908152602001600020819055508080612dcc9061592e565b915050612c00565b5080600081518110612de857612de861595f565b602002602001015161010d6000896001600160a01b03166001600160a01b031681526020019081526020016000208190555080600181518110612e2d57612e2d61595f565b602002602001015161010e6000896001600160a01b03166001600160a01b031681526020019081526020016000208190555050505050505050565b612e736000336127a4565b612e8f5760405162461bcd60e51b8152600401610f17906155d2565b6000828152610103602090815260408083206001600160a01b0385811685529252909120541615612ef65760405162461bcd60e51b815260206004820152601160248201527018d95b9d195c951bdad95b88195e1a5cdd607a1b6044820152606401610f17565b6001600160a01b038381166000908152610104602090815260408083208684529091529020541615612f5c5760405162461bcd60e51b815260206004820152600f60248201526e195919d9551bdad95b88195e1a5cdd608a1b6044820152606401610f17565b6000828152610103602090815260408083206001600160a01b0380861680865291845282852080549189166001600160a01b031992831681179091558552610104845282852087865290935292208054909116909117905560ff54821415611a0257806001600160a01b031663313ce5676040518163ffffffff1660e01b815260040160206040518083038186803b158015612ff757600080fd5b505afa15801561300b573d6000803e3d6000fd5b505050506040513d601f19601f8201168201806040525081019061302f9190615305565b61303a9060126158c8565b61304590600a6157e6565b6001600160a01b03821660009081526101056020526040902055505050565b8151600090815261010360209081526040808320828601516001600160a01b0390811685529252822054169061309982611b4e565b90506130a581336127a4565b6130c15760405162461bcd60e51b8152600401610f1790615465565b82610106816040516130d39190615328565b9081526040519081900360200190205460ff16156131035760405162461bcd60e51b8152600401610f179061550d565b60ff5485606001511461314c5760405162461bcd60e51b81526020600482015260116024820152700c6d0c2d2dc92c840dcdee840dac2e8c6d607b1b6044820152606401610f17565b8451600090815261010360209081526040808320828901516001600160a01b03908116855292529091205416806131b95760405162461bcd60e51b815260206004820152601160248201527018d95b9d195c951bdad95b88195e1a5cdd607a1b6044820152606401610f17565b6001600160a01b038181166000908152610104602090815260408083208a5184529091529020541661321f5760405162461bcd60e51b815260206004820152600f60248201526e195919d9551bdad95b88195e1a5cdd608a1b6044820152606401610f17565b600061323f87600001518389604001518a60a001518b60c001518b613953565b905080156133915760016101068760405161325a9190615328565b908152604051908190036020018120805492151560ff199093169290921790915560a088015160c08901516340c10f1960e01b83526001600160a01b038516926340c10f19926132ae929091600401615419565b602060405180830381600087803b1580156132c857600080fd5b505af11580156132dc573d6000803e3d6000fd5b505050506040513d601f19601f82011682018060405250810190613300919061509d565b5061331982886000015189604001518a60c001516143b3565b60c08701516001600160a01b0383166000908152610109602090815260408083208b5184529091528120805490919061335390849061575d565b90915550506040517f082ec0a3f5481f56ed1aa06ed4b5f96a0b82a7f1ce3342041b20b8161fabeb929061338890899061565c565b60405180910390a15b50506126e761405c565b600054610100900460ff16806133b4575060005460ff16155b6133d05760405162461bcd60e51b8152600401610f1790615584565b600054610100900460ff161580156133f2576000805461ffff19166101011790555b6133fa6144ab565b61340261452e565b61340d6000336140f1565b6134377f189ab7a9244df0848122154315af71fe140f3db0fe014031783b0946b8c9d2e3336140f1565b60ff84905561010080546001600160a01b038086166001600160a01b0319928316179092556101018054928516929091169190911790558015613480576000805461ff00191690555b50505050565b6000828152606560205260409020600101546134a2813361408d565b611a028383614177565b6134b76000336127a4565b6134d35760405162461bcd60e51b8152600401610f17906155d2565b6001600160a01b0391909116600090815261011260205260409020805460ff1916911515919091179055565b8260ff548414156135445760405162461bcd60e51b815260206004820152600f60248201526e3a37a1b430b4b724b21032b93937b960891b6044820152606401610f17565b60ff546000908152610103602090815260408083206001600160a01b03808a168552925290912054168061358a5760405162461bcd60e51b8152600401610f179061549c565b6001600160a01b0380821660009081526101046020908152604080832089845290915290205416806135ce5760405162461bcd60e51b8152600401610f179061549c565b6001600160a01b038716600090815261010560205260409020546135f29085615892565b6001600160a01b0383166000908152610109602090815260408083208a845290915290205410156136585760405162461bcd60e51b815260206004820152601060248201526f6e6f7420656e6f756768206c6971756960801b6044820152606401610f17565b6001600160a01b0382166000908152610112602052604090205460ff16156136bd578334146136b85760405162461bcd60e51b815260206004820152600c60248201526b30b6b7bab73a1032b93937b960a11b6044820152606401610f17565b6136d2565b6136d26001600160a01b03881633308761437b565b6001600160a01b03871660009081526101056020526040812054819081906137029086908b9061041a908b615892565b925092509250613713858484613d50565b6001600160a01b038a16600090815261010560205260409020546137379088615892565b6001600160a01b03861660009081526101096020908152604080832060ff5484529091528120805490919061376d90849061575d565b90915550506001600160a01b0385166000908152610109602090815260408083208c8452909152812080548392906137a69084906158b1565b90915550506040805160e08101825260ff5481526001600160a01b03808d1660208301523382840152606082018c905286811660808301528a1660a082015260c0810183905290517fe8ae00f8b99ac422d841599f0cc887e0d20c0bf99271117d943e474f280f1145916138199161565c565b60405180910390a1505050505061382e61405c565b6126e7816143e4565b6138426000336127a4565b61385e5760405162461bcd60e51b8152600401610f17906155d2565b6001600160a01b0381166138845760405162461bcd60e51b8152600401610f1790615609565b61010080546001600160a01b0319166001600160a01b0392909216919091179055565b6138b26000336127a4565b6138ce5760405162461bcd60e51b8152600401610f17906155d2565b670de0b6b3a76400008111156139145760405162461bcd60e51b815260206004820152600b60248201526a3930ba34b79032b93937b960a91b6044820152606401610f17565b6001600160a01b0390911660009081526101116020526040902055565b600061393f6012600a6157da565b613949848461458c565b6119d59190615775565b6001600160a01b038516600090815260fb60205260408120546139d15760405162461bcd60e51b815260206004820152603060248201527f50726f706f73616c566f74653a207468726573686f6c642073686f756c64206260448201526f0652067726561746572207468616e20360841b6064820152608401610f17565b6001600160a01b038616600090815260fb60209081526040808320549051909291613a08918b918b918b918b918b918b91016153b9565b60408051601f198184030181529181528151602092830120600081815260fc90935291205490915060ff1615613a805760405162461bcd60e51b815260206004820152601860248201527f5f766f74653a3a70726f706f73616c2066696e697368656400000000000000006044820152606401610f17565b600081815260fd6020908152604080832033845290915290205460ff1615613aea5760405162461bcd60e51b815260206004820152601760248201527f5f766f74653a3a6d73672e73656e64657220766f7465640000000000000000006044820152606401610f17565b600081815260fe6020526040902054613b04906001614598565b600082815260fe6020818152604080842094855560fd825280842033855282528320805460ff19166001179055918490529052548211613b5d57600081815260fc60205260409020805460ff1916600190811790915592505b600081815260fe60209081526040918290205482516001600160a01b038c811682528b811693820193909352918916828401526060820188905233608083015260a082015260c0810184905290517fe458477b94285c9f254a407e2614c39f55230b527ff7f51d76fdf33e251ae9369181900360e00190a150509695505050505050565b80471015613c315760405162461bcd60e51b815260206004820152601d60248201527f416464726573733a20696e73756666696369656e742062616c616e63650000006044820152606401610f17565b6000826001600160a01b03168260405160006040518083038185875af1925050503d8060008114613c7e576040519150601f19603f3d011682016040523d82523d6000602084013e613c83565b606091505b5050905080611a025760405162461bcd60e51b815260206004820152603a60248201527f416464726573733a20756e61626c6520746f2073656e642076616c75652c207260448201527f6563697069656e74206d617920686176652072657665727465640000000000006064820152608401610f17565b611a028363a9059cbb60e01b8484604051602401613d19929190615419565b60408051601f198184030181529190526020810180516001600160e01b03166001600160e01b0319909316929092179091526145a4565b8115613ddf57610100546040516340c10f1960e01b81526001600160a01b03858116926340c10f1992613d8b92909116908690600401615419565b602060405180830381600087803b158015613da557600080fd5b505af1158015613db9573d6000803e3d6000fd5b505050506040513d601f19601f82011682018060405250810190613ddd919061509d565b505b8015611a02576001600160a01b03838116600090815261010f602052604090205416613e8c57610101546040516340c10f1960e01b81526001600160a01b03858116926340c10f1992613e3a92909116908590600401615419565b602060405180830381600087803b158015613e5457600080fd5b505af1158015613e68573d6000803e3d6000fd5b505050506040513d601f19601f82011682018060405250810190613480919061509d565b6001600160a01b03831660009081526101116020526040812054613eb1908390613931565b90506000613ebf82846158b1565b610101546040516340c10f1960e01b81529192506001600160a01b03808816926340c10f1992613ef59216908690600401615419565b602060405180830381600087803b158015613f0f57600080fd5b505af1158015613f23573d6000803e3d6000fd5b505050506040513d601f19601f82011682018060405250810190613f47919061509d565b506001600160a01b03808616600081815261010f6020526040908190205490516340c10f1960e01b815291926340c10f1992613f8b92909116908590600401615419565b602060405180830381600087803b158015613fa557600080fd5b505af1158015613fb9573d6000803e3d6000fd5b505050506040513d601f19601f82011682018060405250810190613fdd919061509d565b506001600160a01b03858116600090815261010f60205260409081902054905163246132f960e01b81526004810184905262015180602482015291169063246132f990604401600060405180830381600087803b15801561403d57600080fd5b505af1158015614051573d6000803e3d6000fd5b505050505050505050565b60016101166000828254614070919061575d565b909155505061011654600090815261011760205260409020439055565b61409782826127a4565b611a81576140af816001600160a01b03166014614676565b6140ba836020614676565b6040516020016140cb929190615344565b60408051601f198184030181529082905262461bcd60e51b8252610f1791600401615432565b6140fb82826127a4565b611a815760008281526065602090815260408083206001600160a01b03851684529091529020805460ff191660011790556141333390565b6001600160a01b0316816001600160a01b0316837f2f8788117e7eff1d82e926ec794901d17c78024a50270940304540a733656f0d60405160405180910390a45050565b61418182826127a4565b15611a815760008281526065602090815260408083206001600160a01b0385168085529252808320805460ff1916905551339285917ff6391f5c32d9c69d2a47ea670b442974b53935d1edc7fd64eb21e047a839171b9190a45050565b7f360894a13ba1a3210667c828492db98dca3e2076cc3735a920a3ca505d382bbc546001600160a01b031690565b7f189ab7a9244df0848122154315af71fe140f3db0fe014031783b0946b8c9d2e3611a81813361408d565b60006142416141de565b905061424c84614812565b6000835111806142595750815b1561426a5761426884846148b7565b505b7f4910fdfa16fed3260ed0e7147f7cc6da11a60208b5b9406d12a635614ffd9143805460ff166126e757805460ff191660011781556040516001600160a01b03831660248201526142e990869060440160408051601f198184030181529190526020810180516001600160e01b0316631b2ce7f360e11b1790526148b7565b50805460ff191681556142fa6141de565b6001600160a01b0316826001600160a01b0316146143725760405162461bcd60e51b815260206004820152602f60248201527f45524331393637557067726164653a207570677261646520627265616b73206660448201526e75727468657220757067726164657360881b6064820152608401610f17565b6126e7856149a2565b6040516001600160a01b03808516602483015283166044820152606481018290526134809085906323b872dd60e01b90608401613d19565b60006143c085858461168c565b905080156126e757610101546126e7906001600160a01b038781169116858461437b565b60008181526101146020526040812080546001929061440490849061575d565b90915550506000818152610114602052604081205461442490600161575d565b60009283526101156020908152604080852092855291905290912043905550565b6001600160a01b038216600081815260fb60209081526040918290208054908590558251938452908301819052908201839052907fb18e91516e037486aa6fa38f56a8aac933fd127180efe9c9745ecbf660a78e449060600160405180910390a1505050565b600054610100900460ff16806144c4575060005460ff16155b6144e05760405162461bcd60e51b8152600401610f1790615584565b600054610100900460ff16158015614502576000805461ffff19166101011790555b61450a6149e2565b6145126149e2565b61451a6149e2565b8015611b4b576000805461ff001916905550565b600054610100900460ff1680614547575060005460ff16155b6145635760405162461bcd60e51b8152600401610f1790615584565b600054610100900460ff1615801561450a576000805461ffff19166101011790556145126149e2565b60006119d58284615892565b60006119d5828461575d565b60006145f9826040518060400160405280602081526020017f5361666545524332303a206c6f772d6c6576656c2063616c6c206661696c6564815250856001600160a01b0316614a4c9092919063ffffffff16565b805190915015611a025780806020019051810190614617919061509d565b611a025760405162461bcd60e51b815260206004820152602a60248201527f5361666545524332303a204552433230206f7065726174696f6e20646964206e6044820152691bdd081cdd58d8d9595960b21b6064820152608401610f17565b60606000614685836002615892565b61469090600261575d565b67ffffffffffffffff8111156146a8576146a8615975565b6040519080825280601f01601f1916602001820160405280156146d2576020820181803683370190505b509050600360fc1b816000815181106146ed576146ed61595f565b60200101906001600160f81b031916908160001a905350600f60fb1b8160018151811061471c5761471c61595f565b60200101906001600160f81b031916908160001a9053506000614740846002615892565b61474b90600161575d565b90505b60018111156147c3576f181899199a1a9b1b9c1cb0b131b232b360811b85600f166010811061477f5761477f61595f565b1a60f81b8282815181106147955761479561595f565b60200101906001600160f81b031916908160001a90535060049490941c936147bc81615917565b905061474e565b5083156119d55760405162461bcd60e51b815260206004820181905260248201527f537472696e67733a20686578206c656e67746820696e73756666696369656e746044820152606401610f17565b803b6148765760405162461bcd60e51b815260206004820152602d60248201527f455243313936373a206e657720696d706c656d656e746174696f6e206973206e60448201526c1bdd08184818dbdb9d1c9858dd609a1b6064820152608401610f17565b7f360894a13ba1a3210667c828492db98dca3e2076cc3735a920a3ca505d382bbc80546001600160a01b0319166001600160a01b0392909216919091179055565b6060823b6149165760405162461bcd60e51b815260206004820152602660248201527f416464726573733a2064656c65676174652063616c6c20746f206e6f6e2d636f6044820152651b9d1c9858dd60d21b6064820152608401610f17565b600080846001600160a01b0316846040516149319190615328565b600060405180830381855af49150503d806000811461496c576040519150601f19603f3d011682016040523d82523d6000602084013e614971565b606091505b5091509150614999828260405180606001604052806027815260200161599a60279139614a63565b95945050505050565b6149ab81614812565b6040516001600160a01b038216907fbc7cd75a20ee27fd9adebab32041f755214dbc6bffa90cc0225b39da2e5c2d3b90600090a250565b600054610100900460ff16806149fb575060005460ff16155b614a175760405162461bcd60e51b8152600401610f1790615584565b600054610100900460ff1615801561451a576000805461ffff19166101011790558015611b4b576000805461ff001916905550565b6060614a5b8484600085614a9c565b949350505050565b60608315614a725750816119d5565b825115614a825782518084602001fd5b8160405162461bcd60e51b8152600401610f179190615432565b606082471015614afd5760405162461bcd60e51b815260206004820152602660248201527f416464726573733a20696e73756666696369656e742062616c616e636520666f6044820152651c8818d85b1b60d21b6064820152608401610f17565b843b614b4b5760405162461bcd60e51b815260206004820152601d60248201527f416464726573733a2063616c6c20746f206e6f6e2d636f6e74726163740000006044820152606401610f17565b600080866001600160a01b03168587604051614b679190615328565b60006040518083038185875af1925050503d8060008114614ba4576040519150601f19603f3d011682016040523d82523d6000602084013e614ba9565b606091505b5091509150614bb9828286614a63565b979650505050505050565b600067ffffffffffffffff831115614bde57614bde615975565b614bf1601f8401601f1916602001615708565b9050828152838383011115614c0557600080fd5b828260208301376000602084830101529392505050565b80356001600160a01b0381168114614c3357600080fd5b919050565b600082601f830112614c4957600080fd5b81356020614c5e614c5983615739565b615708565b80838252828201915082860187848660051b8901011115614c7e57600080fd5b60005b85811015614ca457614c9282614c1c565b84529284019290840190600101614c81565b5090979650505050505050565b600082601f830112614cc257600080fd5b81356020614cd2614c5983615739565b80838252828201915082860187848660051b8901011115614cf257600080fd5b60005b85811015614ca457813584529284019290840190600101614cf5565b600082601f830112614d2257600080fd5b6119d583833560208501614bc4565b600060208284031215614d4357600080fd5b6119d582614c1c565b60008060408385031215614d5f57600080fd5b614d6883614c1c565b9150614d7660208401614c1c565b90509250929050565b600080600060608486031215614d9457600080fd5b614d9d84614c1c565b9250614dab60208501614c1c565b91506040840135614dbb8161598b565b809150509250925092565b600080600080600080600060e0888a031215614de157600080fd5b614dea88614c1c565b9650602088013567ffffffffffffffff80821115614e0757600080fd5b614e138b838c01614cb1565b975060408a0135915080821115614e2957600080fd5b614e358b838c01614cb1565b965060608a0135915080821115614e4b57600080fd5b614e578b838c01614cb1565b955060808a0135915080821115614e6d57600080fd5b614e798b838c01614cb1565b945060a08a0135915080821115614e8f57600080fd5b614e9b8b838c01614cb1565b935060c08a0135915080821115614eb157600080fd5b50614ebe8a828b01614cb1565b91505092959891949750929550565b60008060408385031215614ee057600080fd5b614ee983614c1c565b91506020830135614ef98161598b565b809150509250929050565b60008060408385031215614f1757600080fd5b614f2083614c1c565b9150602083013567ffffffffffffffff811115614f3c57600080fd5b8301601f81018513614f4d57600080fd5b614f5c85823560208401614bc4565b9150509250929050565b60008060408385031215614f7957600080fd5b614f8283614c1c565b946020939093013593505050565b600080600060608486031215614fa557600080fd5b614fae84614c1c565b925060208401359150614fc360408501614c1c565b90509250925092565b60008060008060808587031215614fe257600080fd5b614feb85614c1c565b93506020850135925061500060408601614c1c565b9396929550929360600135925050565b60008060006060848603121561502557600080fd5b61502e84614c1c565b95602085013595506040909401359392505050565b6000806040838503121561505657600080fd5b823567ffffffffffffffff8082111561506e57600080fd5b61507a86838701614c38565b9350602085013591508082111561509057600080fd5b50614f5c85828601614c38565b6000602082840312156150af57600080fd5b81516119d58161598b565b6000602082840312156150cc57600080fd5b5035919050565b600080604083850312156150e657600080fd5b82359150614d7660208401614c1c565b60006020828403121561510857600080fd5b81356001600160e01b0319811681146119d557600080fd5b60006020828403121561513257600080fd5b813567ffffffffffffffff81111561514957600080fd5b614a5b84828501614d11565b60008082840361010081121561516a57600080fd5b60e081121561517857600080fd5b506151816156bc565b8335815261519160208501614c1c565b60208201526151a260408501614c1c565b6040820152606084013560608201526151bd60808501614c1c565b60808201526151ce60a08501614c1c565b60a082015260c08481013590820152915060e083013567ffffffffffffffff8111156151f957600080fd5b614f5c85828601614d11565b60008082840360e081121561521957600080fd5b60c081121561522757600080fd5b506152306156e5565b8335815261524060208501614c1c565b602082015261525160408501614c1c565b60408201526060840135606082015261526c60808501614c1c565b608082015260a08481013590820152915060c083013567ffffffffffffffff8111156151f957600080fd5b6000602082840312156152a957600080fd5b5051919050565b6000806000606084860312156152c557600080fd5b833592506152d560208501614c1c565b9150614fc360408501614c1c565b600080604083850312156152f657600080fd5b50508035926020909101359150565b60006020828403121561531757600080fd5b815160ff811681146119d557600080fd5b6000825161533a8184602087016158eb565b9190910192915050565b7f416363657373436f6e74726f6c3a206163636f756e742000000000000000000081526000835161537c8160178501602088016158eb565b7001034b99036b4b9b9b4b733903937b6329607d1b60179184019182015283516153ad8160288401602088016158eb565b01602801949350505050565b86815260006bffffffffffffffffffffffff19808860601b166020840152808760601b166034840152808660601b1660488401525083605c830152825161540781607c8501602087016158eb565b91909101607c01979650505050505050565b6001600160a01b03929092168252602082015260400190565b60208152600082518060208401526154518160408501602087016158eb565b601f01601f19169190910160400192915050565b6020808252601d908201527f54776f5761793a2063616c6c6572206973206e6f742063726f73736572000000604082015260600190565b6020808252600b908201526a1b9bdd081cdd5c1c1bdc9d60aa1b604082015260600190565b6020808252602c908201527f46756e6374696f6e206d7573742062652063616c6c6564207468726f7567682060408201526b19195b1959d85d1958d85b1b60a21b606082015260800190565b602080825260119082015270151ddbd5d85e4e881d1e081b5a5b9d1959607a1b604082015260600190565b6020808252602c908201527f46756e6374696f6e206d7573742062652063616c6c6564207468726f7567682060408201526b6163746976652070726f787960a01b606082015260800190565b6020808252602e908201527f496e697469616c697a61626c653a20636f6e747261637420697320616c72656160408201526d191e481a5b9a5d1a585b1a5e995960921b606082015260800190565b6020808252601b908201527f54776f5761793a2063616c6c6572206973206e6f742061646d696e0000000000604082015260600190565b6020808252600c908201526b7a65726f206164647265737360a01b604082015260600190565b602080825260139082015272040e4c2e8d2de8ccaca40dcdee840dac2e8c6d606b1b604082015260600190565b600060e08201905082518252602083015160018060a01b038082166020850152806040860151166040850152606085015160608501528060808601511660808501528060a08601511660a0850152505060c083015160c083015292915050565b60405160e0810167ffffffffffffffff811182821017156156df576156df615975565b60405290565b60405160c0810167ffffffffffffffff811182821017156156df576156df615975565b604051601f8201601f1916810167ffffffffffffffff8111828210171561573157615731615975565b604052919050565b600067ffffffffffffffff82111561575357615753615975565b5060051b60200190565b6000821982111561577057615770615949565b500190565b60008261579257634e487b7160e01b600052601260045260246000fd5b500490565b600181815b808511156157d25781600019048211156157b8576157b8615949565b808516156157c557918102915b93841c939080029061579c565b509250929050565b60006119d583836157f1565b60006119d560ff8416835b60008261580057506001610d00565b8161580d57506000610d00565b8160018114615823576002811461582d57615849565b6001915050610d00565b60ff84111561583e5761583e615949565b50506001821b610d00565b5060208310610133831016604e8410600b841016171561586c575081810a610d00565b6158768383615797565b806000190482111561588a5761588a615949565b029392505050565b60008160001904831182151516156158ac576158ac615949565b500290565b6000828210156158c3576158c3615949565b500390565b600060ff821660ff8416808210156158e2576158e2615949565b90039392505050565b60005b838110156159065781810151838201526020016158ee565b838111156134805750506000910152565b60008161592657615926615949565b506000190190565b600060001982141561594257615942615949565b5060010190565b634e487b7160e01b600052601160045260246000fd5b634e487b7160e01b600052603260045260246000fd5b634e487b7160e01b600052604160045260246000fd5b8015158114611b4b57600080fdfe416464726573733a206c6f772d6c6576656c2064656c65676174652063616c6c206661696c6564a26469706673582212201b2897b9a8d5323d26897a5d0732b259417711b797bab10aa64f55300ed665b964736f6c63430008060033",
  "linkReferences": {},
  "deployedLinkReferences": {}
}